:1000000002C2000031C200002FC200002DC2000059
:100010002BC2000029C2000027C2000025C2000038
:1000200023C2000021C200001FC200001DC2000048
:100030001BC200000C94550E17C2000015C2000030
:1000400013C20000F1C700000FC200000DC2000083
:100050000BC200000C94D00A07C2000005C20000C9
:1000600003C200000C94E6080C941709FDC10000BF
:10007000FBC10000F9C10000F7C10000F5C100009C
:10008000F3C10000F1C10000EFC10000EDC10000AC
:100090000C9453090C948409E7C10000E5C10000E9
:1000A000E3C10000E1C10000DFC10000DDC10000CC
:1000B000DBC10000D9C10000D7C10000D5C10000DC
:1000C000D3C10000D1C10000CFC100000C94B2091F
:1000D0000C94E309C9C100000C94110A0C94430A62
:1000E000C3C10000F806F906F906F906F906F90693
:1000F000F906F906F906F906F906F906F906F90608
:10010000F906F906F906F906F006F906F906F90600
:10011000F906F906F206F906F906EE06F906F906F9
:10012000F906F906F806F906F906F906F906F906D8
:10013000F906F906F906F906F906F906F406F906CC
:10014000F906F906F906F606EA06F906F906F906C9
:10015000F906F906EC0643616E277420706F702073
:1001600066726F6D20656D70747920726561647957
:100170002071756575650043616E27742070757315
:1001800068206F6E2066756C6C20726561647920E2
:100190007175657565002020202020202020005BDF
:1001A0004552524F525D200020537461636B2063AF
:1001B0006F6C6C69646573207769746820676C6F15
:1001C00062616C2076617273002D2D2D2D2D2D2DE9
:1001D0002D2D2D2D2D2D2D2D2D2D2D2D2D2D2D2D4F
:1001E0002D2D2D2D2D2D2D2D2D2D2D2D2D2D2D2D3F
:1001F0002D2D2D2D2D2D2D2D2D2D2D0A005B494E14
:10020000464F5D2020005573656420676C6F626106
:100210006C20766172733A2025642F256420627900
:10022000746573005B494E464F5D202000426F6F3E
:1002300074696E672044454F53202E2E2E000A0A03
:10024000232323232323232323232323232323237E
:10025000232323232323232323232323232323236E
:10026000232323232323232323232323232323235E
:1002700023230A00426F6F74696E672044454F5311
:10028000202E2E2E006F735F737461727453636837
:100290006564756C65722829207465726D696E617C
:1002A00074656420616761696E737420616C6C2091
:1002B0006F646473202D2073636172792073747589
:1002C00066662E2E2E005468657265206973206E56
:1002D0006F2069646C652070726F63006F735F6577
:1002E0007865632829202D3E20004E6F20667265B8
:1002F0006520736C6F7420617661696C61626C65F6
:100300000A00436865636B73756D206D69736D6179
:1003100074636820696E2070726F63657373202543
:100320006400537461636B20706F696E7465722032
:100330006F7574206F6620626F756E647320696ECE
:100340002070726F63657373202564004372697453
:100350002E2053656374696F6E202020756E64656E
:1003600072666C6F7700437269742E2053656374F4
:10037000696F6E2020206F766572666C6F77002043
:10038000546573742066696E6973686564005068AB
:1003900061736520353A202072656665722D656E41
:1003A0006365206672616D6520004F4B0020202040
:1003B000202D2D3E20203C2D2D005068617365209E
:1003C000343A00506861736520333A004C4544204C
:1003D0004F6666004C4544204F6E0050686173655F
:1003E00020323A004F6E626F617264204C454400C7
:1003F000506861736520313A20546F67676C6500FF
:10040000AD0C7E108F1011241FBECFEFD1E2DEBFE6
:10041000CDBF00E00CBF13E0A0E0B2E0E0EEF9E2F7
:1004200000E00BBF02C007900D92AE32B107D9F7C2
:1004300025E0AEE2B3E001C01D92A838B207E1F7B3
:1004400012E0C3E0D2E000E006C021970109802F4E
:10045000FE010E94B211C030D10780E00807A9F761
:100460000E94830B0C94EE14CBCDC7D184B180686D
:1004700084B981E080932E0389E292E00C94031208
:10048000089555C20895FC018081882321F085B12B
:10049000806885B9089585B18F7785B9089585B14C
:1004A000805885B9089585B18F7785B90895FC0185
:1004B0006181808136C408950F931F93CF93DF939A
:1004C000CDB7DEB7A1970FB6F894DEBF0FBECDBF94
:1004D000FC0140814132A8F48C01BC016F5F7F4F69
:1004E00050E0CE0101960E94D811F8018081E1E030
:1004F000F0E0EC0FFD1FE80FF11D1082CE01019618
:1005000086D4A1960FB6F894DEBF0FBECDBFDF91A3
:10051000CF911F910F910895CF93DF93EC018AE360
:1005200092E00E9403128C811F928F9387E592E0E4
:100530009F938F930E94F0119C818FEF890F0F90F2
:100540000F900F900F908133B0F58D818031F9F0CD
:1005500028F4813041F0823089F02DC0813101F1E1
:10056000823121F128C083E692E00E9403128C813F
:10057000823009F5CE01069686DF1DC08FE692E037
:100580000E9403128C818130B1F489DF14C08EE7A0
:1005900092E00E9403128C81813069F484DF0BC0E9
:1005A000933049F4CE01069682DF05C0923219F4E9
:1005B000CE01069681DFDF91CF910895CF93DF932F
:1005C000CDB7DEB7E1970FB6F894DEBF0FBECDBF53
:1005D00091E099836A83AE014F5F5F4F61E344D13D
:1005E000E1960FB6F894DEBF0FBECDBFDF91CF917D
:1005F00008951F93CF93DF93CDB7DEB7E1970FB682
:10060000F894DEBF0FBECDBF182F8CE892E00E9499
:10061000031282E08983AE014F5F5F4F61E0812F5B
:1006200023D1E1960FB6F894DEBF0FBECDBFDF91A8
:10063000CF911F910895CF93DF93CDB7DEB7E197A8
:100640000FB6F894DEBF0FBECDBF90E19983AE0127
:100650004F5F5F4F61E308D1E1960FB6F894DEBFBC
:100660000FBECDBFDF91CF910895CF93DF93CDB76C
:10067000DEB7E1970FB6F894DEBF0FBECDBF91E1B4
:1006800099836A834B83AE014F5F5F4F61E3ECD088
:10069000E1960FB6F894DEBF0FBECDBFDF91CF91CC
:1006A00008951F93CF93DF93CDB7DEB7C455D1091B
:1006B0000FB6F894DEBF0FBECDBF182F65967FAF83
:1006C0006EAF659722E12983A62FB72FFD01019018
:1006D0000020E9F73197EA1BFB0BEAAB4E2F50E005
:1006E000BE016D5A7F4FCE01C3960E94D81181E2A0
:1006F000FE01F296DE01129601900D928A95E1F7C5
:10070000AE014F5F5F4F61E3812FAED0CC5ADF4F18
:100710000FB6F894DEBF0FBECDBFDF91CF911F9112
:100720000895FF920F931F93CF93DF93CDB7DEB75A
:10073000C258D1090FB6F894DEBF0FBECDBFF82E58
:1007400082E189838E010D5A1F4F4FE250E0C801AC
:100750000E94C911F80117A601900020E9F731970E
:10076000E01BF10BEAAB4FE150E0B801CE01C396BC
:100770000E94E11163961FAE639781E2FE01F2963B
:10078000DE01129601900D928A95E1F7AE014F5F5E
:100790005F4F61E38F2D68D0CE57DF4F0FB6F894CF
:1007A000DEBF0FBECDBFDF91CF911F910F91FF90A4
:1007B00008958F929F92AF92BF92CF92DF92EF9265
:1007C000FF924B015C0169017A012BD7DC01CB015F
:1007D00088199909AA09BB0921E08C159D05AE0568
:1007E000BF0508F420E0822FFF90EF90DF90CF90BC
:1007F000BF90AF909F908F90089586EA92E00E94FC
:1008000003122CC10895CF92DF92EF92FF92CF9303
:10081000C82F6A017B010BC024EF31E040E050E0BB
:10082000C701B601C6DF81110AC00E94300F2CD566
:100830002C2F30E0821793077CF381E001C080E029
:10084000CF91FF90EF90DF90CF900895FC0190E062
:1008500008C0DB01A90FB11D2C91808128272083BE
:100860009F5F9417B0F308950F931F93CF93DF9377
:10087000CDB7DEB728970FB6F894DEBF0FBECDBF59
:10088000082F162F58874F8389EB92E00E9403129E
:100890001F921F9384ED92E09F938F930E94F0111B
:1008A0000C831D83809100028B83809101029091C3
:1008B00002029A83898345E0BE016F5F7F4FCE01BC
:1008C0000696C4DF412FBE01695F7F4FCE010696B9
:1008D000BDDF65E0CE010196C7D0612FCE0107963E
:1008E000C3D061E0CE010696BFD00F900F900F905D
:1008F0000F9028960FB6F894DEBF0FBECDBFDF91E4
:10090000CF911F910F9108950F931F93CF93DF9372
:100910008C01EB0145E09ADFBE016B5F7F4F4C819C
:10092000C80194DFDF91CF911F910F910895CF936C
:10093000DF93CDB7DEB7EA970FB6F894DEBF0FBEF0
:10094000CDBF86EE92E00E9403126BD6AB01BC01D4
:1009500082E059DF811105C08DEF92E00E94031201
:1009600074C061E0CE010196B2D081116EC02981C0
:1009700030E08091010290910202992728173907EF
:1009800009F063C061E0CE010296A1D081115DC083
:100990002A8130E08091020290E02817390709F09F
:1009A00054C03FD6AB01BC0183E02DDF811105C0EF
:1009B00086E093E00E94031248C08091010290916A
:1009C00002029C838B8361E0CE01059680D0811169
:1009D0003CC061E0CE0106967AD0811136C061E05C
:1009E000CE01079674D0811130C08F81823368F5B3
:1009F00018D6AB01BC018F818F5F05DF811105C067
:100A00008FE093E00E94031220C06F81CE01089610
:100A10005ED081111AC061E0CE01C99658D0811113
:100A200014C0BE016D5F7F4FCE01CA966DDF99ADD8
:100A30008AAD98130AC08E818F3F21F090910002F9
:100A4000891303C0CE01039667DDEA960FB6F894CA
:100A5000DEBF0FBECDBFDF91CF91089589E190E059
:100A60003FC5089575C50895EF92FF921F93CF93E8
:100A7000DF937C01162FC0E0D0E006C0F701EC0F39
:100A8000FD1F8081EFDF2196812F90E0C817D907E5
:100A9000ACF3DF91CF911F91FF90EF900895CF932A
:100AA000DF93EC0138D59C0133272F5F3F4F21F0B6
:100AB0002115314031F003C0888380E003C08FEFFF
:100AC00001C084E0DF91CF91089556C508956F92DB
:100AD0007F928F929F92AF92BF92CF92DF92EF92CE
:100AE000FF920F931F93CF93DF93CDB7DEB74C01E7
:100AF000662EEDB6FEB6E9DF062D10E080179107F1
:100B0000F0F08DB79EB7801B910B0FB6F8949EBF87
:100B10000FBE8DBF01966C015C01712C07C0C50131
:100B2000870D911DBCDF81110BC073947614B8F34F
:100B3000A801B601C4010E94D81180E001C084E080
:100B40000FB6F894FEBE0FBEEDBEDF91CF911F91A0
:100B50000F91FF90EF90DF90CF90BF90AF909F905C
:100B60008F907F906F900895B6D6E2E0F1E080819B
:100B70008064808385E08A95F1F7000080818F7B17
:100B800080838FE891E00197F1F700C00000C2C6B2
:100B90000895CF93C82F9FD6C0FF04C084B380624E
:100BA00084BB03C084B38F7D84BBC1FF04C08EB1FE
:100BB00088608EB903C08EB1877F8EB9C2FF06C030
:100BC000E2E0F1E080818860808305C0E2E0F1E04E
:100BD0008081877F8083C3FF06C0E2E0F1E08081EF
:100BE0008061808305C0E2E0F1E080818F7E8083B8
:100BF000BBDF90D6CF9108950F931F93CF93DF93D0
:100C0000CDB7DEB7AE01485F5F4FDA016D917D91E0
:100C1000AD0102E815E0D8011296ED91FC91139711
:100C200083818860838383E092E00E943312D8013D
:100C30001296ED91FC9113978381877F8383DF91D7
:100C4000CF911F910F910895CF93C82F44D6E2E022
:100C5000F1E080818F7D80838C2F82958F7099DF6A
:100C60008C2F97DF85ED8A95F1F7000053D6CF9151
:100C7000089531D6E1E0F1E08081886780838DB10D
:100C800088608DB983B3806283BB80B3816080BB91
:100C900081B38E7F81BB2FEF80E792E021508040AF
:100CA0009040E1F700C0000083E073DF8FE19EE435
:100CB0000197F1F700C0000083E06BDF8FE193E064
:100CC0000197F1F700C0000083E063DF8FE193E05C
:100CD0000197F1F700C0000082E05BDF88E2B4DF3B
:100CE0008CE0B2DF81E0B0DF86E0AEDF8FE19EE432
:100CF0000197F1F700C000000DC60895ECD51092E1
:100D00000A0581E0A1DF8FE39FE10197F1F700C0C1
:100D1000000000C608958CE097CF089588E094CF36
:100D20000895CF93DF93D82FC62F823008F0D1E0FB
:100D3000D2D58C2F90E4D99F800D1124806884DF58
:100D400080E1D89FC00D1124C0930A05E3D5DF913F
:100D5000CF910895CF93C82FBED5E2E0F1E0808116
:100D6000806280838C2F82958F7013DF8C2F11DF30
:100D700085ED8A95F1F70000CDD5CF91089560E01B
:100D800080E0CFCF089560E081E0CBCF0895CF938E
:100D9000C82FA1D5CA3031F480910A058071805FD7
:100DA00080930A0580910A05803111F4ECDF04C0BC
:100DB000803211F4A3DFE3DF8C2F90E0FC01E458D4
:100DC000F109E933F105A8F48827EE58FF4F8F4F5A
:100DD0000C94B211CFEE0DC0C5EF0BC0C2EE09C02E
:100DE000CFEE07C0C5EF05C0CFED03C0C4EE01C014
:100DF000C1EE8C2FAFDF80910A058F5F80930A05CB
:100E000089D5CF910895C3DF80E090E008950F93D6
:100E10001F93CF93DF93EC015ED502C0B8DFE801EA
:100E20008E010F5F1F4F88818111F8CF73D5DF913D
:100E3000CF911F910F9108950F931F93CF93DF933D
:100E4000EC0149D502C0A3DFE8018E010F5F1F4FFF
:100E5000FE0184918111F7CF5DD5DF91CF911F9174
:100E60000F910895CF92DF92EF92FF921F93CF934D
:100E7000DF93EC01892B19F480E389DF30C02BD597
:100E800010E00F2EF0E1CF2EF7E2DF2EE12CF12C57
:100E9000F02DBE0180E090E0A70196010E94901124
:100EA000422F50E04C9DC0014D9D900D5C9D900DDA
:100EB0001124C81BD90B122B19F080E3820F67DFB6
:100EC000C701B6012AE030E040E050E00E949011F6
:100ED00069017A01232B242B252BD9F61BD5DF9111
:100EE000CF911F91FF90EF90DF90CF900895FC017C
:100EF0002185928581E0291380E00895CF93DF93C7
:100F0000EC01F5DF882339F086E591E09F938F931C
:100F10005DD40F900F909985292F30E0FE01E20FEC
:100F2000F31F80812F5F3F4F2930310514F49F5FFD
:100F300001C090E09987DF91CF910895FC0122854F
:100F400030E02F5F3F4F2930310514F020E030E0D2
:100F5000FC01418550E081E02417350709F080E06D
:100F600008951F93CF93DF93EC01162FE7DF8823BB
:100F700039F087E791E09F938F9328D40F900F90DB
:100F80002A85822F90E0FE01E80FF91F1083019659
:100F9000099714F42F5F01C020E02A87DF91CF91D9
:100FA0001F910895FC01118612860895FC01218588
:100FB00030E032C0DF01A20FB31F5C91561324C092
:100FC00018C0B9016F5F7F4F693071051CF0A0E058
:100FD000B0E001C0DB01AE0FBF1F5C91DF01A20FCB
:100FE000B31F5C93693071051CF020E030E001C054
:100FF0009B012817390729F7442311F0415001C0FC
:1010000048E0428781E00895C901019620E030E080
:10101000893091050CF49C014285842F90E02817BB
:10102000390741F680E008951F920F920FB60F9294
:1010300011248F939F93AF93BF9380912F0390912F
:101040003003A0913103B09132039058AF4FBF4F9E
:1010500080932F0390933003A0933103B093320316
:10106000BF91AF919F918F910F900FBE0F901F90E6
:101070001895E1E8F0E080818E7F808380818D7F0C
:10108000808380818B7F80830895109280001092EE
:1010900085001092840081E090E090938900809315
:1010A0008800EFE6F0E0808181608083E2CF0895E0
:1010B00012D483E090E09093D5008093D400E0EDCB
:1010C000F0E080818D7F8083E1EDF0E080818061C0
:1010D00080838081886080831DC408959091D000B2
:1010E00095FFFCCF8093D60008950F931F93CF9365
:1010F000DF938C01F0D3D0E00DC0F801ED0FF11DAE
:10110000C491CA3011F48DE0E9DFCC2329F08C2F93
:10111000E5DFDF5FDF3F89F7FDD3DF91CF911F91DF
:101120000F910895C5DF81E192E09093850580934A
:1011300084050895CF93C82F8A3011F48DE0CEDF57
:101140008C2FCCDFCF910895D0CF0895CF93C82FA7
:10115000C2D38C2FEFDFCA3019F486E991E0F4DFB7
:10116000D9D380E090E0CF9108958AE0E3CF08954D
:101170000F931F93CF93DF93CDB7DEB7ACD38885A2
:101180009985E2DF02E815E0D8011296ED91FC9115
:101190001397838188608383AE01445F5F4F6A85C4
:1011A0007B8512968D919C9113970E943312D801E2
:1011B0001296ED91FC9113978381877F8383D5DF0E
:1011C000A9D3DF91CF911F910F9108951F920F9294
:1011D0000FB60F9211240BB60F922F938F939F93FC
:1011E000EF93FF938091C0002091C6008C71E09135
:1011F0000405EF5F90910305E91739F0E0930405CA
:10120000F0E0E95FFA4F208301C082E0909102058F
:10121000892B80930205FF91EF919F918F912F91E0
:101220000F900BBE0F900FBE0F901F9018951F923E
:101230000F920FB60F9211240BB60F928F939F93BC
:10124000EF93FF939091060580910505981761F043
:10125000E0910505EF5FE0930505F0E0E95FFA4FE7
:1012600080818093C60005C0E1ECF0E080818F7D35
:101270008083FF91EF919F918F910F900BBE0F9004
:101280000FBE0F901F9018952091030530E08091BC
:10129000040590E08217930718F0821B930B0895C2
:1012A000821B930B08951F920F920FB60F92112479
:1012B0000BB60F922F938F939F93EF93FF93809191
:1012C000C8002091CE008C71E091BF03EF5F909138
:1012D000BE03E91739F0E093BF03F0E0EE53FC4F93
:1012E000208301C082E09091BD03892B8093BD03D0
:1012F000FF91EF919F918F912F910F900BBE0F90C7
:101300000FBE0F901F9018951F920F920FB60F925D
:1013100011240BB60F928F939F93EF93FF939091AD
:10132000C1038091C003981769F0E091C003EF5F9B
:10133000EF73E093C003F0E0EE53FB4F80818093A6
:10134000CE0005C0E9ECF0E080818F7D8083FF91C5
:10135000EF919F918F910F900BBE0F900FBE0F904A
:101360001F9018951F920F920FB60F9211240BB673
:101370000F922F938F939F93EF93FF938091D000C1
:101380002091D6008C71E0917A03EF5F9091790300
:10139000E91739F0E0937A03F0E0E358FC4F20833B
:1013A00001C082E090917803892B80937803FF91AC
:1013B000EF919F918F912F910F900BBE0F900FBEC9
:1013C0000F901F9018951F920F920FB60F92112435
:1013D0000BB60F928F939F93EF93FF9390917C03A3
:1013E00080917B03981769F0E0917B03EF5FEF73C7
:1013F000E0937B03F0E0E358FC4F80818093D600BC
:1014000005C0E1EDF0E080818F7D8083FF91EF9159
:101410009F918F910F900BBE0F900FBE0F901F905A
:1014200018951F920F920FB60F9211240BB60F92C0
:101430002F938F939F93EF93FF938091300120918F
:1014400036018C71E0913503EF5FEF7390913403B7
:10145000E91739F0E0933503F0E0E85CFC4F2083B6
:1014600001C082E090913303892B80933303FF9175
:10147000EF919F918F912F910F900BBE0F900FBE08
:101480000F901F9018951F920F920FB60F92112474
:101490000BB60F928F939F93EF93FF939091370327
:1014A00080913603981761F0E0913603EF5FE09387
:1014B0003603F0E0E858FC4F80818093360105C088
:1014C000E1E3F1E080818F7D8083FF91EF919F9137
:1014D0008F910F900BBE0F900FBE0F901F9018951D
:1014E0001092370310923603109235031092340392
:1014F000282F392F33231CF422E0209330019078D9
:10150000909335018093340188E98093310186E01E
:101510008093320108959091350380913403981798
:10152000A1F0809134038F5F8F73E82FF0E0E85CC7
:10153000FC4F2081309133038093340310923303A6
:1015400080E0932F820F911D089580E091E008952F
:10155000209137032F5F909136032917E1F3E22F93
:10156000F0E0E858FC4F808320933703E1E3F1E09B
:1015700080818062808308952091340330E08091DF
:10158000350390E08217930718F0821B930B0895A0
:1015900040E450E0BA01621B730B860F971F089559
:1015A0001F920F920FB60F9211248F939F93AF93B8
:1015B000BF9380910B0590910C05A0910D05B09102
:1015C0000E050196A11DB11D80930B0590930C058E
:1015D000A0930D05B0930E05BF91AF919F918F9190
:1015E0000F900FBE0F901F90189510920B05109240
:1015F0000C0510920D0510920E0585B5816085BD14
:1016000085B5826085BD85B58B7F85BD84B58260DB
:1016100084BD89EF87BDEEE6F0E080818260808343
:1016200008950FB607FC18C0A99B16C085B3826049
:1016300085BB80910B0590910C05A0910D05B09193
:101640000E050196A11DB11D80930B0590930C050D
:10165000A0930D05B0930E058FB7282F221F2227C8
:10166000221FF89460910B0570910C0580910D0577
:1016700090910E05222309F078940895CF92DF927D
:10168000EF92FF920F931F93CF93DF930097D1F0C8
:10169000EC01C7DF6B017C0106C08FE891E0019788
:1016A000F1F700C00000BDDFDC01CB018C199D0902
:1016B000AE09BF098E0120E030E080179107A20734
:1016C000B30758F3DF91CF911F910F91FF90EF90E7
:1016D000DF90CF900895CF93DF93CDB7DEB79F8192
:1016E00028858E8181110CC0AE01475F5F4F5F93EB
:1016F0004F932F939F936AD00F900F900F900F905E
:10170000DF91CF91089521D088E592E0B7DFF6DA36
:1017100035D181E090E00895E0EBF0E080818260D7
:101720008083E1EBF0E0808184608083808182604F
:101730008083808181608083E0E7F0E08081826047
:1017400080838CE38093B30008954FDFE5DF9DDC59
:1017500090DAE8DCE0DAD2DA84E792E06DDB8EE35F
:1017600092E0F2DC8DE292E09F938F9384E292E02C
:101770009F938F93FDDC83E08F9388EE8F9388E8AF
:1017800093E09F938F9386E092E09F938F938DEFEA
:1017900091E09F938F93ECDC89EC91E0D5DC88EAB3
:1017A00091E09F938F9381E028E835E0283E354013
:1017B00008F080E08F938FDFF4D18DB79EB70F963E
:1017C0000FB6F8949EBF0FBE8DBF0895CF93DF93E1
:1017D000CDB7DEB71E810F81F8948FEF91E29EBFE7
:1017E0008DBF8CDACE0108969F938F930F931F9332
:1017F00003DACE0108969F938F930F931F938FE97F
:1018000091E09F938F93B4DC0FB6F894DEBF0FBEC8
:10181000CDBF81DA9FEF2DE389E4915020408040D5
:10182000E1F700C000007ADA9FEF21EE84E09150EA
:1018300020408040E1F700C00000EBCFC0E0D0E0E6
:1018400006C08EE2A4DA84E690E018DF2196C33069
:10185000D105BCF353DA84E690E010DFEFCFBC0192
:10186000990F880B990B089521E030E002C0220FF8
:10187000331F8A95E2F780915F05909160052823D8
:10188000392381E0232B09F480E00895803148F466
:10189000E82FF0E0EE0FFF1FE15CFA4F80819181AD
:1018A000089580E090E0089590E09C01220F331F9E
:1018B000820F931F880F991F815F9A4F089590E0C0
:1018C000880F991F815C9A4F0895809109050895AA
:1018D000809108050895CF93CFB7CC1FCC27CC1F9C
:1018E000F894809107058F3F41F486E693E09F933B
:1018F0008F936CDF0F900F9003C08F5F809307056D
:10190000E0E7F0E080818D7F8083CC2309F078943C
:10191000CF910895CF93CFB7CC1FCC27CC1FF8948D
:1019200080910705811108C08CE493E09F938F9309
:101930004DDF0F900F9003C0815080930705809179
:101940000705811105C0E0E7F0E0808182608083B7
:10195000CC2309F07894CF91089580E0B0DF2EE198
:101960003CE0FC013183208380915F05909160050C
:1019700081609093600580935F050895109209053A
:10198000EFE0F5E082E08183828193819EBF8DBF8D
:101990000F901F902F903F904F905F906F907F908F
:1019A0008F909F90AF90BF90CF90DF90EF90FF907F
:1019B0000F911F912F913F914F915F916F917F9167
:1019C0008F919F91AF91BF91CF91DF91EF91FF9157
:1019D000FFBFFF91189585E892E09F938F93F6DE05
:1019E0000F900F90089590E027E633E0829FA001CA
:1019F000839F500D929F500D11242FE131E2241B43
:101A0000350BFC01EE0FFF1FE80FF91FEE0FFF1F54
:101A1000E15FFA4F42815381241B203178F490E03A
:101A200080E017C0322F32953F70FA01399FE00DE8
:101A3000F11D1124308183279F5F02C090E080E078
:101A4000903180F30895FA01E90FF11D3081832769
:101A50009F5F9217C0F30895EF92FF920F931F9329
:101A6000CF93DF93E82EF62E36DFC0E0D0E00DC036
:101A7000FE01EE0FFF1FEC0FFD1FEE0FFF1FE15FDA
:101A8000FA4F8181882331F02196C830D10584F343
:101A9000CFEFDFEFCF3F8FEFD80781F48AEE92E0F0
:101AA0009F938F938CED92E09F938F9361DB32DF56
:101AB0000F900F900F900F901FEF6BC08E01000FD3
:101AC000111F0C0F1D1F000F111F015F1A4FD801AE
:101AD000EC9281E011968C9311971496FC921497D6
:101AE00087E693E0C89F9001C99F300DD89F300DC5
:101AF00011248FE191E27C01E21AF30AC7010197F8
:101B000013969C938E9312978FE69FE0A8DEF701C1
:101B10006083D8011296ED91FC9113979F0121509B
:101B2000310913963C932E93129770831296ED9180
:101B3000FC9113979F012150310913963C932E93EA
:101B40001297808380E012C0FE01EE0FFF1FEC0FA2
:101B5000FD1FEE0FFF1FE15FFA4FA281B3819D01D0
:101B600021503109338322831C928F5F813260F3CD
:101B70001C2F8C2F38DFFE01EE0FFF1FEC0FFD1F17
:101B8000EE0FFF1FE15FFA4F8583A2DE6C2FFED1BF
:101B9000C1DE812FDF91CF911F910F91FF90EF90C8
:101BA0000895CF93DF9380E090E00BC0FC01EE0F2F
:101BB000FF1FE80FF91FEE0FFF1FE15FFA4F1182C1
:101BC00001968830910594F3C0E0D0E008C08C2FD6
:101BD0004BDE882319F062E08C2F3EDF2196C03166
:101BE000D105ACF380910805F9D188EB9BE046DD87
:101BF00020913F053091400586EC92E09F938F93B2
:101C000081E0232B09F480E08F9365DD0F900F9026
:101C10000F90DF91CF9108958F929F92AF92BF92D4
:101C2000CF92DF92EF92FF920F931F93482F50E0D5
:101C3000FA01EE0FFF1FE40FF51FEE0FFF1FE15F2C
:101C4000FA4FC280D380E12CF12C9A01A7E6B3E0D1
:101C500091D30FE111E220E030E0061B170B280BB7
:101C6000390B0C151D052E053F0588F008EB1DE10D
:101C700020E030E048015901861A970AA80AB90AFB
:101C8000C814D904EA04FB0420F480E003C080E017
:101C900001C081E01F910F91FF90EF90DF90CF90F6
:101CA000BF90AF909F908F900895FF93FFB7FF93E1
:101CB000EF93DF93CF93BF93AF939F938F937F93D4
:101CC0006F935F934F933F932F931F930F93FF92C5
:101CD000EF92DF92CF92BF92AF929F928F927F92BC
:101CE0006F925F924F923F922F921F9211240F9208
:101CF0008091090590E02DB73EB7FC01EE0FFF1F64
:101D0000E80FF91FEE0FFF1FE15FFA4F33832283C5
:101D10008FED91E29EBF8DBF10910905C12FD0E0DC
:101D2000FE01EE0FFF1FEC0FFD1FEE0FFF1FE15F27
:101D3000FA4F8181823059F4FE01EE0FFF1FEC0F44
:101D4000FD1FEE0FFF1FE15FFA4F81E08183812FBE
:101D50004ADE9E01220F331FC20FD31FCC0FDD1F9F
:101D6000C15FDA4F8D83812F57DF81110BC01F9226
:101D70001F9382E293E09F938F9328DD0F900F9043
:101D80000F900F90A5DD882319F0813049F010C025
:101D9000609109058FE095E0BFD0809309050AC0E6
:101DA000609109058FE095E043D18093090502C059
:101DB00010920905C09109058C2F90E0FC01EE0FEF
:101DC000FF1FE80FF91FEE0FFF1FE15FFA4FD581EC
:101DD0008C2F09DED81759F01F92CF9382E093E041
:101DE0009F938F93F3DC0F900F900F900F90809143
:101DF000090590E0FC01EE0FFF1FDF01A80FB91FDE
:101E0000AA0FBB1FA15FBA4F22E011962C93119726
:101E1000FD01828193819EBF8DBF0F901F902F90F7
:101E20003F904F905F906F907F908F909F90AF907A
:101E3000BF90CF90DF90EF90FF900F911F912F9167
:101E40003F914F915F916F917F918F919F91AF9152
:101E5000BF91CF91DF91EF91FF91FFBFFF91189557
:101E600080910705811104C0F8941092B2001DCF33
:101E70000895CF939FEF980F973060F5282F30E0AB
:101E8000F901EE0FFF1FE20FF31FEE0FFF1FE15FDF
:101E9000FA4F9181992301F1C82F1DDD8C2F04DDAC
:101EA000FC01118215DD6C2F71D00FDDC8130EC03F
:101EB00081E0809307052EDD7894D2DF88E193E0FE
:101EC0009F938F938DD20F900F90F8CF23DDC8DFB3
:101ED00081E003C080E001C080E0CF910895F5DC8F
:101EE000C82F90E0FC01EE0FFF1FE80FF91FEE0F67
:101EF000FF1FE15FFA4F8081C9DC009711F0FC0100
:101F000019958C2FB6DFACDF88E193E09F938F9318
:101F100067D20F900F90F8CFCF93DF93EC01D5DC11
:101F200091E0980F0FC0292F30E0F901EE0FFF1F4D
:101F3000E20FF31FEE0FFF1FEC0FFD1F2181213079
:101F4000F9F09F5F983078F391E00FC0292F30E0CF
:101F5000F901EE0FFF1FE20FF31FEE0FFF1FEC0F53
:101F6000FD1F2181213071F09F5F492F50E0282F04
:101F700030E02F5F3F4F4217530744F380E003C028
:101F8000892F01C0892FDF91CF910895CF93DF93DF
:101F9000882309F1D62FC0E009C02BE0C29FC00101
:101FA00011246D2F8F599A4F01D8CF5FC330A8F3FA
:101FB0008D2F7ADCFC018181813069F48D2F74DCF6
:101FC000FC018481FBE08F9FC00111246D2F8F598C
:101FD0009A4F0E94B107DF91CF910895CF93882344
:101FE00029F1C0E009C02BE0C29FC00111248F5924
:101FF0009A4F0E94D207CF5FC330A8F3C1E014C04C
:102000008C2F52DCFC018181813069F48C2F4CDCF7
:10201000FC018481FBE08F9FC00111246C2F8F593C
:102020009A4F0E94B107CF5FC83050F3CF91089507
:10203000DF92EF92FF920F931F93CF93DF93D62EF1
:10204000C0E0D0E021C07E012FEFE21AF20A8BE05F
:102050008E9D80018F9D100D11240F591A4FC801BC
:102060000E94770781110FC0C8010E947E079BE084
:102070009C9F90019D9F300D1124682FC9018F599D
:102080009A4F0E94B107E701C230D105E4F28D2DCD
:102090000BDCFC018181813069F48D2D05DCFC01B4
:1020A0008481FBE08F9FC00111246D2D8F599A4FC1
:1020B0000E94B107C0E0D0E012C08BE08C9F80018D
:1020C0008D9F100D11240F591A4FC8010E947707D8
:1020D000811104C0C8010E947E0705C02196C3304B
:1020E000D1055CF380E0DF91CF911F910F91FF90BC
:1020F000EF90DF9008950E944102FDCF81E0DFDB89
:102100002BEC30E1FC013183208380915F059091BD
:10211000600582609093600580935F05089582E07A
:10212000CEDB2BE730E1FC013183208380915F051A
:102130009091600584609093600580935F05089599
:10214000CF93DF93EC010A973CF06EE082E00E94AF
:102150009106CE010E943207C930D10579F46EE0B4
:1021600082E00E94910680E090E00E9432076FE0DA
:1021700082E00E949106CE010E943207CA30D1054A
:102180003CF46FE082E00E949106CE010E9432078B
:10219000DF91CF910895CF93DF93CDB7DEB72A9724
:1021A0000FB6F894DEBF0FBECDBF0E94350280EFA0
:1021B00093E00E941C070E94C30684EE93E00E94F5
:1021C0001C070FE010E00BC0C801BADF80910002CD
:1021D0000E94F90288EE93E051DA015011091016BD
:1021E000110694F30E947E068BED93E00E941C077B
:1021F0000E94C30684ED93E00E941C0761E0809179
:1022000000020E94DE020AE010E007C0C80198DF69
:1022100088EE93E033DA0150110910161106B4F379
:102220000E94C3068CEC93E00E941C0760E0809142
:1022300000020E94DE020AE010E007C0C80180DF51
:1022400088EE93E01BDA0150110910161106B4F361
:102250000E947E0683EC93E00E941C0788EE93E0C8
:102260000DDA0E94C3066EE173E0809100020E94C5
:10227000510382E390E002DA03E010E007C0C801F6
:102280005FDF88EE93E0FAD9015011091123BCF702
:10229000809100020E941B0380ED97E0EFD90E941D
:1022A0007E068AEB93E00E941C070E94C3068DEA1B
:1022B00093E00E941C0780ED97E0E0D947E061E0E1
:1022C0008FEF0E9435036AEA73E08FEF0E9491035B
:1022D00088EB9BE0D3D90E947E068EE893E00E94B3
:1022E0001C076EE081E00E94910688EE93E0C6D95B
:1022F0008AE0EFE1F2E0DE01119601900D928A95FD
:10230000E1F76AE0CE0101960E94340580ED97E086
:10231000B5D90E947E068FE793E00E941C07FFCF8D
:10232000A1E21A2EAA1BBB1BFD010DC0AA1FBB1FD9
:10233000EE1FFF1FA217B307E407F50720F0A21B4B
:10234000B30BE40BF50B661F771F881F991F1A94B8
:1023500069F760957095809590959B01AC01BD01E2
:10236000CF010895EE0FFF1F881F8BBF0790F691D6
:10237000E02D1994A29FB001B39FC001A39F700DDF
:10238000811D1124911DB29F700D811D1124911D7D
:102390000895FB01DC014150504048F005900D923A
:1023A0000020C9F701C01D9241505040E0F7089548
:1023B000FB01DC0102C001900D9241505040D8F762
:1023C0000895FB01DC014150504048F001900D920E
:1023D0000020C9F701C01D9241505040E0F7089518
:1023E000CF93DF93CDB7DEB7AE014A5F5F4FFA01FF
:1023F00061917191AF01809184059091850541D0E3
:10240000DF91CF9108950F931F93CF93DF93E091C6
:102410008405F0918505238121FF1BC08C01D0E04C
:10242000C0E0F80181918F0160918405709185056C
:10243000DB011896ED91FC911997882331F01995DD
:10244000892B79F3DFEFCFEFECCF8AE01995892B59
:1024500019F08FEF9FEF02C08D2F9C2FDF91CF914E
:102460001F910F910895CF93DF93EC018B818860CA
:102470008B83CE0106D02B81277F2B83DF91CF91D9
:1024800008952F923F924F925F926F927F928F9218
:102490009F92AF92BF92CF92DF92EF92FF920F93F3
:1024A0001F93CF93DF93CDB7DEB72B970FB6F8947A
:1024B000DEBF0FBECDBF6C017B018A01FC0117821C
:1024C0001682838181FFBFC1CE0101963C01F601D6
:1024D0009381F70193FD859193FF81917F0188237B
:1024E00009F4ADC1853239F493FD859193FF819153
:1024F0007F01853221F4B60190E0D6D1E8CF912C4E
:10250000212C312CFFE1F315D8F08B3279F038F41F
:10251000803279F08332A1F4232D20611DC08D32E9
:1025200061F0803369F4232D216016C0832D826011
:10253000382EE32DE4603E2E2AC0F32DF8601DC036
:1025400037FC2DC020ED280F2A3040F08E32B9F430
:1025500036FC75C1232D2064322E19C036FE06C00C
:102560008AE0989E200D1124922E11C0EAE02E9E42
:10257000200D1124222EF32DF0623F2E08C08C3640
:1025800021F4832D8068382E02C0883641F4F7018B
:1025900093FD859193FF81917F018111B3CF982F96
:1025A0009F7D9554933028F40C5F1F4F9FE39983D0
:1025B0000DC0833631F0833771F0833509F055C093
:1025C00020C0F801808189830E5F1F4F8824839487
:1025D000912C530112C02801F2E04F0E511CF8015A
:1025E000A080B18036FE03C0692D70E002C06FEF9D
:1025F0007FEFC5014ED14C018201F32DFF773F2EB5
:1026000015C0280122E0420E511CF801A080B180C3
:1026100036FE03C0692D70E002C06FEF7FEFC50189
:102620002DD14C01F32DF0683F2E820133FC19C0EF
:10263000822D90E088169906A0F4B60180E290E021
:1026400033D12A94F5CFF50137FC859137FE81917E
:102650005F01B60190E028D121102A9421E0821A6E
:1026600091088114910479F7E1C0843611F089361C
:1026700039F5F80137FE07C060817181828193814D
:102680000C5F1F4F08C060817181072E000C880B02
:10269000990B0E5F1F4FF32DFF763F2E97FF09C05A
:1026A00090958095709561957F4F8F4F9F4FF06803
:1026B0003F2E2AE030E0A30133D1882E861844C093
:1026C000853731F4232D2F7EB22E2AE030E025C04D
:1026D000932D997FB92E8F36C1F018F4883579F093
:1026E000AEC0803719F0883721F0A9C0E92FE0612A
:1026F000BE2EB4FE0DC0FB2DF460BF2E09C034FE0B
:102700000AC0292F2660B22E06C028E030E005C09E
:1027100020E130E002C020E132E0F801B7FE07C05E
:1027200060817181828193810C5F1F4F06C060813F
:10273000718180E090E00E5F1F4FA301F1D0882EE1
:102740008618FB2DFF773F2E36FE0DC0232D2E7FE2
:10275000A22E891458F434FE0BC032FC09C0832D1C
:102760008E7EA82E05C0B82CA32C03C0B82C01C0A7
:10277000B92CA4FE0FC0FE01E80DF11D808180334D
:1027800021F49A2D997EA92E09C0A2FE06C0B39409
:10279000B39404C08A2D867809F0B394A3FC10C0CA
:1027A000A0FE06C0B21480F4280C922C9B180DC019
:1027B000B21458F4B60180E290E076D0B394F8CF2A
:1027C000B21418F42B1802C0982C212CA4FE0FC0B0
:1027D000B60180E390E068D0A2FE16C0A1FC03C061
:1027E00088E790E002C088E590E0B6010CC08A2D31
:1027F000867851F0A1FE02C08BE201C080E2A7FC06
:102800008DE2B60190E050D0891430F4B60180E337
:1028100090E04AD09A94F8CF8A94F301E80DF11D24
:102820008081B60190E040D08110F6CF222009F4DB
:102830004ECEB60180E290E037D02A94F7CFF60171
:102840008681978102C08FEF9FEF2B960FB6F89489
:10285000DEBF0FBECDBFDF91CF911F910F91FF90D3
:10286000EF90DF90CF90BF90AF909F908F907F9030
:102870006F905F904F903F902F900895FC010590CE
:10288000615070400110D8F7809590958E0F9F1F72
:102890000895FC016150704001900110D8F78095B7
:1028A00090958E0F9F1F08950F931F93CF93DF93E3
:1028B000FB01238121FD03C08FEF9FEF2CC022FF7E
:1028C00016C046815781248135814217530744F44D
:1028D000A081B1819D012F5F3F4F318320838C9375
:1028E000268137812F5F3F4F3783268314C08B01AA
:1028F000EC01FB010084F185E02D1995892BE1F6AF
:10290000D80116968D919C911797019617969C93D6
:102910008E931697CE01DF91CF911F910F9108955D
:10292000FA01AA27283051F1203181F1E8946F9300
:102930006E7F6E5F7F4F8F4F9F4FAF4FB1E03ED0A6
:10294000B4E03CD0670F781F891F9A1FA11D680F44
:10295000791F8A1F911DA11D6A0F711D811D911D77
:10296000A11D20D009F468943F912AE0269F1124EC
:102970003019305D3193DEF6CF010895462F477050
:10298000405D4193B3E00FD0C9F7F6CF462F4F70AB
:10299000405D4A3318F0495D31FD4052419302D009
:1029A000A9F7EACFB4E0A6959795879577956795AF
:1029B000BA95C9F700976105710508959B01AC01AF
:1029C0000A2E06945795479537952795BA95C9F7D6
:1029D000620F731F841F951FA01D0895F894FFCFE9
:1029E0000C46520000000200000000030700000037
:1029F000000000000200000000A6080000000046E1
:102A00005208FF0412024F4BF37266416461707406
:102A100065725F696E697428290073657269616CFB
:102A2000416461707465725F70726F636573734641
:102A300072616D65282900096C656E6774683A25B6
:102A4000640A00434D445F5345545F4C4544004382
:102A50004D445F544F47474C455F4C454400434D00
:102A6000445F4C43445F434C4541520072664164AD
:102A700061707465725F73656E64546F67676C65CF
:102A80004C656428290073657269616C41646170EA
:102A90007465725F696E69740073657269616C4117
:102AA0006461707465725F77726974654672616D96
:102AB0006528290009696E6E65725F6C656E6774C2
:102AC000683A25640A0073657269616C41646170DB
:102AD0007465725F776F726B657228290054696D37
:102AE000656F7574310054696D656F75743200548B
:102AF000696D656F7574330050656E6973006C6342
:0E2B0000645F636C656172282920696E0000B5
:00000001FF
