S00C000044454F532E73726563ED
S11300003EC300006DC300006BC3000069C3000061
S113001067C3000065C3000063C3000061C3000040
S11300205FC300005DC300005BC3000059C3000050
S113003057C300000C94D30F53C3000051C30000F6
S11300404FC300000C94A1094BC3000049C3000036
S113005047C300000C944E0C43C3000041C300008E
S11300603FC300000C94730A0C94A40A39C3000023
S113007037C3000035C3000033C3000031C30000A0
S11300802FC300002DC300002BC3000029C30000B0
S11300900C94D10A0C94020B23C3000021C300006A
S11300A01FC300001DC300001BC3000019C30000D0
S11300B017C3000015C3000013C3000011C30000E0
S11300C00FC300000DC300000BC300000C94900B81
S11300D00C94C10B05C300000C94EF0B0C94210C81
S11300E0FFC20000CA08CB08CB08CB08CB08CB085A
S11300F0CB08CB08CB08CB08CB08CB08CB08CB0864
S1130100CB08CB08CB08CB08C208CB08CB08CB085C
S1130110CB08CB08C408CB08CB08C008CB08CB0855
S1130120CB08CB08CA08CB08CB08CB08CB08CB0834
S1130130CB08CB08CB08CB08CB08CB08C608CB0828
S1130140CB08CB08CB08C808BC08CB08CB08CB0825
S1130150CB08CB08BE085072696E74696E67207450
S11301606F204C43443A2025730A00496E76616C33
S11301706964206C656E67746820666F7220434DF5
S1130180445F4C43445F5052494E542E204C656E9C
S1130190677468206F662065787065637465642091
S11301A0537472696E67206973206E6F7420657171
S11301B075616C20746F206C656E6774682064656B
S11301C07363726962656420696E20636D645F6C39
S11301D063645072696E745F74206F626A656374DD
S11301E00A00496E76616C6964206C656E67746898
S11301F020666F7220434D445F4C43445F50524924
S11302004E542E204C656E67746820772F6F2063E0
S11302106F6D6D616E6420697320256420696E734F
S113022074656164206F662025640A00476F746FEB
S1130230204C43443A2025642C2025640A00496E4E
S113024076616C6964206C656E67746820666F7291
S113025020434D445F4C43445F474F544F2E204C42
S1130260656E67746820772F6F20636F6D6D616EA4
S11302706420697320256420696E73746561642049
S11302806F662025640A00436C656172696E67209D
S11302904C43440A00546F67676C696E67204C4591
S11302A0440A0053657474696E67204C4544207495
S11302B06F2025640A000A4672616D6520466F6FDF
S11302C07465723A0A2020E29494E2948020436890
S11302D065636B73756D3A20202020202020202038
S11302E0202020203078253032580A3D3D3D3D3DC8
S11302F03D3D3D3D3D3D3D3D3D3D3D3D3D3D3D3D2A
S11303003D3D3D3D3D3D3D3D3D3D3D3D3D3D3D3D19
S11303103D3D3D3D3D3D3D3D3D3D3D0A0A002020E6
S1130320E29494E29480204E6F20446174610A0048
S11303302020E29494E2948020456E64206F66202D
S1130340446174610A002020E2949CE2948020427B
S11303507974652025643A203078253032580A00B3
S11303600A3D3D3D3D3D3D3D3D3D3D3D3D3D3D3DEC
S11303703D202573203D3D3D3D3D3D3D3D3D3D3DC5
S11303803D3D3D3D3D0A4672616D652048656164B1
S113039065723A0A2020E2949CE2948020537461AE
S11303A0727420466C61673A20202020202020208F
S11303B02020203078253034580A2020E2949CE212
S11303C0948020536F757263652041646472657311
S11303D0733A2020202020202025750A2020E29432
S11303E09CE294802044657374696E6174696F6ED5
S11303F020416464726573733A202025750A2020B5
S1130400E29494E29480204C656E6774683A2020EC
S11304102020202020202020202020202025750A94
S11304200A496E6E6572204672616D65204461747E
S1130430613A0A0043616E277420706F70206672FF
S11304406F6D20656D7074792072656164792071B7
S1130450756575650043616E277420707573682037
S11304606F6E2066756C6C2072656164792071759D
S1130470657565002020202020202020005B455247
S1130480524F525D200020537461636B20636F6C84
S11304906C69646573207769746820676C6F626146
S11304A06C2076617273002D2D2D2D2D2D2D2D2D6B
S11304B02D2D2D2D2D2D2D2D2D2D2D2D2D2D2D2D68
S11304C02D2D2D2D2D2D2D2D2D2D2D2D2D2D2D2D58
S11304D02D2D2D2D2D2D2D2D2D0A005B494E464FF2
S11304E05D2020005573656420676C6F62616C2029
S11304F0766172733A2025642F25642062797465CD
S113050073005B494E464F5D202000426F6F746953
S11305106E672044454F53202E2E2E000A0A2323B3
S11305202323232323232323232323232323232397
S11305302323232323232323232323232323232387
S11305402323232323232323232323232323232377
S11305500A00426F6F74696E672044454F53202E22
S11305602E2E006F735F73746172745363686564D5
S1130570756C65722829207465726D696E61746585
S11305806420616761696E737420616C6C206F64B0
S11305906473202D207363617279207374756666A9
S11305A02E2E2E005468657265206973206E6F20AC
S11305B069646C652070726F63006F735F65786542
S11305C0632829202D3E20004E6F20667265652029
S11305D0736C6F7420617661696C61626C650A008A
S11305E0436865636B73756D206D69736D617463C6
S11305F06820696E2070726F6365737320256400D0
S1130600537461636B20706F696E746572206F75CB
S113061074206F6620626F756E647320696E20703B
S1130620726F6365737320256400437269742E20AE
S113063053656374696F6E202020756E64657266FD
S11306406C6F7700437269742E2053656374696F0D
S11306506E2020206F766572666C6F770044454F7C
S1130660530048616C6C6F200057616974696E6750
S11306702E2E2E2000002B0E39124A125B1211244A
S11306801FBECFEFD1E2DEBFCDBF00E00CBF13E051
S1130690A0E0B2E0E6E3FBE200E00BBF02C007909B
S11306A00D92A630B107D9F725E0A6E0B3E001C06A
S11306B01D92A036B207E1F713E0CFE3D3E000E0E8
S11306C006C021970109802FFE010E946C12CB33D2
S11306D0D10780E00807A9F70E94010D0C94991531
S11306E08FCCE3D184B1806884B981E08093060320
S11306F008955EC20895FC018081882321F085B1AC
S1130700806885B9089585B18F7785B9089585B1D5
S1130710805885B90895C4C40895FC01618180811D
S1130720D2C408950F931F93CF93DF93CDB7DEB751
S1130730A1970FB6F894DEBF0FBECDBFFC01408178
S11307404132A8F48C01BC016F5F7F4F50E0CE01B1
S113075001960E949B12F8018081E1E0F0E0EC0F29
S1130760FD1FE80FF11D1082CE01019622D5A1963E
S11307700FB6F894DEBF0FBECDBFDF91CF911F91AE
S11307800F9108950F931F93CF93DF93FC019481EE
S11307909150913308F0B7C0EF016FE172E0CF01DF
S11307A091D28D81803179F128F4813049F0823001
S11307B0E1F0A9C08131A9F1823109F45FC0A3C07D
S11307C08C81823009F09FC08E811F928F9383EABF
S11307D092E09F938F930E94B712CE0106968BDF0F
S11307E00F900F900F900F908EC08C81813009F084
S11307F08AC085E992E09F938F930E94B71287DFA6
S11308000F900F9080C08C81813009F07CC087E804
S113081092E09F938F930E94B7127DDF0F900F9009
S113082072C08C818330A1F01F9292E09F9390E07C
S113083001979F938F938EE392E09F938F930E94EF
S1130840B7120F900F900F900F900F900F905BC006
S11308509F818E811F929F931F928F938CE292E0CF
S11308609F938F930E94B712CE01069656DF0F9086
S11308700F900F900F900F900F9045C08C8190E0D7
S11308809C01215031092232310590F01F9281E2FE
S11308908F933F932F9382EE91E09F938F930E94C7
S11308A0B7120F900F900F900F900F900F902BC0D6
S11308B04E8150E002974817590791F01F9281E248
S11308C08F933F932F938BE691E09F938F930E9496
S11308D0B7120F900F900F900F900F900F9013C0BE
S11308E08E010A5F1F4FFE013796FF93EF9386E553
S11308F091E09F938F930E94B712C80113DF0F906A
S11309000F900F900F90DF91CF911F910F91089549
S11309101F93CF93DF93CDB7DEB7E1970FB6F8946B
S1130920DEBF0FBECDBF182F81E089836A831F927B
S113093082E08F938AE392E09F938F930E94A412A4
S1130940AE014F5F5F4F62E0812FF6D00F900F90A2
S11309500F900F90E1960FB6F894DEBF0FBECDBF97
S1130960DF91CF911F9108951F93CF93DF93CDB75C
S1130970DEB7E1970FB6F894DEBF0FBECDBF182FD8
S113098080E189831F9281E08F9389E892E09F93AD
S11309908F930E94A412AE014F5F5F4F61E0812FDD
S11309A0CBD00F900F900F900F90E1960FB6F89464
S11309B0DEBF0FBECDBFDF91CF911F910895FF928F
S11309C00F931F93CF93DF93CDB7DEB7C255D109F1
S11309D00FB6F894DEBF0FBECDBFF82E8B0182E1B7
S11309E08983CB010E9483128AAB813210F080E2AA
S11309F08AAB4AA950E0B801CE01C3960E948C127A
S1130A008AA9E3E3F0E0EC0FFD1FE80FF11D10826B
S1130A1081E2FE01F296DE01129601900D928A9512
S1130A20E1F71F9282E28F9388ED92E09F938F9378
S1130A300E94A412AE014F5F5F4F62E28F2D7CD003
S1130A400F900F900F900F90CE5ADF4F0FB6F8947F
S1130A50DEBF0FBECDBFDF91CF911F910F91FF90ED
S1130A6008958F929F92AF92BF92CF92DF92EF92AE
S1130A70FF924B015C0169017A0151D7DC01CB0182
S1130A8088199909AA09BB0921E08C159D05AE05B1
S1130A90BF0508F420E0822FFF90EF90DF90CF9005
S1130AA0BF90AF909F908F9008956FC10895CF929B
S1130AB0DF92EF92FF92CF93DF93EC016A017B0107
S1130AC0AFD10CC024EF31E040E050E0C701B601E3
S1130AD0C8DF811108C00E94AE10A2D18C179D07F7
S1130AE088F381E001C080E0DF91CF91FF90EF9027
S1130AF0DF90CF900895FC0190E008C0DB01A90FBE
S1130B00B11D2C918081282720839F5F9417B0F317
S1130B1008950F931F93CF93DF938C01EB0145E06E
S1130B20EADFBE016B5F7F4F4C81C801E4DFDF91D8
S1130B30CF911F910F9108951F93CF93DF93CDB75A
S1130B40DEB7E7970FB6F894DEBF0FBECDBF162F02
S1130B508C836D83809100028B838091010290913C
S1130B6002029A8389831FAA81E3FA01DE011696A1
S1130B7001900D928A95E1F7BE016F5F7F4FCE0120
S1130B80C796C7DF65E0CE01019605D1612FCE017E
S1130B90069601D161E0CE01C796FDD0E7960FB667
S1130BA0F894DEBF0FBECDBFDF91CF911F910895A2
S1130BB0CF93DF93CDB7DEB7EA970FB6F894DEBFD5
S1130BC00FBECDBFACD6AB01BC0182E090E06FDFBD
S1130BD0882309F46EC061E0CE01019623D181110E
S1130BE068C0298130E08091010290910202992726
S1130BF02817390709F05DC061E0CE01029612D1D1
S1130C00811157C02A8130E08091020290E02817B8
S1130C10390709F04EC083D6AB01BC0183E090E0F4
S1130C2046DF882309F445C08091010290910202B5
S1130C309C838B8361E0CE010596F4D0811139C089
S1130C4061E0CE010696EED0811133C061E0CE01A1
S1130C500796E8D081112DC08F81823350F55FD67D
S1130C60AB01BC018F8190E0019621DF882309F15B
S1130C706F81CE010896D6D081111BC061E0CE01F0
S1130C80C996D0D0811115C01AAEBE016D5F7F4FD9
S1130C90CE01CA963EDF99AD8AAD98130AC08E8103
S1130CA08F3F21F090910002891303C0CE01039677
S1130CB069DDEA960FB6F894DEBF0FBECDBFDF91B3
S1130CC0CF9108950F931F93CF938C01FC0124813E
S1130CD0938182811F922F931F929F931F928F93D0
S1130CE081818F9380818F937F936F9380E693E0CC
S1130CF09F938F930E94B7128DB79EB70C960FB631
S1130D00F8949EBF0FBE8DBFC0E016C0F8013596A3
S1130D10EC0FF11D80811F928F931F92CF9386E475
S1130D2093E09F938F930E94B712CF5F0F900F9021
S1130D300F900F900F900F90F8018481C81730F333
S1130D40882349F080E393E09F938F930E94B71226
S1130D500F900F9008C08EE193E09F938F930E94B1
S1130D60B7120F900F90F80186A91F928F9386EB0C
S1130D7092E09F938F930E94B7120F900F900F9061
S1130D800F90CF911F910F91089589E190E068C46D
S1130D9008959DC40895EF92FF921F93CF93DF931C
S1130DA07C01162FC0E0D0E006C0F701EC0FFD1F58
S1130DB08081EFDF2196812F90E0C817D907ACF32B
S1130DC0DF91CF911F91FF90EF900895CF93DF9320
S1130DD0EC0161D4292F30E0211592E03907B9F0F4
S1130DE038F42115310569F021153140A9F012C0FC
S1130DF0211598E0390741F02115304159F482E07A
S1130E000CC0888380E009C0888381E006C08883A1
S1130E1081E003C08FEF01C084E0DF91CF9108959A
S1130E206BC408950F931F93CF93DF938C01D62F38
S1130E30F7DF2D2F30E08217930768F0C0E007C07A
S1130E40C8018C0F911DC2DF811106C0CF5FCD1781
S1130E50B8F380E001C084E0DF91CF911F910F913E
S1130E60089580B38E7F80BB80E480937C00EAE7A2
S1130E70F0E087E8808380818064808380917A00B9
S1130E8086FDFCCF809178009091790082349105A1
S1130E9080F08B3D910578F0893821E0920768F065
S1130EA0883522E0920758F08836934050F484E065
S1130EB0089580E0089581E0089582E0089583E034
S1130EC0089585E00895CF93C82FCBDF91E08C136C
S1130ED090E0892FCF910895CF93C82FC2DF91E07E
S1130EE08C1301C090E0892FCF910895CF93C82F20
S1130EF08C2FE9DF8823E1F3CF910895CF93C82F96
S1130F008C2FEADF8823E1F3CF91089562D6E2E0E3
S1130F10F1E080818064808385E08A95F1F70000A8
S1130F2080818F7B80838FE891E00197F1F700C087
S1130F3000006EC60895CF93C82F4BD6C0FF04C0DF
S1130F4084B3806284BB03C084B38F7D84BBC1FF40
S1130F5004C08EB188608EB903C08EB1877F8EB90C
S1130F60C2FF06C0E2E0F1E080818860808305C0B2
S1130F70E2E0F1E08081877F8083C3FF06C0E2E086
S1130F80F1E080818061808305C0E2E0F1E080814E
S1130F908F7E8083BBDF3CD6CF9108950F931F9340
S1130FA0CF93DF93CDB7DEB7AE01485F5F4FDA0171
S1130FB06D917D91AD010AE515E0D8011296ED9190
S1130FC0FC91139783818860838383E092E00E947D
S1130FD0DE12D8011296ED91FC9113978381877FDD
S1130FE08383DF91CF911F910F910895CF93C82FE1
S1130FF0F0D5E2E0F1E080818F7D80838C2F8295B3
S11310008F7099DF8C2F97DF85ED8A95F1F70000BB
S1131010FFD5CF910895DDD5E1E0F1E080818867C7
S113102080838DB188608DB983B3806283BB80B3C4
S1131030816080BB81B38E7F81BB2FEF80E792E01C
S1131040215080409040E1F700C0000083E073DF4E
S11310508FE19EE40197F1F700C0000083E06BDFAD
S11310608FE193E00197F1F700C0000083E063DFB4
S11310708FE193E00197F1F700C0000082E05BDFAD
S113108088E2B4DF8CE0B2DF81E0B0DF86E0AEDF7F
S11310908FE19EE40197F1F700C00000B9C50895FF
S11310A098D51092E20481E0A1DF8FE39FE10197DC
S11310B0F1F700C00000ACC508958CE097CF089507
S11310C088E094CF0895CF93DF93D82FC62F823032
S11310D008F0D1E07ED58C2F90E4D99F800D1124A7
S11310E0806884DF80E1D89FC00D1124C093E2049E
S11310F08FD5DF91CF910895CF93C82F6AD5E2E0C1
S1131100F1E08081806280838C2F82958F7013DF61
S11311108C2F11DF85ED8A95F1F7000079D5CF91F9
S1131120089560E080E0CFCF089560E081E0CBCF08
S11311300895CF93C82F4DD5CA3031F48091E2047D
S11311408071805F8093E2048091E204803111F425
S1131150ECDF04C0803211F4A3DFE3DF8C2F90E0D6
S1131160FC01E458F109E933F105A8F48827EE58A5
S1131170FF4F8F4F0C946C12CFEE0DC0C5EF0BC018
S1131180C2EE09C0CFEE07C0C5EF05C0CFED03C066
S1131190C4EE01C0C1EE8C2FAFDF8091E2048F5FFB
S11311A08093E20435D5CF910895C3DF80E090E0C9
S11311B008950F931F93CF93DF93EC010AD502C0D8
S11311C0B8DFE8018E010F5F1F4F88818111F8CFCE
S11311D01FD5DF91CF911F910F9108950F931F9306
S11311E0CF93DF93EC01F5D402C0A3DFE8018E01B5
S11311F00F5F1F4FFE0184918111F7CF09D5DF9155
S1131200CF911F910F910895FC012185928581E072
S1131210291380E00895CF93DF93EC01F5DF882351
S113122039F084E394E09F938F934ED40F900F9002
S11312309985292F30E0FE01E20FF31F80812F5F93
S11312403F4F2930310514F49F5F01C090E0998726
S1131250DF91CF910895FC01228530E02F5F3F4F4D
S11312602930310514F020E030E0FC01418550E0E4
S113127081E02417350709F080E008951F93CF9388
S1131280DF93EC01162FE7DF882339F085E594E03E
S11312909F938F9319D40F900F902A85822F90E0FB
S11312A0FE01E80FF91F10830196099714F42F5FCC
S11312B001C020E02A87DF91CF911F910895FC019E
S11312C0118612860895FC01218530E032C0DF01C9
S11312D0A20FB31F5C91561324C018C0B9016F5FED
S11312E07F4F693071051CF0A0E0B0E001C0DB0164
S11312F0AE0FBF1F5C91DF01A20FB31F5C93693077
S113130071051CF020E030E001C09B01281739076B
S113131029F7442311F0415001C048E0428781E09D
S11313200895C901019620E030E0893091050CF45C
S11313309C014285842F90E02817390741F680E00C
S113134008951F920F920FB60F9211248F939F93BB
S1131350AF93BF938091070390910803A091090371
S1131360B0910A039058AF4FBF4F809307039093F7
S11313700803A0930903B0930A03BF91AF919F910F
S11313808F910F900FBE0F901F901895E1E8F0E039
S113139080818E7F808380818D7F808380818B7F1D
S11313A0808308951092800010928500109284002A
S11313B081E090E09093890080938800EFE6F0E06C
S11313C0808181608083E2CF089503D483E090E03C
S11313D09093D5008093D400E0EDF0E080818D7F80
S11313E08083E1EDF0E0808180618083808188608A
S11313F080830EC408959091D00095FFFCCF809314
S1131400D60008950F931F93CF93DF938C01E1D3FC
S1131410D0E00DC0F801ED0FF11DC491CA3011F4F4
S11314208DE0E9DFCC2329F08C2FE5DFDF5FDF3FA0
S113143089F7EED3DF91CF911F910F910895C5DF06
S113144081E192E090935D0580935C050895CF93CC
S1131450C82F8A3011F48DE0CEDF8C2FCCDFCF91F2
S11314600895D0CF0895CF93C82FB3D38C2FEFDF37
S1131470CA3019F484E794E0F4DFCAD380E090E042
S1131480CF9108958AE0E3CF08950F931F93CF93EC
S1131490DF93CDB7DEB79DD388859985E2DF0AE572
S11314A015E0D8011296ED91FC9113978381886021
S11314B08383AE01445F5F4F6A857B8512968D916D
S11314C09C9113970E94DE12D8011296ED91FC9123
S11314D013978381877F8383D5DF9AD3DF91CF915D
S11314E01F910F9108951F920F920FB60F9211241E
S11314F00BB60F922F938F939F93EF93FF9380914B
S1131500C0002091C6008C71E091DC04EF5F9091E3
S1131510DB04E91739F0E093DC04F0E0E152FB4F1F
S1131520208301C082E09091DA04892B8093DA044D
S1131530FF91EF919F918F912F910F900BBE0F9080
S11315400FBE0F901F9018951F920F920FB60F9217
S113155011240BB60F928F939F93EF93FF93909167
S1131560DE048091DD04981761F0E091DD04EF5F03
S1131570E093DD04F0E0E152FB4F80818093C600EC
S113158005C0E1ECF0E080818F7D8083FF91EF91D5
S11315909F918F910F900BBE0F900FBE0F901F90D5
S11315A018951F920F920FB60F9211240BB60F923B
S11315B02F938F939F93EF93FF938091C800209173
S11315C0CE008C71E0919703EF5F90919603E91739
S11315D039F0E0939703F0E0E656FC4F208301C016
S11315E082E090919503892B80939503FF91EF916D
S11315F09F918F912F910F900BBE0F900FBE0F9064
S11316001F9018951F920F920FB60F9211240BB6CC
S11316100F928F939F93EF93FF93909199038091EF
S11316209803981769F0E0919803EF5FEF73E093E4
S11316309803F0E0E656FB4F80818093CE0005C00E
S1131640E9ECF0E080818F7D8083FF91EF919F91A1
S11316508F910F900BBE0F900FBE0F901F90189597
S11316601092990310929803109297031092960384
S1131670282F392F33231CF422E02093C8009078BC
S11316809093CD008093CC0088E98093C90086E0D4
S11316908093CA00089590919703809196039817B8
S11316A099F0809196038F5FE82FF0E0E656FC4FA7
S11316B0208130919503809396031092950380E0E6
S11316C0932F820F911D089580E091E00895209159
S11316D099032F5F2F73909198032917E1F3E22F59
S11316E0F0E0E656FB4F808320939903E9ECF0E0A9
S11316F080818062808308952091960330E08091F8
S1131700970390E08217930718F0821B930B0895B8
S113171040E051E0BA01621B730B860F971F0895D6
S11317201F920F920FB60F9211240BB60F922F93A4
S11317308F939F93EF93FF938091D0002091D600D5
S11317408C71E0915203EF5F90915103E91739F0E6
S1131750E0935203F0E0EB5AFC4F208301C082E097
S113176090915003892B80935003FF91EF919F91A7
S11317708F912F910F900BBE0F900FBE0F901F9063
S113178018951F920F920FB60F9211240BB60F9259
S11317908F939F93EF93FF939091540380915303FE
S11317A0981769F0E0915303EF5FEF73E0935303ED
S11317B0F0E0EB5AFC4F80818093D60005C0E1ED48
S11317C0F0E080818F7D8083FF91EF919F918F91D5
S11317D00F900BBE0F900FBE0F901F9018951F9285
S11317E00F920FB60F9211240BB60F922F938F9373
S11317F09F93EF93FF9380913001209136018C7178
S1131800E0910D03EF5FEF7390910C03E91739F04A
S1131810E0930D03F0E0E05FFC4F208301C082E021
S113182090910B03892B80930B03FF91EF919F9170
S11318308F912F910F900BBE0F900FBE0F901F90A2
S113184018951F920F920FB60F9211240BB60F9298
S11318508F939F93EF93FF9390910F0380910E03C7
S1131860981761F0E0910E03EF5FE0930E03F0E050
S1131870E05BFC4F80818093360105C0E1E3F1E039
S113188080818F7D8083FF91EF919F918F910F9045
S11318900BBE0F900FBE0F901F9018951F920F92C2
S11318A00FB60F9211248F939F93AF93BF938091A0
S11318B0E3049091E404A091E504B091E604019658
S11318C0A11DB11D8093E3049093E404A093E50467
S11318D0B093E604BF91AF919F918F910F900FBE8B
S11318E00F901F9018951092E3041092E404109244
S11318F0E5041092E60485B5816085BD85B58260F6
S113190085BD85B58B7F85BD84B5826084BD89EF37
S113191087BDEEE6F0E080818260808308950FB693
S113192007FC18C0A99B16C085B3826085BB809153
S1131930E3049091E404A091E504B091E6040196D7
S1131940A11DB11D8093E3049093E404A093E504E6
S1131950B093E6048FB7282F221F2227221FF89462
S11319606091E3047091E4048091E5049091E604AD
S1131970222309F078940895CF92DF92EF92FF9298
S11319800F931F93CF93DF930097D1F0EC01C7DF40
S11319906B017C0106C08FE891E00197F1F700C06C
S11319A00000BDDFDC01CB018C199D09AE09BF0924
S11319B08E0120E030E080179107A207B30758F3A7
S11319C0DF91CF911F910F91FF90EF90DF90CF9017
S11319D00895CF93DF93CDB7DEB79F8128858E819D
S11319E081110CC0AE01475F5F4F5F934F932F93FC
S11319F09F936AD00F900F900F900F90DF91CF912B
S1131A00089521D088E592E0B7DF4ADB35D181E043
S1131A1090E00895E0EBF0E0808182608083E1EB68
S1131A20F0E0808184608083808182608083808113
S1131A3081608083E0E7F0E08081826080838CE3D2
S1131A408093B30008954FDFE5DFACDCE4DAF7DC24
S1131A5034DB26DB82E595E0C1DB8CE195E001DD3A
S1131A608BE095E09F938F9382E095E09F938F9313
S1131A700CDD83E08F9388EE8F9380E693E09F9351
S1131A808F9384EE94E09F938F938BED94E09F93D8
S1131A908F93FBDC87EA94E0E4DC86E894E09F9390
S1131AA08F9381E020E635E0283E354008F080E061
S1131AB08F938FDFF4D18DB79EB70F960FB6F8943E
S1131AC09EBF0FBE8DBF0895CF93DF93CDB7DEB712
S1131AD01E810F81F8948FEF91E29EBF8DBFE0DAF3
S1131AE0CE0108969F938F930F931F9357DACE01DD
S1131AF008969F938F930F931F938DE794E09F9382
S1131B008F93C3DC0FB6F894DEBF0FBECDBFD5DA1A
S1131B109FEF2DE389E4915020408040E1F700C01D
S1131B200000CEDA9FEF21EE84E091502040804007
S1131B30E1F700C00000EBCFC0E0D0E006C08EE2C9
S1131B40F8DA84E690E018DF2196C330D105BCF3BF
S1131B50A7DA84E690E010DFEFCFBC01990F880B81
S1131B60990B089521E030E002C0220F331F8A95BB
S1131B70E2F780913705909138052823392381E0D5
S1131B80232B09F480E00895803148F4E82FF0E035
S1131B90EE0FFF1FE95EFA4F80819181089580E086
S1131BA090E0089590E09C01220F331F820F931F51
S1131BB0880F991F89519B4F089590E0880F991FB2
S1131BC0895E9A4F08958091E10408958091E0041C
S1131BD00895CF93CFB7CC1FCC27CC1FF894809116
S1131BE0DF048F3F41F484E496E09F938F936CDF8E
S1131BF00F900F9003C08F5F8093DF04E0E7F0E065
S1131C0080818D7F8083CC2309F07894CF910895CF
S1131C10CF93CFB7CC1FCC27CC1FF8948091DF048F
S1131C20811108C08AE296E09F938F934DDF0F9055
S1131C300F9003C081508093DF048091DF048111F1
S1131C4005C0E0E7F0E0808182608083CC2309F066
S1131C507894CF91089580E0B0DF2CE93DE0FC0159
S1131C60318320838091370590913805816090936A
S1131C7038058093370508951092E104E7EEF4E007
S1131C8082E08183828193819EBF8DBF0F901F90DC
S1131C902F903F904F905F906F907F908F909F9088
S1131CA0AF90BF90CF90DF90EF90FF900F911F9176
S1131CB02F913F914F915F916F917F918F919F9160
S1131CC0AF91BF91CF91DF91EF91FF91FFBFFF9152
S1131CD0189583E695E09F938F93F6DE0F900F900F
S1131CE0089590E027E633E0829FA001839F500D82
S1131CF0929F500D11242FE131E2241B350BFC017E
S1131D00EE0FFF1FE80FF91FEE0FFF1FE951FB4F06
S1131D1042815381241B203178F490E080E017C085
S1131D20322F32953F70FA01399FE00DF11D1124D5
S1131D30308183279F5F02C090E080E0903180F380
S1131D400895FA01E90FF11D308183279F5F9217EF
S1131D50C0F30895EF92FF920F931F93CF93DF93F5
S1131D60E82EF62E36DFC0E0D0E00DC0FE01EE0F07
S1131D70FF1FEC0FFD1FEE0FFF1FE951FB4F818189
S1131D80882331F02196C830D10584F3CFEFDFEFFB
S1131D90CF3F8FEFD80781F488EC95E09F938F9322
S1131DA08AEB95E09F938F9370DB32DF0F900F9057
S1131DB00F900F901FEF6BC08E01000F111F0C0FBF
S1131DC01D1F000F111F09511B4FD801EC9281E018
S1131DD011968C9311971496FC92149787E693E0CE
S1131DE0C89F9001C99F300DD89F300D11248FE1F9
S1131DF091E27C01E21AF30AC701019713969C93BE
S1131E008E9312978DEE90E1A8DEF7016083D801DE
S1131E101296ED91FC9113979F012150310913966D
S1131E203C932E93129770831296ED91FC91139725
S1131E309F012150310913963C932E93129780836E
S1131E4080E012C0FE01EE0FFF1FEC0FFD1FEE0F2E
S1131E50FF1FE951FB4FA281B3819D01215031093C
S1131E60338322831C928F5F813260F31C2F8C2F6B
S1131E7038DFFE01EE0FFF1FEC0FFD1FEE0FFF1FFB
S1131E80E951FB4F8583A2DE6C2FFED1C1DE812F89
S1131E90DF91CF911F910F91FF90EF900895CF9311
S1131EA0DF9380E090E00BC0FC01EE0FFF1FE80F12
S1131EB0F91FEE0FFF1FE951FB4F11820196883085
S1131EC0910594F3C0E0D0E008C08C2F4BDE88234A
S1131ED019F062E08C2F3EDF2196C031D105ACF3BE
S1131EE08091E004F9D188EB9BE046DD2091170551
S1131EF03091180584EA95E09F938F9381E0232B1A
S1131F0009F480E08F9365DD0F900F900F90DF91BF
S1131F10CF9108958F929F92AF92BF92CF92DF920A
S1131F20EF92FF920F931F93482F50E0FA01EE0FA8
S1131F30FF1FE40FF51FEE0FFF1FE951FB4FC28097
S1131F40D380E12CF12C9A01A7E6B3E0CDD20FE1C6
S1131F5011E220E030E0061B170B280B390B0C159F
S1131F601D052E053F0588F008EB1DE120E030E05B
S1131F7048015901861A970AA80AB90AC814D9044B
S1131F80EA04FB0420F480E003C080E001C081E0A7
S1131F901F910F91FF90EF90DF90CF90BF90AF9083
S1131FA09F908F900895FF93FFB7FF93EF93DF9374
S1131FB0CF93BF93AF939F938F937F936F935F93CD
S1131FC04F933F932F931F930F93FF92EF92DF92C0
S1131FD0CF92BF92AF929F928F927F926F925F92B5
S1131FE04F923F922F921F9211240F928091E104FD
S1131FF090E02DB73EB7FC01EE0FFF1FE80FF91F6D
S1132000EE0FFF1FE951FB4F338322838FED91E2E3
S11320109EBF8DBF1091E104C12FD0E0FE01EE0FF1
S1132020FF1FEC0FFD1FEE0FFF1FE951FB4F8181D6
S1132030823059F4FE01EE0FFF1FEC0FFD1FEE0F6F
S1132040FF1FE951FB4F81E08183812F4ADE9E010E
S1132050220F331FC20FD31FCC0FDD1FC951DB4F1B
S11320608D83812F57DF81110BC01F921F9380E056
S113207096E09F938F9328DD0F900F900F900F9011
S1132080A5DD882319F0813049F010C06091E10486
S113209087EE94E0BFD08093E1040AC06091E1042C
S11320A087EE94E043D18093E10402C01092E104EE
S11320B0C091E1048C2F90E0FC01EE0FFF1FE80FAC
S11320C0F91FEE0FFF1FE951FB4FD5818C2F09DE5D
S11320D0D81759F01F92CF9380EE95E09F938F937A
S11320E0F3DC0F900F900F900F908091E10490E03B
S11320F0FC01EE0FFF1FDF01A80FB91FAA0FBB1FC2
S1132100A951BB4F22E011962C931197FD018281B6
S113211093819EBF8DBF0F901F902F903F904F9043
S11321205F906F907F908F909F90AF90BF90CF9073
S1132130DF90EF90FF900F911F912F913F914F915E
S11321405F916F917F918F919F91AF91BF91CF914B
S1132150DF91EF91FF91FFBFFF9118958091DF040C
S1132160811104C0F8941092B2001DCF0895CF934A
S11321709FEF980F973060F5282F30E0F901EE0FAC
S1132180FF1FE20FF31FEE0FFF1FE951FB4F918179
S1132190992301F1C82F1DDD8C2F04DDFC01118270
S11321A015DD6C2F71D00FDDC8130EC081E0809354
S11321B0DF042EDD7894D2DF80E093E09F938F9349
S11321C0C3D10F900F90F8CF23DDC8DF81E003C0A7
S11321D080E001C080E0CF910895F5DCC82F90E045
S11321E0FC01EE0FFF1FE80FF91FEE0FFF1FE9516F
S11321F0FB4F8081C9DC009711F0FC0119958C2FED
S1132200B6DFACDF80E093E09F938F939DD10F9076
S11322100F90F8CFCF93DF93EC01D5DC91E0980FCA
S11322200FC0292F30E0F901EE0FFF1FE20FF31F5B
S1132230EE0FFF1FEC0FFD1F21812130F9F09F5F8E
S1132240983078F391E00FC0292F30E0F901EE0FB8
S1132250FF1FE20FF31FEE0FFF1FEC0FFD1F218185
S1132260213071F09F5F492F50E0282F30E02F5F1D
S11322703F4F4217530744F380E003C0892F01C046
S1132280892FDF91CF910895CF93DF93882309F1AC
S1132290D62FC0E009C02BE0C29FC00111246D2FCE
S11322A0875C9A4F10D8CF5FC330A8F38D2F7ADCA8
S11322B0FC018181813069F48D2F74DCFC018481FF
S11322C0FBE08F9FC00111246D2F875C9A4F0E9401
S11322D03E09DF91CF910895CF93882329F1C0E07F
S11322E009C02BE0C29FC0011124875C9A4F0E9451
S11322F05F09CF5FC330A8F3C1E014C08C2F52DC58
S1132300FC018181813069F48C2F4CDCFC018481D7
S1132310FBE08F9FC00111246C2F875C9A4F0E94B1
S11323203E09CF5FC83050F3CF910895DF92EF920A
S1132330FF920F931F93CF93DF93D62EC0E0D0E08C
S113234021C07E012FEFE21AF20A8BE08E9D8001FC
S11323508F9D100D1124075C1A4FC8010E940409B7
S113236081110FC0C8010E940B099BE09C9F900142
S11323709D9F300D1124682FC901875C9A4F0E94DC
S11323803E09E701C230D105E4F28D2D0BDCFC01DE
S11323908181813069F48D2D05DCFC018481FBE0B1
S11323A08F9FC00111246D2D875C9A4F0E943E09B6
S11323B0C0E0D0E012C08BE08C9F80018D9F100D97
S11323C01124075C1A4FC8010E940409811104C03A
S11323D0C8010E940B0905C02196C330D1055CF3E6
S11323E080E0DF91CF911F910F91FF90EF90DF90EC
S11323F008950E9471030E947903FDCF89E696E057
S11324000E94EE0883E00E9476078FEF0E94B404D6
S113241062E676E08FEF0E94DF0461E08FEF0E94B6
S113242088048EE30E94990883E00E947E0760E09E
S11324308FEF0E9488048EE30E949908E3CF80E026
S11324400E9476076DE576E08FEF0E94DF0461E07D
S11324508FEF0E9488048EE30E94990880E00E9416
S11324607E0760E08FEF0E9488048EE30E94990843
S1132470E6CF81E0A2DB29EF31E1FC013183208347
S11324808091370590913805826090933805809348
S11324903705089582E091DB2EEF31E1FC013183B1
S11324A02083809137059091380584609093380596
S11324B080933705089583E080DB2FE132E1FC014E
S11324C031832083809137059091380588609093FB
S11324D03805809337050895EE0FFF1F881F8BBFC3
S11324E00790F691E02D1994A29FB001B39FC0010B
S11324F0A39F700D811D1124911DB29F700D811D2C
S11325001124911D0895FC0105900020E9F78095A0
S113251090958E0F9F1F0895FB01DC0141505040A0
S113252048F005900D920020C9F701C01D9241505A
S11325305040E0F70895FB01DC0102C001900D92C8
S113254041505040D8F70895CF93DF93CDB7DEB70D
S1132550AE014A5F5F4FFA0161917191AF018091C1
S11325605C0590915D0538D0DF91CF9108950F936C
S11325701F93CF93DF93CDB7DEB7AE01485F5F4FB4
S1132580DA016D917D91AD010AE515E0F8018281D2
S11325909381DC0113962C911397286013962C9346
S11325A01BD0D8011296ED91FC9113972381277FBC
S11325B02383DF91CF911F910F910895CF93DF93E0
S11325C0EC018B8188608B83CE0106D02B81277F21
S11325D02B83DF91CF9108952F923F924F925F9278
S11325E06F927F928F929F92AF92BF92CF92DF921F
S11325F0EF92FF920F931F93CF93DF93CDB7DEB784
S11326002B970FB6F894DEBF0FBECDBF6C017B01D4
S11326108A01FC0117821682838181FFBFC1CE012A
S113262001963C01F6019381F70193FD859193FF97
S113263081917F01882309F4ADC1853239F493FD7A
S1132640859193FF81917F01853221F4B60190E059
S1132650D6D1E8CF912C212C312CFFE1F315D8F001
S11326608B3279F038F4803279F08332A1F4232D5F
S113267020611DC08D3261F0803369F4232D216007
S113268016C0832D8260382EE32DE4603E2E2AC0CE
S1132690F32DF8601DC037FC2DC020ED280F2A3023
S11326A040F08E32B9F436FC75C1232D2064322EED
S11326B019C036FE06C08AE0989E200D1124922E81
S11326C011C0EAE02E9E200D1124222EF32DF0627B
S11326D03F2E08C08C3621F4832D8068382E02C02A
S11326E0883641F4F70193FD859193FF81917F0131
S11326F08111B3CF982F9F7D9554933028F40C5FAC
S11327001F4F9FE399830DC0833631F0833771F0F7
S1132710833509F055C020C0F801808189830E5F9C
S11327201F4F88248394912C530112C02801F2E096
S11327304F0E511CF801A080B18036FE03C0692DF4
S113274070E002C06FEF7FEFC5014ED14C018201F2
S1132750F32DFF773F2E15C0280122E0420E511CB5
S1132760F801A080B18036FE03C0692D70E002C07C
S11327706FEF7FEFC5012DD14C01F32DF0683F2E93
S1132780820133FC19C0822D90E088169906A0F4CA
S1132790B60180E290E033D12A94F5CFF50137FCFD
S11327A0859137FE81915F01B60190E028D1211017
S11327B02A9421E0821A91088114910479F7E1C0E6
S11327C0843611F0893639F5F80137FE07C0608187
S11327D07181828193810C5F1F4F08C06081718178
S11327E0072E000C880B990B0E5F1F4FF32DFF76FD
S11327F03F2E97FF09C090958095709561957F4F06
S11328008F4F9F4FF0683F2E2AE030E0A30133D171
S1132810882E861844C0853731F4232D2F7EB22E9E
S11328202AE030E025C0932D997FB92E8F36C1F070
S113283018F4883579F0AEC0803719F0883721F064
S1132840A9C0E92FE061BE2EB4FE0DC0FB2DF460DB
S1132850BF2E09C034FE0AC0292F2660B22E06C03E
S113286028E030E005C020E130E002C020E132E0A1
S1132870F801B7FE07C060817181828193810C5F8A
S11328801F4F06C06081718180E090E00E5F1F4F92
S1132890A301F1D0882E8618FB2DFF773F2E36FE3C
S11328A00DC0232D2E7FA22E891458F434FE0BC0A4
S11328B032FC09C0832D8E7EA82E05C0B82CA32C13
S11328C003C0B82C01C0B92CA4FE0FC0FE01E80D52
S11328D0F11D8081803321F49A2D997EA92E09C09F
S11328E0A2FE06C0B394B39404C08A2D867809F07E
S11328F0B394A3FC10C0A0FE06C0B21480F4280C4C
S1132900922C9B180DC0B21458F4B60180E290E0EA
S113291076D0B394F8CFB21418F42B1802C0982CC4
S1132920212CA4FE0FC0B60180E390E068D0A2FE83
S113293016C0A1FC03C088E790E002C088E590E0DF
S1132940B6010CC08A2D867851F0A1FE02C08BE23C
S113295001C080E2A7FC8DE2B60190E050D089145A
S113296030F4B60180E390E04AD09A94F8CF8A9488
S1132970F301E80DF11D8081B60190E040D0811093
S1132980F6CF222009F44ECEB60180E290E037D093
S11329902A94F7CFF6018681978102C08FEF9FEFCB
S11329A02B960FB6F894DEBF0FBECDBFDF91CF914B
S11329B01F910F91FF90EF90DF90CF90BF90AF9059
S11329C09F908F907F906F905F904F903F902F904B
S11329D00895FC010590615070400110D8F780956E
S11329E090958E0F9F1F0895FC01615070400190D7
S11329F00110D8F7809590958E0F9F1F08950F931F
S1132A001F93CF93DF93FB01238121FD03C08FEF3D
S1132A109FEF2CC022FF16C0468157812481358147
S1132A204217530744F4A081B1819D012F5F3F4FAA
S1132A30318320838C93268137812F5F3F4F3783E7
S1132A40268314C08B01EC01FB010084F185E02D89
S1132A501995892BE1F6D80116968D919C911797BB
S1132A60019617969C938E931697CE01DF91CF9182
S1132A701F910F910895FA01AA27283051F12031AE
S1132A8081F1E8946F936E7F6E5F7F4F8F4F9F4FFE
S1132A90AF4FB1E03ED0B4E03CD0670F781F891F40
S1132AA09A1FA11D680F791F8A1F911DA11D6A0F0E
S1132AB0711D811D911DA11D20D009F468943F91C1
S1132AC02AE0269F11243019305D3193DEF6CF01C0
S1132AD00895462F4770405D4193B3E00FD0C9F786
S1132AE0F6CF462F4F70405D4A3318F0495D31FDF3
S1132AF04052419302D0A9F7EACFB4E0A695979546
S1132B00879577956795BA95C9F70097610571051B
S1132B1008959B01AC010A2E069457954795379565
S1132B202795BA95C9F7620F731F841F951FA01DBF
S1092B300895F894FFCFA4
S1132B360C46520000000200000000D50800000008
S1132B46000000000200000000330A0000000073C9
S1132B56657269616C416461707465725F70726FED
S1132B66636573734672616D650072664164617074
S1132B767465725F73656E645365744C6564282965
S1132B8620776974682073697A653A2025640A0097
S1132B967266416461707465725F73656E64546FC6
S1132BA667676C654C6564282920776974682073A7
S1132BB6697A653A2025640A007266416461707414
S1132BC665725F73656E644C6364436C65617228F9
S1132BD62920776974682073697A653A2025640A1E
S1132BE6007266416461707465725F73656E644CED
S1132BF66364476F746F2829207769746820736942
S1132C067A653A2025640A007266416461707465C7
S1132C16725F73656E644C63645072696E742829BE
S1132C2620776974682073697A653A2025640A00F6
S1092C3650656E69730095
S9030000FC
