:1000000036C3000065C3000063C3000061C3000085
:100010005FC300005DC300005BC3000059C3000064
:1000200057C3000055C3000053C3000051C3000074
:100030004FC300000C9498104BC3000049C300004C
:1000400047C300000C94660A43C3000041C300008C
:100050003FC300000C94130D3BC3000039C30000E4
:1000600037C300000C94380B0C94690B31C30000AB
:100070002FC300002DC300002BC3000029C30000C4
:1000800027C3000025C3000023C3000021C30000D4
:100090000C94960B0C94C70B1BC3000019C30000F3
:1000A00017C3000015C3000013C3000011C30000F4
:1000B0000FC300000DC300000BC3000009C3000004
:1000C00007C3000005C3000003C300000C94F50B38
:1000D0000C94260CFDC200000C94540C0C94860C5D
:1000E000F7C200004A094B094B094B094B094B0960
:1000F0004B094B094B094B094B094B094B094B0960
:100100004B094B094B094B0942094B094B094B0958
:100110004B094B0944094B094B0940094B094B0951
:100120004B094B094A094B094B094B094B094B0930
:100130004B094B094B094B094B094B0946094B0924
:100140004B094B094B0948093C094B094B094B0921
:100150004B094B093E09005072696E74696E672045
:10016000746F204C43443A2025730A00496E76612F
:100170006C6964206C656E67746820666F722043DA
:100180004D445F4C43445F5052494E542E204C65C1
:100190006E67746820772F6F20636F6D6D616E647A
:1001A00020697320256420696E7374656164206F13
:1001B000662025640A00476F746F204C43443A2040
:1001C00025642C2025640A00496E76616C696420E0
:1001D0006C656E67746820666F7220434D445F4C97
:1001E00043445F474F544F2E204C656E6774682020
:1001F000772F6F20636F6D6D616E642069732025AA
:100200006420696E7374656164206F662025640ADA
:1002100000436C656172696E67204C43440A005468
:100220006F67676C696E67204C45440A00536574BC
:1002300074696E67204C454420746F2025640A0061
:100240000A4672616D6520466F6F7465723A0A20C6
:1002500020E29494E2948020436865636B73756D2B
:100260003A2020202020202020202020202030780C
:10027000253032580A3D3D3D3D3D3D3D3D3D3D3DF6
:100280003D3D3D3D3D3D3D3D3D3D3D3D3D3D3D3D9E
:100290003D3D3D3D3D3D3D3D3D3D3D3D3D3D3D3D8E
:1002A0003D3D3D3D3D0A0A002020E29494E29480C9
:1002B000204E6F20446174610A002020E29494E291
:1002C000948020456E64206F6620446174610A004A
:1002D0002020E2949CE29480204279746520256479
:1002E0003A203078253032580A000A3D3D3D3D3DE8
:1002F0003D3D3D3D3D3D3D3D3D3D3D202573203D4A
:100300003D3D3D3D3D3D3D3D3D3D3D3D3D3D3D0A50
:100310004672616D65204865616465723A0A202005
:10032000E2949CE2948020537461727420466C6164
:10033000673A2020202020202020202020307825EF
:100340003034580A2020E2949CE2948020536F7548
:1003500072636520416464726573733A20202020C3
:1003600020202025750A2020E2949CE294802044DD
:10037000657374696E6174696F6E2041646472653F
:1003800073733A202025750A2020E29494E2948029
:10039000204C656E6774683A2020202020202020A1
:1003A0002020202020202025750A0A496E6E6572C3
:1003B000204672616D6520446174613A0A004361B0
:1003C0006E277420706F702066726F6D20656D707F
:1003D0007479207265616479207175657565004373
:1003E000616E27742070757368206F6E2066756C5F
:1003F0006C207265616479207175657565002020D7
:10040000202020202020005B4552524F525D2000CA
:1004100020537461636B20636F6C6C696465732037
:100420007769746820676C6F62616C2076617273A3
:10043000002D2D2D2D2D2D2D2D2D2D2D2D2D2D2D19
:100440002D2D2D2D2D2D2D2D2D2D2D2D2D2D2D2DDC
:100450002D2D2D2D2D2D2D2D2D2D2D2D2D2D2D2DCC
:100460002D2D2D0A005B494E464F5D20200055730F
:10047000656420676C6F62616C20766172733A20EC
:1004800025642F2564206279746573005B494E46AC
:100490004F5D202000426F6F74696E672044454FA6
:1004A00053202E2E2E000A0A232323232323232323
:1004B000232323232323232323232323232323230C
:1004C00023232323232323232323232323232323FC
:1004D000232323232323232323230A00426F6F7420
:1004E000696E672044454F53202E2E2E006F735F98
:1004F00073746172745363686564756C65722829DE
:10050000207465726D696E617465642061676169EC
:100510006E737420616C6C206F646473202D207383
:10052000636172792073747566662E2E2E0054688E
:10053000657265206973206E6F2069646C65207038
:10054000726F63006F735F657865632829202D3EA5
:1005500020004E6F206672656520736C6F74206199
:100560007661696C61626C650A00436865636B73F0
:10057000756D206D69736D6174636820696E20709C
:10058000726F6365737320256400537461636B201D
:10059000706F696E746572206F7574206F6620626B
:1005A0006F756E647320696E2070726F636573730C
:1005B00020256400437269742E2053656374696F4B
:1005C0006E202020756E646572666C6F77004372D2
:1005D00069742E2053656374696F6E2020206F76D6
:1005E0006572666C6F770020546573742066696E5F
:1005F000697368656400506861736520353A20202E
:1006000072656665722D656E6365206672616D65E3
:1006100020004F4B00202020202D2D3E20203C2D5F
:100620002D00506861736520343A0050686173652D
:1006300020333A004C4544204F6666004C45442028
:100640004F6E00506861736520323A004F6E626FE2
:10065000617264204C454400506861736520313AF2
:1006600020546F67676C6500F00EC112D21211241E
:100670001FBECFEFD1E2DEBFCDBF00E00CBF13E065
:10068000A0E0B2E0E6E6FEE200E00BBF02C00790A9
:100690000D92A032B107D9F725E0A0E2B3E001C086
:1006A0001D92AA37B207E1F713E0C7E3D3E000E0F9
:1006B00006C021970109802FFE010E94F513C43363
:1006C000D10780E00807A9F70E94C60D0C943117E6
:1006D00097CC7DD284B1806884B981E08093200377
:1006E0000895FCC20895FC018081882321F085B122
:1006F000806885B9089585B18F7785B9089585B1EA
:10070000805885B908954CC50895FC0161818081A8
:100710005AC508950F931F93CF93DF93CDB7DEB7DC
:10072000A1970FB6F894DEBF0FBECDBFFC0140818C
:100730004132A8F48C01BC016F5F7F4F50E0CE01C5
:1007400001960E942414F8018081E1E0F0E0EC0FB2
:10075000FD1FE80FF11D1082CE010196AAD5A196CA
:100760000FB6F894DEBF0FBECDBFDF91CF911F91C2
:100770000F9108950F931F93CF93DF93FC01948102
:100780009150913308F09DC0EF0169E272E0CF0112
:1007900040D38D81803179F128F4813049F0823065
:1007A000E1F08FC08131A9F1823109F45FC089C0C5
:1007B0008C81823009F085C08E811F928F938DE2EB
:1007C00092E09F938F930E944F14CE0106968BDF89
:1007D0000F900F900F900F9074C08C81813009F0B2
:1007E00070C08FE192E09F938F930E944F1487DF38
:1007F0000F900F9066C08C81813009F062C081E15A
:1008000092E09F938F930E944F147DDF0F900F9083
:1008100058C08C818330A1F01F9292E09F9390E0AA
:1008200001979F938F9388EC91E09F938F930E9401
:100830004F140F900F900F900F900F900F9041C09A
:100840009F818E811F929F931F928F9386EB91E0E1
:100850009F938F930E944F14CE01069656DF0F9000
:100860000F900F900F900F900F902BC08C8190E005
:1008700001978232910590F01F9221E22F939F936E
:100880008F938CE691E09F938F930E944F140F906B
:100890000F900F900F900F900F9013C08E010A5F72
:1008A0001F4FFE013796FF93EF9387E591E09F93EB
:1008B0008F930E944F14C8012DDF0F900F900F905F
:1008C0000F90DF91CF911F910F9108951F93CF93B8
:1008D000DF93CDB7DEB7E1970FB6F894DEBF0FBE5A
:1008E000CDBF182F81E089836A831F9282E08F93A6
:1008F00084E492E09F938F930E943C14AE014F5F7B
:100900005F4F62E0812FAAD10F900F900F900F9050
:10091000E1960FB6F894DEBF0FBECDBFDF91CF9149
:100920001F9108951F93CF93DF93CDB7DEB7E19763
:100930000FB6F894DEBF0FBECDBF182F82E08983BB
:100940001F9281E08F938AE692E09F938F930E949B
:100950003C14AE014F5F5F4F61E0812F7FD10F905C
:100960000F900F900F90E1960FB6F894DEBF0FBE78
:10097000CDBFDF91CF911F9108951F93CF93DF9348
:10098000CDB7DEB7E1970FB6F894DEBF0FBECDBF8F
:10099000182F80E189831F9281E08F9383E992E091
:1009A0009F938F930E943C14AE014F5F5F4F61E0B5
:1009B000812F54D186E591E09F938F930E944F142D
:1009C0000F900F900F900F900F900F90E1960FB631
:1009D000F894DEBF0FBECDBFDF91CF911F91089578
:1009E0001F93CF93DF93CDB7DEB7E1970FB6F8949F
:1009F000DEBF0FBECDBF182F81E189836A834B8391
:100A00001F9283E08F938BEB92E09F938F930E94D2
:100A10003C14AE014F5F5F4F63E0812F1FD10F90F9
:100A20000F900F900F90E1960FB6F894DEBF0FBEB7
:100A3000CDBFDF91CF911F910895FF920F931F9328
:100A4000CF93DF93CDB7DEB7C255D1090FB6F89477
:100A5000DEBF0FBECDBFF82E82E18983FB0101907E
:100A60000020E9F73197E61BF70BEAABE13210F013
:100A700080E28AAB0AA910E0A801CE01C3960E94C9
:100A80002D14E3E3F0E0EC0FFD1FE00FF11F1082E7
:100A900081E2FE01F296DE01129601900D928A9596
:100AA000E1F71F9282E28F9382EE92E09F938F9301
:100AB0000E943C14AE014F5F5F4F62E28F2DCED09B
:100AC0000F900F900F900F90CE5ADF4F0FB6F89403
:100AD000DEBF0FBECDBFDF91CF911F910F91FF9071
:100AE0000895FF920F931F93CF93DF93CDB7DEB797
:100AF000C255D1090FB6F894DEBF0FBECDBFF82E98
:100B00008B0182E18983CB010E940C148AAB813274
:100B100010F080E28AAB4AA950E0B801CE01C3963A
:100B20000E9415148AA9E3E3F0E0EC0FFD1FE80F23
:100B3000F11D108281E2FE01F296DE011296019013
:100B40000D928A95E1F71F9282E28F9382EE92E0F6
:100B50009F938F930E943C14AE014F5F5F4F62E200
:100B60008F2D7CD00F900F900F900F90CE5ADF4FAB
:100B70000FB6F894DEBF0FBECDBFDF91CF911F91AE
:100B80000F91FF9008958F929F92AF92BF92CF9254
:100B9000DF92EF92FF924B015C0169017A0184D7E9
:100BA000DC01CB0188199909AA09BB0921E08C1540
:100BB0009D05AE05BF0508F420E0822FFF90EF9061
:100BC000DF90CF90BF90AF909F908F90089584C199
:100BD0000895CF92DF92EF92FF92CF93DF93EC01D3
:100BE0006A017B01C4D10CC024EF31E040E050E049
:100BF000C701B601C8DF811108C00E947311B7D1C7
:100C00008C179D0788F381E001C080E0DF91CF91D0
:100C1000FF90EF90DF90CF900895FC0190E008C026
:100C2000DB01A90FB11D2C918081282720839F5FB4
:100C30009417B0F308950F931F93CF93DF938C0114
:100C4000EB0145E0EADFBE016B5F7F4F4C81C801DD
:100C5000E4DFDF91CF911F910F910895FF920F93E1
:100C60001F93CF93DF93CDB7DEB7E7970FB6F89416
:100C7000DEBF0FBECDBFF62E8A018C836D838091BF
:100C800000028B8380910102909102029A838983F2
:100C90001FAA81E3FA01DE01169601900D928A9552
:100CA000E1F7BE016F5F7F4FCE01C796C4DF65E0FD
:100CB000CE01019617D16F2DC80114D161E0CE018C
:100CC000C79610D1E7960FB6F894DEBF0FBECDBF22
:100CD000DF91CF911F910F91FF900895CF93DF93F4
:100CE000CDB7DEB7EA970FB6F894DEBF0FBECDBF23
:100CF000DBD6AB01BC0182E090E06BDF882309F416
:100D00007FC061E0CE01019634D1811179C061E0EC
:100D1000CE0102962ED1811173C020E030E01FC0B9
:100D2000E1E0F0E0EC0FFD1FE20FF31F408150E027
:100D30008091010290910202B901660F771F660F40
:100D4000771F660F771F02C0969587956A95E2F721
:100D500099274817590709F053C02F5F3F4F22309A
:100D60003105F0F2A1D6AB01BC0183E090E031DFA8
:100D7000882309F445C080910102909102029C836E
:100D80008B8361E0CE010596F4D0811139C061E01A
:100D9000CE010696EED0811133C061E0CE010796F8
:100DA000E8D081112DC08F81823350F57DD6AB0103
:100DB000BC018F8190E001960CDF882309F16F81DF
:100DC000CE010896D6D081111BC061E0CE01C99634
:100DD000D0D0811115C01AAEBE016D5F7F4FCE011C
:100DE000CA9629DF99AD8AAD98130AC08E818F3FCC
:100DF00021F090910002891303C0CE010396BADC62
:100E0000EA960FB6F894DEBF0FBECDBFDF91CF914B
:100E100008950F931F93CF938C01FC01248193813C
:100E200082811F922F931F929F931F928F93818194
:100E30008F9380818F937F936F938AEE92E09F933D
:100E40008F930E944F148DB79EB70C960FB6F894EF
:100E50009EBF0FBE8DBFC0E016C0F8013596EC0FE7
:100E6000F11D80811F928F931F92CF9380ED92E0AE
:100E70009F938F930E944F14CF5F0F900F900F900E
:100E80000F900F900F90F8018481C81730F38823DA
:100E900049F08AEB92E09F938F930E944F140F903A
:100EA0000F9008C088EA92E09F938F930E944F149E
:100EB0000F900F90F80186A91F928F9380E492E023
:100EC0009F938F930E944F140F900F900F900F904D
:100ED000CF911F910F91089589E190E044C5089545
:100EE0007AC50895EF92FF921F93CF93DF937C0111
:100EF000162FC0E0D0E006C0F701EC0FFD1F808187
:100F0000EFDF2196812F90E0C817D907ACF3DF916E
:100F1000CF911F91FF90EF900895CF93DF93EC0155
:100F20003DD5292F30E0211592E03907B9F038F48A
:100F30002115310569F021153140A9F012C02115A4
:100F400098E0390741F02115304159F482E00CC096
:100F5000888380E009C0888381E006C0888381E0BF
:100F600003C08FEF01C084E0DF91CF91089547C5A2
:100F700008956F927F928F929F92AF92BF92CF927D
:100F8000DF92EF92FF920F931F93CF93DF93CDB732
:100F9000DEB74C01662EEDB6FEB6E9DF062D10E099
:100FA00080179107F0F08DB79EB7801B910B0FB69D
:100FB000F8949EBF0FBE8DBF01966C015C01712C31
:100FC00007C0C501870D911DA8DF81110BC0739467
:100FD0007614B8F3A801B601C4010E94241480E07D
:100FE00001C084E00FB6F894FEBE0FBEEDBEDF91E7
:100FF000CF911F910F91FF90EF90DF90CF90BF9016
:10100000AF909F908F907F906F900895A7D6E2E069
:10101000F1E080818064808385E08A95F1F70000AB
:1010200080818F7B80838FE891E00197F1F700C08A
:101030000000B3C60895CF93C82F90D6C0FF04C058
:1010400084B3806284BB03C084B38F7D84BBC1FF43
:1010500004C08EB188608EB903C08EB1877F8EB90F
:10106000C2FF06C0E2E0F1E080818860808305C0B5
:10107000E2E0F1E08081877F8083C3FF06C0E2E089
:10108000F1E080818061808305C0E2E0F1E0808151
:101090008F7E8083BBDF81D6CF9108950F931F93FE
:1010A000CF93DF93CDB7DEB7AE01485F5F4FDA0174
:1010B0006D917D91AD0104E715E0D8011296ED9197
:1010C000FC91139783818860838383E092E00E9480
:1010D0007614D8011296ED91FC9113978381877F46
:1010E0008383DF91CF911F910F910895CF93C82FE4
:1010F00035D6E2E0F1E080818F7D80838C2F829570
:101100008F7099DF8C2F97DF85ED8A95F1F70000BE
:1011100044D6CF91089522D6E1E0F1E0808188673E
:1011200080838DB188608DB983B3806283BB80B3C7
:10113000816080BB81B38E7F81BB2FEF80E792E01F
:10114000215080409040E1F700C0000083E073DF51
:101150008FE19EE40197F1F700C0000083E06BDFB0
:101160008FE193E00197F1F700C0000083E063DFB7
:101170008FE193E00197F1F700C0000082E05BDFB0
:1011800088E2B4DF8CE0B2DF81E0B0DF86E0AEDF82
:101190008FE19EE40197F1F700C00000FEC50895BD
:1011A000DDD51092FC0481E0A1DF8FE39FE1019780
:1011B000F1F700C00000F1C508958CE097CF0895C5
:1011C00088E094CF0895CF93DF93D82FC62F823035
:1011D00008F0D1E0C3D58C2F90E4D99F800D112465
:1011E000806884DF80E1D89FC00D1124C093FC0487
:1011F000D4D5DF91CF910895CF93C82FAFD5E2E03A
:10120000F1E08081806280838C2F82958F7013DF64
:101210008C2F11DF85ED8A95F1F70000BED5CF91B7
:10122000089560E080E0CFCF089560E081E0CBCF0B
:101230000895CF93C82F92D5CA3031F48091FC0421
:101240008071805F8093FC048091FC04803111F4F4
:10125000ECDF04C0803211F4A3DFE3DF8C2F90E0D9
:10126000FC01E458F109E933F105A8F48827EE58A8
:10127000FF4F8F4F0C94F513CFEE0DC0C5EF0BC091
:10128000C2EE09C0CFEE07C0C5EF05C0CFED03C069
:10129000C4EE01C0C1EE8C2FAFDF8091FC048F5FE4
:1012A0008093FC047AD5CF910895C3DF80E090E06D
:1012B00008950F931F93CF93DF93EC014FD502C096
:1012C000B8DFE8018E010F5F1F4F88818111F8CFD1
:1012D00064D5DF91CF911F910F9108950F931F93C4
:1012E000CF93DF93EC013AD502C0A3DFE8018E0172
:1012F0000F5F1F4FFE0184918111F7CF4ED5DF9113
:10130000CF911F910F910895CF92DF92EF92FF92AC
:101310001F93CF93DF93EC01892B19F480E389DFCE
:1013200030C01CD510E00F2EF0E1CF2EF7E2DF2EFB
:10133000E12CF12CF02DBE0180E090E0A701960198
:101340000E94D313422F50E04C9DC0014D9D900D43
:101350005C9D900D1124C81BD90B122B19F080E352
:10136000820F67DFC701B6012AE030E040E050E0BD
:101370000E94D31369017A01232B242B252BD9F644
:101380000CD5DF91CF911F91FF90EF90DF90CF9020
:101390000895FC012185928581E0291380E008955C
:1013A000CF93DF93EC01F5DF882339F08EEB93E0E8
:1013B0009F938F934ED40F900F909985292F30E0F3
:1013C000FE01E20FF31F80812F5F3F4F293031056F
:1013D00014F49F5F01C090E09987DF91CF91089549
:1013E000FC01228530E02F5F3F4F2930310514F09A
:1013F00020E030E0FC01418550E081E02417350712
:1014000009F080E008951F93CF93DF93EC01162F2E
:10141000E7DF882339F08FED93E09F938F9319D402
:101420000F900F902A85822F90E0FE01E80FF91FA0
:1014300010830196099714F42F5F01C020E02A87DA
:10144000DF91CF911F910895FC01118612860895B6
:10145000FC01218530E032C0DF01A20FB31F5C9197
:10146000561324C018C0B9016F5F7F4F69307105F2
:101470001CF0A0E0B0E001C0DB01AE0FBF1F5C912B
:10148000DF01A20FB31F5C93693071051CF020E0EF
:1014900030E001C09B012817390729F7442311F0D8
:1014A000415001C048E0428781E00895C90101969A
:1014B00020E030E0893091050CF49C014285842FB6
:1014C00090E02817390741F680E008951F920F92A7
:1014D0000FB60F9211248F939F93AF93BF93809178
:1014E000210390912203A0912303B09124039058EB
:1014F000AF4FBF4F8093210390932203A093230308
:10150000B0932403BF91AF919F918F910F900FBE25
:101510000F901F901895E1E8F0E080818E7F808326
:1015200080818D7F808380818B7F8083089510925E
:101530008000109285001092840081E090E09093EA
:10154000890080938800EFE6F0E0808181608083ED
:10155000E2CF089503D483E090E09093D500809388
:10156000D400E0EDF0E080818D7F8083E1EDF0E05C
:101570008081806180838081886080830EC408952B
:101580009091D00095FFFCCF8093D60008950F93E3
:101590001F93CF93DF938C01E1D3D0E00DC0F8010E
:1015A000ED0FF11DC491CA3011F48DE0E9DFCC23B9
:1015B00029F08C2FE5DFDF5FDF3F89F7EED3DF9186
:1015C000CF911F910F910895C5DF81E192E0909333
:1015D0007705809376050895CF93C82F8A3011F44C
:1015E0008DE0CEDF8C2FCCDFCF910895D0CF089542
:1015F000CF93C82FB3D38C2FEFDFCA3019F48EEFFF
:1016000093E0F4DFCAD380E090E0CF9108958AE0C0
:10161000E3CF08950F931F93CF93DF93CDB7DEB73A
:101620009DD388859985E2DF04E715E0D8011296FD
:10163000ED91FC911397838188608383AE01445FB1
:101640005F4F6A857B8512968D919C9113970E94BE
:101650007614D8011296ED91FC9113978381877FC0
:101660008383D5DF9AD3DF91CF911F910F91089596
:101670001F920F920FB60F9211240BB60F922F9359
:101680008F939F93EF93FF938091C0002091C600AA
:101690008C71E091F604EF5F9091F504E91739F051
:1016A000E093F604F0E0E750FB4F208301C082E0B6
:1016B0009091F404892B8093F404FF91EF919F9112
:1016C0008F912F910F900BBE0F900FBE0F901F9018
:1016D00018951F920F920FB60F9211240BB60F920E
:1016E0008F939F93EF93FF939091F8048091F70469
:1016F000981761F0E091F704EF5FE093F704F0E0F2
:10170000E750FB4F80818093C60005C0E1ECF0E01C
:1017100080818F7D8083FF91EF919F918F910F90BA
:101720000BBE0F900FBE0F901F9018951F920F9237
:101730000FB60F9211240BB60F922F938F939F9396
:10174000EF93FF938091C8002091CE008C71E091BF
:10175000B103EF5F9091B003E91739F0E093B10363
:10176000F0E0EC54FC4F208301C082E09091AF0385
:10177000892B8093AF03FF91EF919F918F912F91D0
:101780000F900BBE0F900FBE0F901F9018951F92D9
:101790000F920FB60F9211240BB60F928F939F9357
:1017A000EF93FF939091B3038091B203981769F080
:1017B000E091B203EF5FEF73E093B203F0E0EC541B
:1017C000FB4F80818093CE0005C0E9ECF0E0808182
:1017D0008F7D8083FF91EF919F918F910F900BBE32
:1017E0000F900FBE0F901F9018951F920F920FB67B
:1017F0000F9211240BB60F922F938F939F93EF9319
:10180000FF938091D0002091D6008C71E0916C0301
:10181000EF5F90916B03E91739F0E0936C03F0E010
:10182000E159FC4F208301C082E090916A03892B2B
:1018300080936A03FF91EF919F918F912F910F9069
:101840000BBE0F900FBE0F901F9018951F920F9216
:101850000FB60F9211240BB60F928F939F93EF93B5
:10186000FF9390916E0380916D03981769F0E0915A
:101870006D03EF5FEF73E0936D03F0E0E159FC4F10
:1018800080818093D60005C0E1EDF0E080818F7DFE
:101890008083FF91EF919F918F910F900BBE0F90DE
:1018A0000FBE0F901F9018951F920F920FB60F92B8
:1018B00011240BB60F922F938F939F93EF93FF9367
:1018C00080913001209136018C71E0912703EF5F08
:1018D000EF7390912603E91739F0E0932703F0E0C6
:1018E000E65DFC4F208301C082E090912503892BA7
:1018F00080932503FF91EF919F918F912F910F90EE
:101900000BBE0F900FBE0F901F9018951F920F9255
:101910000FB60F9211240BB60F928F939F93EF93F4
:10192000FF939091290380912803981761F0E0912B
:101930002803EF5FE0932803F0E0E659FC4F808135
:101940008093360105C0E1E3F1E080818F7D8083E3
:10195000FF91EF919F918F910F900BBE0F900FBE53
:101960000F901F901895109229031092280310923F
:10197000270310922603282F392F33231CF422E04B
:10198000209330019078909335018093340188E959
:101990008093310186E0809332010895909127036E
:1019A000809126039817A1F0809126038F5F8F7393
:1019B000E82FF0E0E65DFC4F208130912503809315
:1019C00026031092250380E0932F820F911D089526
:1019D00080E091E00895209129032F5F90912803E2
:1019E0002917E1F3E22FF0E0E659FC4F80832093C2
:1019F0002903E1E3F1E080818062808308952091F2
:101A0000260330E08091270390E08217930718F0B7
:101A1000821B930B089540E450E0BA01621B730BE4
:101A2000860F971F08951F920F920FB60F921124E1
:101A30008F939F93AF93BF938091FD049091FE0489
:101A4000A091FF04B09100050196A11DB11D8093E6
:101A5000FD049093FE04A093FF04B0930005BF9192
:101A6000AF919F918F910F900FBE0F901F9018957F
:101A70001092FD041092FE041092FF0410920005D3
:101A800085B5816085BD85B5826085BD85B58B7F57
:101A900085BD84B5826084BD89EF87BDEEE6F0E048
:101AA00080818260808308950FB607FC18C0A99BCF
:101AB00016C085B3826085BB8091FD049091FE04C1
:101AC000A091FF04B09100050196A11DB11D809366
:101AD000FD049093FE04A093FF04B09300058FB71C
:101AE000282F221F2227221FF8946091FD04709155
:101AF000FE048091FF0490910005222309F0789460
:101B00000895CF92DF92EF92FF920F931F93CF939E
:101B1000DF930097D1F0EC01C7DF6B017C0106C0B9
:101B20008FE891E00197F1F700C00000BDDFDC0114
:101B3000CB018C199D09AE09BF098E0120E030E070
:101B400080179107A207B30758F3DF91CF911F9138
:101B50000F91FF90EF90DF90CF900895CF93DF9398
:101B6000CDB7DEB79F8128858E8181110CC0AE0173
:101B7000475F5F4F5F934F932F939F936AD00F9070
:101B80000F900F900F90DF91CF91089521D088E5AD
:101B900092E0B7DF05DB35D181E090E00895E0EB1E
:101BA000F0E0808182608083E1EBF0E080818460FE
:101BB0008083808182608083808181608083E0E790
:101BC000F0E08081826080838CE38093B30008958D
:101BD0004FDFE5DFACDC9FDAF7DCEFDAE1DA8CED42
:101BE00094E07CDB86EA94E001DD85E994E09F9354
:101BF0008F938CE894E09F938F930CDD83E08F9319
:101C000088EE8F938AE793E09F938F938EE694E01C
:101C10009F938F9385E694E09F938F93FBDC81E302
:101C200094E0E4DC80E194E09F938F9381E02AE7E5
:101C300035E0283E354008F080E08F938FDFF4D107
:101C40008DB79EB70F960FB6F8949EBF0FBE8DBF8F
:101C50000895CF93DF93CDB7DEB71E810F81F8943F
:101C60008FEF91E29EBF8DBF9BDACE0108969F93C6
:101C70008F930F931F9312DACE0108969F938F9341
:101C80000F931F9387E094E09F938F93C3DC0FB66D
:101C9000F894DEBF0FBECDBF90DA9FEF2DE389E44D
:101CA000915020408040E1F700C0000089DA9FEFAA
:101CB00021EE84E0915020408040E1F700C0000018
:101CC000EBCFC0E0D0E006C08EE2B3DA84E690E06D
:101CD00018DF2196C330D105BCF362DA84E690E0C8
:101CE00010DFEFCFBC01990F880B990B089521E00D
:101CF00030E002C0220F331F8A95E2F78091510530
:101D0000909152052823392381E0232B09F480E0A8
:101D10000895803148F4E82FF0E0EE0FFF1FEF5CEC
:101D2000FA4F80819181089580E090E0089590E0DD
:101D30009C01220F331F820F931F880F991F8F5F03
:101D40009A4F089590E0880F991F8F5C9A4F0895DD
:101D50008091FB0408958091FA040895CF93CFB742
:101D6000CC1FCC27CC1FF8948091F9048F3F41F40D
:101D70008EEC95E09F938F936CDF0F900F9003C0D4
:101D80008F5F8093F904E0E7F0E080818D7F8083AE
:101D9000CC2309F07894CF910895CF93CFB7CC1F7F
:101DA000CC27CC1FF8948091F904811108C084EBF2
:101DB00095E09F938F934DDF0F900F9003C081505C
:101DC0008093F9048091F904811105C0E0E7F0E007
:101DD000808182608083CC2309F07894CF9108952C
:101DE00080E0B0DF21E63EE0FC013183208380917A
:101DF0005105909152058160909352058093510551
:101E000008951092FB04E1E0F5E082E08183828195
:101E100093819EBF8DBF0F901F902F903F904F904A
:101E20005F906F907F908F909F90AF90BF90CF907A
:101E3000DF90EF90FF900F911F912F913F914F9165
:101E40005F916F917F918F919F91AF91BF91CF9152
:101E5000DF91EF91FF91FFBFFF9118958DEE94E018
:101E60009F938F93F6DE0F900F90089590E027E6F2
:101E700033E0829FA001839F500D929F500D11244B
:101E80002FE131E2241B350BFC01EE0FFF1FE80FA1
:101E9000F91FEE0FFF1FEF5FFA4F42815381241BA2
:101EA000203178F490E080E017C0322F32953F70F7
:101EB000FA01399FE00DF11D1124308183279F5FC6
:101EC00002C090E080E0903180F30895FA01E90FBC
:101ED000F11D308183279F5F9217C0F30895EF9221
:101EE000FF920F931F93CF93DF93E82EF62E36DFEA
:101EF000C0E0D0E00DC0FE01EE0FFF1FEC0FFD1F94
:101F0000EE0FFF1FEF5FFA4F8181882331F021969A
:101F1000C830D10584F3CFEFDFEFCF3F8FEFD80785
:101F200081F482E595E09F938F9384E495E09F93FD
:101F30008F9370DB32DF0F900F900F900F901FEF99
:101F40006BC08E01000F111F0C0F1D1F000F111F02
:101F50000F5F1A4FD801EC9281E011968C93119784
:101F60001496FC92149787E693E0C89F9001C99F4E
:101F7000300DD89F300D11248FE191E27C01E21ADF
:101F8000F30AC701019713969C938E93129782EBE5
:101F900091E1A8DEF7016083D8011296ED91FC91E2
:101FA00013979F012150310913963C932E9312975A
:101FB00070831296ED91FC9113979F012150310986
:101FC00013963C932E931297808380E012C0FE01FB
:101FD000EE0FFF1FEC0FFD1FEE0FFF1FEF5FFA4F1D
:101FE000A281B3819D0121503109338322831C9248
:101FF0008F5F813260F31C2F8C2F38DFFE01EE0FD4
:10200000FF1FEC0FFD1FEE0FFF1FEF5FFA4F8583E1
:10201000A2DE6C2FFED1C1DE812FDF91CF911F9107
:102020000F91FF90EF900895CF93DF9380E090E0C1
:102030000BC0FC01EE0FFF1FE80FF91FEE0FFF1F93
:10204000EF5FFA4F118201968830910594F3C0E05A
:10205000D0E008C08C2F4BDE882319F062E08C2F73
:102060003EDF2196C031D105ACF38091FA04F9D15D
:1020700088EB9BE046DD20913105309132058EE200
:1020800095E09F938F9381E0232B09F480E08F9359
:1020900065DD0F900F900F90DF91CF9108958F9293
:1020A0009F92AF92BF92CF92DF92EF92FF920F93E7
:1020B0001F93482F50E0FA01EE0FFF1FE40FF51FAA
:1020C000EE0FFF1FEF5FFA4FC280D380E12CF12C9F
:1020D0009A01A7E6B3E091D30FE111E220E030E0EE
:1020E000061B170B280B390B0C151D052E053F057C
:1020F00088F008EB1DE120E030E048015901861A24
:10210000970AA80AB90AC814D904EA04FB0420F4FF
:1021100080E003C080E001C081E01F910F91FF903B
:10212000EF90DF90CF90BF90AF909F908F900895E9
:10213000FF93FFB7FF93EF93DF93CF93BF93AF93DB
:102140009F938F937F936F935F934F933F932F93BF
:102150001F930F93FF92EF92DF92CF92BF92AF92B5
:102160009F928F927F926F925F924F923F922F92A7
:102170001F9211240F928091FB0490E02DB73EB77F
:10218000FC01EE0FFF1FE80FF91FEE0FFF1FEF5FBF
:10219000FA4F338322838FED91E29EBF8DBF109162
:1021A000FB04C12FD0E0FE01EE0FFF1FEC0FFD1F5F
:1021B000EE0FFF1FEF5FFA4F8181823059F4FE016D
:1021C000EE0FFF1FEC0FFD1FEE0FFF1FEF5FFA4F2B
:1021D00081E08183812F4ADE9E01220F331FC20FCF
:1021E000D31FCC0FDD1FCF5FDA4F8D83812F57DFD9
:1021F00081110BC01F921F938AE895E09F938F93E4
:1022000028DD0F900F900F900F90A5DD882319F017
:10221000813049F010C06091FB0481E095E0BFD0AF
:102220008093FB040AC06091FB0481E095E043D1F8
:102230008093FB0402C01092FB04C091FB048C2F1E
:1022400090E0FC01EE0FFF1FE80FF91FEE0FFF1FDC
:10225000EF5FFA4FD5818C2F09DED81759F01F9206
:10226000CF938AE695E09F938F93F3DC0F900F90C6
:102270000F900F908091FB0490E0FC01EE0FFF1F88
:10228000DF01A80FB91FAA0FBB1FAF5FBA4F22E033
:1022900011962C931197FD01828193819EBF8DBF72
:1022A0000F901F902F903F904F905F906F907F9076
:1022B0008F909F90AF90BF90CF90DF90EF90FF9066
:1022C0000F911F912F913F914F915F916F917F914E
:1022D0008F919F91AF91BF91CF91DF91EF91FF913E
:1022E000FFBFFF9118958091F904811104C0F89403
:1022F0001092B2001DCF0895CF939FEF980F9730A3
:1023000060F5282F30E0F901EE0FFF1FE20FF31FF9
:10231000EE0FFF1FEF5FFA4F9181992301F1C82F54
:102320001DDD8C2F04DDFC01118215DD6C2F71D0B9
:102330000FDDC8130EC081E08093F9042EDD789480
:10234000D2DF8AE093E09F938F9396D20F900F9005
:10235000F8CF23DDC8DF81E003C080E001C080E06A
:10236000CF910895F5DCC82F90E0FC01EE0FFF1F20
:10237000E80FF91FEE0FFF1FEF5FFA4F8081C9DCF6
:10238000009711F0FC0119958C2FB6DFACDF8AE0C5
:1023900093E09F938F9370D20F900F90F8CFCF93CD
:1023A000DF93EC01D5DC91E0980F0FC0292F30E0CE
:1023B000F901EE0FFF1FE20FF31FEE0FFF1FEC0FEF
:1023C000FD1F21812130F9F09F5F983078F391E073
:1023D0000FC0292F30E0F901EE0FFF1FE20FF31FAE
:1023E000EE0FFF1FEC0FFD1F2181213071F09F5F69
:1023F000492F50E0282F30E02F5F3F4F42175307FF
:1024000044F380E003C0892F01C0892FDF91CF9171
:102410000895CF93DF93882309F1D62FC0E009C038
:102420002BE0C29FC00111246D2F8D5A9A4F10D8F6
:10243000CF5FC330A8F38D2F7ADCFC01818181301E
:1024400069F48D2F74DCFC018481FBE08F9FC00157
:1024500011246D2F8D5A9A4F0E94030ADF91CF915C
:102460000895CF93882329F1C0E009C02BE0C29FD3
:10247000C00111248D5A9A4F0E94240ACF5FC330A5
:10248000A8F3C1E014C08C2F52DCFC0181818130A3
:1024900069F48C2F4CDCFC018481FBE08F9FC00130
:1024A00011246C2F8D5A9A4F0E94030ACF5FC830B7
:1024B00050F3CF910895DF92EF92FF920F931F9305
:1024C000CF93DF93D62EC0E0D0E021C07E012FEF66
:1024D000E21AF20A8BE08E9D80018F9D100D11246F
:1024E0000D5A1A4FC8010E94C90981110FC0C801B5
:1024F0000E94D0099BE09C9F90019D9F300D11246C
:10250000682FC9018D5A9A4F0E94030AE701C23011
:10251000D105E4F28D2D0BDCFC018181813069F461
:102520008D2D05DCFC018481FBE08F9FC00111240F
:102530006D2D8D5A9A4F0E94030AC0E0D0E012C060
:102540008BE08C9F80018D9F100D11240D5A1A4F26
:10255000C8010E94C909811104C0C8010E94D009A4
:1025600005C02196C330D1055CF380E0DF91CF91A7
:102570001F910F91FF90EF90DF9008950E947103DB
:10258000FDCF81E0DFDB2EE033E1FC0131832083EE
:1025900080915105909152058260909352058093ED
:1025A0005105089582E0CEDB2EEB32E1FC01318350
:1025B000208380915105909152058460909352053B
:1025C000809351050895CF93DF93EC010A973CF077
:1025D0006EE082E00E94E308CE010E948409C930C7
:1025E000D10579F46EE082E00E94E30880E090E09B
:1025F0000E9484096FE082E00E94E308CE010E94FD
:102600008409CA30D1053CF46FE082E00E94E308FF
:10261000CE010E948409DF91CF910895CF93DF937B
:10262000CDB7DEB72A970FB6F894DEBF0FBECDBF89
:102630000E94690388E596E00E946E090E941509D0
:102640008CE496E00E946E0906E010E00BC0C80121
:10265000BADF809100020E94920488EE93E051DA82
:10266000015011091016110694F30E94D00883E45A
:1026700096E00E946E090E9415098CE396E00E9484
:102680006E0961E0809100020E9466040AE010E099
:1026900007C0C80198DF88EE93E033DA01501109D2
:1026A00010161106B4F30E94150984E396E00E9407
:1026B0006E0960E0809100020E9466040AE010E06A
:1026C00007C0C80180DF88EE93E01BDA01501109D2
:1026D00010161106B4F30E94D0088BE296E00E9417
:1026E0006E0988EE93E00DDA0E94150960E173E04F
:1026F000809100020E941D0582E390E002DA03E06F
:1027000010E007C0C8015FDF88EE93E0FAD90150FE
:1027100011091123BCF7809100020E94BD0480EDD5
:1027200097E0EFD90E94D00882E296E00E946E09FD
:102730000E94150985E196E00E946E0980ED97E000
:10274000E0D947E061E08FEF0E94F00462E176E0BB
:102750008FEF0E94710588EB9BE0D3D90E94D008CF
:1027600086EF95E00E946E096EE081E00E94E3082A
:1027700088EE93E0C6D98AE0EFE1F2E0DE0111963F
:1027800001900D928A95E1F76AE0CE0101960E94D0
:10279000720780ED97E0B5D90E94D00887EE95E0EA
:1027A0000E946E09FFCFA1E21A2EAA1BBB1BFD01DE
:1027B0000DC0AA1FBB1FEE1FFF1FA217B307E40720
:1027C000F50720F0A21BB30BE40BF50B661F771F78
:1027D000881F991F1A9469F7609570958095909558
:1027E0009B01AC01BD01CF010895EE0FFF1F881FB3
:1027F0008BBF0790F691E02D1994A29FB001B39F73
:10280000C001A39F700D811D1124911DB29F700DF9
:10281000811D1124911D0895FC0105900020E9F708
:10282000809590958E0F9F1F0895FB01DC0141500C
:10283000504048F005900D920020C9F701C01D924C
:1028400041505040E0F70895FB01DC0102C00190C7
:102850000D9241505040D8F70895FB01DC014150E2
:10286000504048F001900D920020C9F701C01D9220
:1028700041505040E0F70895CF93DF93CDB7DEB7D6
:10288000AE014A5F5F4FFA0161917191AF01809192
:1028900076059091770538D0DF91CF9108950F9309
:1028A0001F93CF93DF93CDB7DEB7AE01485F5F4F85
:1028B000DA016D917D91AD0104E715E0F8018281A7
:1028C0009381DC0113962C911397286013962C9317
:1028D0001BD0D8011296ED91FC9113972381277F8D
:1028E0002383DF91CF911F910F910895CF93DF93B1
:1028F000EC018B8188608B83CE0106D02B81277FF2
:102900002B83DF91CF9108952F923F924F925F9248
:102910006F927F928F929F92AF92BF92CF92DF92EF
:10292000EF92FF920F931F93CF93DF93CDB7DEB754
:102930002B970FB6F894DEBF0FBECDBF6C017B01A5
:102940008A01FC0117821682838181FFBFC1CE01FB
:1029500001963C01F6019381F70193FD859193FF68
:1029600081917F01882309F4ADC1853239F493FD4B
:10297000859193FF81917F01853221F4B60190E02A
:10298000D6D1E8CF912C212C312CFFE1F315D8F0D2
:102990008B3279F038F4803279F08332A1F4232D30
:1029A00020611DC08D3261F0803369F4232D2160D8
:1029B00016C0832D8260382EE32DE4603E2E2AC09F
:1029C000F32DF8601DC037FC2DC020ED280F2A30F4
:1029D00040F08E32B9F436FC75C1232D2064322EBE
:1029E00019C036FE06C08AE0989E200D1124922E52
:1029F00011C0EAE02E9E200D1124222EF32DF0624C
:102A00003F2E08C08C3621F4832D8068382E02C0FA
:102A1000883641F4F70193FD859193FF81917F0101
:102A20008111B3CF982F9F7D9554933028F40C5F7C
:102A30001F4F9FE399830DC0833631F0833771F0C8
:102A4000833509F055C020C0F801808189830E5F6D
:102A50001F4F88248394912C530112C02801F2E067
:102A60004F0E511CF801A080B18036FE03C0692DC5
:102A700070E002C06FEF7FEFC5014ED14C018201C3
:102A8000F32DFF773F2E15C0280122E0420E511C86
:102A9000F801A080B18036FE03C0692D70E002C04D
:102AA0006FEF7FEFC5012DD14C01F32DF0683F2E64
:102AB000820133FC19C0822D90E088169906A0F49B
:102AC000B60180E290E033D12A94F5CFF50137FCCE
:102AD000859137FE81915F01B60190E028D12110E8
:102AE0002A9421E0821A91088114910479F7E1C0B7
:102AF000843611F0893639F5F80137FE07C0608158
:102B00007181828193810C5F1F4F08C06081718148
:102B1000072E000C880B990B0E5F1F4FF32DFF76CD
:102B20003F2E97FF09C090958095709561957F4FD6
:102B30008F4F9F4FF0683F2E2AE030E0A30133D142
:102B4000882E861844C0853731F4232D2F7EB22E6F
:102B50002AE030E025C0932D997FB92E8F36C1F041
:102B600018F4883579F0AEC0803719F0883721F035
:102B7000A9C0E92FE061BE2EB4FE0DC0FB2DF460AC
:102B8000BF2E09C034FE0AC0292F2660B22E06C00F
:102B900028E030E005C020E130E002C020E132E072
:102BA000F801B7FE07C060817181828193810C5F5B
:102BB0001F4F06C06081718180E090E00E5F1F4F63
:102BC000A301F1D0882E8618FB2DFF773F2E36FE0D
:102BD0000DC0232D2E7FA22E891458F434FE0BC075
:102BE00032FC09C0832D8E7EA82E05C0B82CA32CE4
:102BF00003C0B82C01C0B92CA4FE0FC0FE01E80D23
:102C0000F11D8081803321F49A2D997EA92E09C06F
:102C1000A2FE06C0B394B39404C08A2D867809F04E
:102C2000B394A3FC10C0A0FE06C0B21480F4280C1C
:102C3000922C9B180DC0B21458F4B60180E290E0BB
:102C400076D0B394F8CFB21418F42B1802C0982C95
:102C5000212CA4FE0FC0B60180E390E068D0A2FE54
:102C600016C0A1FC03C088E790E002C088E590E0B0
:102C7000B6010CC08A2D867851F0A1FE02C08BE20D
:102C800001C080E2A7FC8DE2B60190E050D089142B
:102C900030F4B60180E390E04AD09A94F8CF8A9459
:102CA000F301E80DF11D8081B60190E040D0811064
:102CB000F6CF222009F44ECEB60180E290E037D064
:102CC0002A94F7CFF6018681978102C08FEF9FEF9C
:102CD0002B960FB6F894DEBF0FBECDBFDF91CF911C
:102CE0001F910F91FF90EF90DF90CF90BF90AF902A
:102CF0009F908F907F906F905F904F903F902F901C
:102D00000895FC010590615070400110D8F780953E
:102D100090958E0F9F1F0895FC01615070400190A7
:102D20000110D8F7809590958E0F9F1F08950F93EF
:102D30001F93CF93DF93FB01238121FD03C08FEF0E
:102D40009FEF2CC022FF16C0468157812481358118
:102D50004217530744F4A081B1819D012F5F3F4F7B
:102D6000318320838C93268137812F5F3F4F3783B8
:102D7000268314C08B01EC01FB010084F185E02D5A
:102D80001995892BE1F6D80116968D919C9117978C
:102D9000019617969C938E931697CE01DF91CF9153
:102DA0001F910F910895FA01AA27283051F120317F
:102DB00081F1E8946F936E7F6E5F7F4F8F4F9F4FCF
:102DC000AF4FB1E03ED0B4E03CD0670F781F891F11
:102DD0009A1FA11D680F791F8A1F911DA11D6A0FDF
:102DE000711D811D911DA11D20D009F468943F9192
:102DF0002AE0269F11243019305D3193DEF6CF0191
:102E00000895462F4770405D4193B3E00FD0C9F756
:102E1000F6CF462F4F70405D4A3318F0495D31FDC3
:102E20004052419302D0A9F7EACFB4E0A695979516
:102E3000879577956795BA95C9F7009761057105EC
:102E400008959B01AC010A2E069457954795379536
:102E50002795BA95C9F7620F731F841F951FA01D90
:062E60000895F894FFCF75
:102E66000C46520000000200000000550900000058
:102E7600000000000200000000F80A000000004602
:102E86005208FF0412024F4BF373657269616C417D
:102E96006461707465725F70726F63657373467296
:102EA600616D65007266416461707465725F736519
:102EB6006E645365744C65642829207769746820AC
:102EC60073697A653A2025640A0072664164617006
:102ED6007465725F73656E64546F67676C654C6585
:102EE60064282920776974682073697A653A2025F1
:102EF600640A007266416461707465725F73656E20
:102F0600644C6364436C6561722829207769746830
:102F16002073697A653A2025640A00726641646105
:102F2600707465725F73656E644C6364476F746F2B
:102F3600282920776974682073697A653A202564A0
:102F46000A007266416461707465725F73656E64CF
:102F56004C63645072696E742829207769746820FE
:102F660073697A653A2025640A0050656E697300B4
:102F76006C63645F636C656172282920696E00006A
:00000001FF
