S00C000044454F532E73726563ED
S11300009DC20000CBC20000C9C20000C7C20000EC
S1130010C5C20000C3C20000C1C20000BFC20000CC
S1130020BDC20000BBC20000B9C20000B7C20000DC
S1130030B5C200000C94F40AB1C20000AFC20000C3
S1130040ADC20000FAC40000A9C20000A7C20000AB
S1130050A5C200003DC70000A1C200009FC200006D
S11300609DC20000BCC50000EBC5000097C20000A3
S113007095C2000093C2000091C200008FC200002C
S11300808DC200008BC2000089C2000087C200003C
S113009004C6000033C6000081C200007FC2000015
S11300A07DC200007BC2000079C2000077C200005C
S11300B075C2000073C2000071C200006FC200006C
S11300C06DC200006BC2000069C2000045C600009A
S11300D074C6000063C200009DC60000CCC60000C8
S11300E05DC200001604170417041704170417044C
S11300F01704170417041704170417041704170424
S113010017041704170417040E041704170417041C
S1130110170417041004170417040C041704170415
S113012017041704160417041704170417041704F4
S113013017041704170417041704170412041704E8
S113014017041704170414040804170417041704E5
S1130150170417040A0443616E277420706F70201B
S113016066726F6D20656D70747920726561647953
S11301702071756575650043616E27742070757311
S113018068206F6E2066756C6C20726561647920DE
S11301907175657565002020202020202020005BDB
S11301A04552524F525D200020537461636B2063AB
S11301B06F6C6C69646573207769746820676C6F11
S11301C062616C2076617273002D2D2D2D2D2D2DE5
S11301D02D2D2D2D2D2D2D2D2D2D2D2D2D2D2D2D4B
S11301E02D2D2D2D2D2D2D2D2D2D2D2D2D2D2D2D3B
S11301F02D2D2D2D2D2D2D2D2D2D2D0A005B494E10
S1130200464F5D2020005573656420676C6F626102
S11302106C20766172733A2025642F2564206279FC
S1130220746573005B494E464F5D202000426F6F3A
S113023074696E672044454F53202E2E2E000A0AFF
S1130240232323232323232323232323232323237A
S1130250232323232323232323232323232323236A
S1130260232323232323232323232323232323235A
S113027023230A00426F6F74696E672044454F530D
S1130280202E2E2E006F735F737461727453636833
S11302906564756C65722829207465726D696E6178
S11302A074656420616761696E737420616C6C208D
S11302B06F646473202D2073636172792073747585
S11302C066662E2E2E005468657265206973206E52
S11302D06F2069646C652070726F63006F735F6573
S11302E07865632829202D3E20004E6F20667265B4
S11302F06520736C6F7420617661696C61626C65F2
S11303000A00436865636B73756D206D69736D6175
S113031074636820696E2070726F6365737320253F
S11303206400537461636B20706F696E746572202E
S11303306F7574206F6620626F756E647320696ECA
S11303402070726F6365737320256400437269744F
S11303502E2053656374696F6E202020756E64656A
S113036072666C6F7700437269742E2053656374F0
S1130370696F6E2020206F766572666C6F7700203F
S113038020544553542050415353454420202000C9
S113039053636865642E205061727469616C005007
S11303A06861736520343A0053636865642E2041A4
S11303B06C6C00506861736520333A0049646C6565
S11303C000506861736520323A0053747261746539
S11303D06769657300506861736520313A00496448
S11303E06C65206E6F74207363686564756C6564F6
S11303F00044796E616D69635072696F72697479D2
S113040020526F756E64526F62696E3A2000526FAB
S1130410756E64526F62696E3A20004F4B004E6FE6
S11304207420696D706C2E206F722069646C652075
S113043072657475726E65640066616C73656C795F
S11304402073636865642E006E6F7420736368653F
S113045064756C61626C65004572726F7220445001
S113046052523A20004572726F7220526F756E6458
S1130470526F62696E3A20004F4B004E6F742069D0
S11304806D706C2E206F722069646C6520726574C7
S113049075726E6564004F4B004E6F7420696D7009
S11304A06C2E206F722069646C652072657475729D
S11304B06E65640044796E616D69635072696F7230
S11304C069747920526F756E64526F62696E00525E
S11304D06F756E64526F62696E00496E76616C6905
S11304E06420737472617465677900010203010208
S11304F003010203010203010203010203010203D7
S113050001020301020301020301020102010302C9
S113051001030102010302010301020103020103B9
S11305200102010302010301020103004C09ED0F62
S11305301B1023102B1033103B10431011241FBE2B
S1130540CFEFD1E2DEBFCDBF00E00CBF12E0A0E0F0
S1130550B2E0E8EAF6E200E00BBF02C007900D92B9
S1130560A232B107D9F724E0A2E2B2E001C01D92A1
S1130570AC31B207E1F712E0CEE9D2E000E006C008
S113058021970109802FFE010E946D10C639D10701
S113059080E00807A9F74FD50C94521331CD3AD611
S11305A0E2E0F1E080818064808385E08A95F1F760
S11305B0000080818F7B80838FE891E00197F1F7C1
S11305C000C0000046C60895CF93C82F23D6C0FFAD
S11305D004C084B3806284BB03C084B38F7D84BBB6
S11305E0C1FF04C08EB188608EB903C08EB1877F0D
S11305F08EB9C2FF06C0E2E0F1E0808188608083AA
S113060005C0E2E0F1E08081877F8083C3FF06C0FC
S1130610E2E0F1E080818061808305C0E2E0F1E006
S113062080818F7E8083BBDF14D6CF9108950F9392
S11306301F93CF93DF93CDB7DEB7AE01485F5F4F13
S1130640DA016D917D91AD0106E114E0D8011296B5
S1130650ED91FC91139783818860838380E092E01D
S11306600E949710D8011296ED91FC911397838103
S1130670877F8383DF91CF911F910F910895CF934B
S1130680C82FC8D5E2E0F1E080818F7D80838C2F74
S113069082958F7099DF8C2F97DF85ED8A95F1F71E
S11306A00000D7D5CF910895B5D5E1E0F1E0808180
S11306B0886780838DB188608DB983B3806283BB82
S11306C080B3816080BB81B38E7F81BB2FEF80E7D5
S11306D092E0215080409040E1F700C0000083E0A8
S11306E073DF8FE19EE40197F1F700C0000083E01F
S11306F06BDF8FE193E00197F1F700C0000083E026
S113070063DF8FE193E00197F1F700C0000082E01E
S11307105BDF88E2B4DF8CE0B2DF81E0B0DF86E04B
S1130720AEDF8FE19EE40197F1F700C0000091C5B0
S1130730089570D510927E0381E0A1DF8FE39FE1DD
S11307400197F1F700C0000084C508958CE097CFAD
S1130750089588E094CF08958FE091CF0895CF93C2
S1130760DF93D82FC62F823008F0D1E053D58C2FD9
S113077090E4D99F800D1124806881DF80E1D89FA7
S1130780C00D1124C0937E0364D5DF91CF910895E9
S1130790CF93C82F3FD5E2E0F1E08081806280836F
S11307A08C2F82958F7010DF8C2F0EDF85ED8A954C
S11307B0F1F700004ED5CF91089560E080E0CFCFEF
S11307C0089560E081E0CBCF0895CF93C82F22D560
S11307D0CA3031F480917E038071805F80937E0300
S11307E080917E03803111F4ECDF04C0803211F477
S11307F0A0DFE3DF8C2F90E0FC01E458F109E9333A
S1130800F105A8F48827EE58FF4F8F4F0C946D1014
S1130810CFEE0DC0C5EF0BC0C2EE09C0CFEE07C0CE
S1130820C5EF05C0CFED03C0C4EE01C0C1EE8C2FEF
S1130830AFDF80917E038F5F80937E030AD5CF91D3
S11308400895C3DF80E090E008950F931F93CF9342
S1130850DF93EC01DFD402C0B8DFE8018E010F5F43
S11308601F4FFE0184918111F7CFF3D4DF91CF9113
S11308701F910F910895CF92DF92EF92FF921F93F1
S1130880CF93DF93EC01892B19F480E39EDF30C012
S1130890C1D410E00F2EF0E1CF2EF7E2DF2EE12CD1
S11308A0F12CF02DBE0180E090E0A70196010E949A
S11308B04B10422F50E04C9DC0014D9D900D5C9D0E
S11308C0900D1124C81BD90B122B19F080E3820F51
S11308D07CDFC701B6012AE030E040E050E00E942E
S11308E04B1069017A01232B242B252BD9F6B1D483
S11308F0DF91CF911F91FF90EF90DF90CF900895FB
S1130900FC012185928581E0291380E00895CF932D
S1130910DF93EC01F5DF882339F086E591E09F93BE
S11309208F93ECD30F900F909985292F30E0FE011F
S1130930E20FF31F80812F5F3F4F2930310514F4FC
S11309409F5F01C090E09987DF91CF910895FC01EA
S1130950228530E02F5F3F4F2930310514F020E02D
S113096030E0FC01418550E081E02417350709F0AF
S113097080E008951F93CF93DF93EC01162FE7DFF8
S1130980882339F087E791E09F938F93B7D30F9033
S11309900F902A85822F90E0FE01E80FF91F108343
S11309A00196099714F42F5F01C020E02A87DF9194
S11309B0CF911F910895FC01118612860895FC01C0
S11309C0218530E032C0DF01A20FB31F5C915613C2
S11309D024C018C0B9016F5F7F4F693071051CF0E6
S11309E0A0E0B0E001C0DB01AE0FBF1F5C91DF01EE
S11309F0A20FB31F5C93693071051CF020E030E056
S1130A0001C09B012817390729F7442311F04150ED
S1130A1001C048E0428781E00895C901019620E0C1
S1130A2030E0893091050CF49C014285842F90E0DC
S1130A302817390741F680E008951F920F920FB6E8
S1130A400F9211248F939F93AF93BF9380912202AF
S1130A5090912302A0912402B09125029058AF4FA7
S1130A60BF4F8093220290932302A0932402B09359
S1130A702502BF91AF919F918F910F900FBE0F9060
S1130A801F901895E1E8F0E080818E7F808380815B
S1130A908D7F808380818B7F808308951092800076
S1130AA0109285001092840081E090E09093890078
S1130AB080938800EFE6F0E0808181608083E2CF5C
S1130AC00895A8D383E090E09093D5008093D40058
S1130AD0E0EDF0E080818D7F8083E1EDF0E08081C6
S1130AE080618083808188608083B3C308959091FE
S1130AF0D00095FFFCCF8093D60008950F931F93E9
S1130B00CF93DF938C0186D3D0E00DC0F801ED0FB5
S1130B10F11DC491CA3011F48DE0E9DFCC2329F032
S1130B208C2FE5DFDF5FDF3F89F793D3DF91CF9130
S1130B301F910F910895C5DF8EE092E09093190400
S1130B40809318040895CF93C82F8A3011F48DE050
S1130B50CEDF8C2FCCDFCF910895D0CF0895CF93E3
S1130B60C82F58D38C2FEFDFCA3019F486E991E0EF
S1130B70F4DF6FD380E090E0CF9108958AE0E3CF73
S1130B8008950F931F93CF93DF93CDB7DEB742D36E
S1130B9088859985E2DF06E114E0D8011296ED918B
S1130BA0FC911397838188608383AE01445F5F4F18
S1130BB06A857B8512968D919C9113970E9497105C
S1130BC0D8011296ED91FC9113978381877F8383DB
S1130BD0D5DF3FD3DF91CF911F910F9108951F92DD
S1130BE00F920FB60F9211240BB60F922F938F937F
S1130BF09F93EF93FF938091C0002091C6008C7166
S1130C00E0917703EF5F90917603E91739F0E09371
S1130C107703F0E0E658FC4F208301C082E0909116
S1130C207503892B80937503FF91EF919F918F91A9
S1130C302F910F900BBE0F900FBE0F901F90189521
S1130C401F920F920FB60F9211240BB60F928F932F
S1130C509F93EF93FF939091790380917803981772
S1130C6061F0E0917803EF5FE0937803F0E0E658F9
S1130C70FC4F80818093C60005C0E1ECF0E08081E8
S1130C808F7D8083FF91EF919F918F910F900BBE89
S1130C900F900FBE0F901F9018951F920F920FB6D2
S1130CA00F9211240BB60F922F938F939F93EF9370
S1130CB0FF938091C8002091CE008C71E0913202A4
S1130CC0EF5F90913102E91739F0E0933202F0E0DE
S1130CD0EB5CFD4F208301C082E090913002892BB0
S1130CE080933002FF91EF919F918F912F910F90FC
S1130CF00BBE0F900FBE0F901F9018951F920F926E
S1130D000FB60F9211240BB60F928F939F93EF930C
S1130D10FF939091340280913302981769F0E09127
S1130D203302EF5FEF73E0933302F0E0EB5CFC4FD0
S1130D3080818093CE0005C0E9ECF0E080818F7D56
S1130D408083FF91EF919F918F910F900BBE0F9035
S1130D500FBE0F901F9018951F920F920FB60F920F
S1130D6011240BB60F922F938F939F93EF93FF93BE
S1130D708091D0002091D6008C71E0912D02EF5F1C
S1130D8090912C02E91739F0E0932D02F0E0E05D38
S1130D90FD4F208301C082E090912B02892B809328
S1130DA02B02FF91EF919F918F912F910F900BBE8A
S1130DB00F900FBE0F901F9018951F920F920FB6B1
S1130DC00F9211240BB60F928F939F93EF93FF937F
S1130DD090912F0280912E02981761F0E0912E02DB
S1130DE0EF5FE0932E02F0E0E05DFD4F80818093A1
S1130DF0D60005C0E1EDF0E080818F7D8083FF9116
S1130E00EF919F918F910F900BBE0F900FBE0F909B
S1130E101F9018951F920F920FB60F9211240BB6C4
S1130E200F922F938F939F93EF93FF9380913001B1
S1130E30209136018C71E0912802EF5F9091270296
S1130E40E91739F0E0932802F0E0E55DFD4F2083D7
S1130E5001C082E090912602892B80932602FF91A3
S1130E60EF919F918F912F910F900BBE0F900FBE1A
S1130E700F901F9018951F920F920FB60F92112486
S1130E800BB60F928F939F93EF93FF9390912A0247
S1130E9080912902981761F0E0912902EF5FE093B5
S1130EA02902F0E0E55DFD4F80818093360105C0A5
S1130EB0E1E3F1E080818F7D8083FF91EF919F9149
S1130EC08F910F900BBE0F900FBE0F901F9018952F
S1130ED01F920F920FB60F9211248F939F93AF938B
S1130EE0BF9380917F0390918003A0918103B0917F
S1130EF082030196A11DB11D80937F03909380030B
S1130F00A0938103B0938203BF91AF919F918F917E
S1130F100F900FBE0F901F90189510927F031092A0
S1130F208003109281031092820385B5816085BD90
S1130F3085B5826085BD85B58B7F85BD84B58260AE
S1130F4084BD89EF87BDEEE6F0E080818260808316
S1130F5008950FB607FC18C0A99B16C085B382601C
S1130F6085BB80917F0390918003A0918103B09110
S1130F7082030196A11DB11D80937F03909380038A
S1130F80A0938103B09382038FB7282F221F2227B7
S1130F90221FF89460917F037091800380918103F4
S1130FA090918203222309F078940895CF92DF92DE
S1130FB0EF92FF920F931F93CF93DF930097D1F09B
S1130FC0EC01C7DF6B017C0106C08FE891E001975B
S1130FD0F1F700C00000BDDFDC01CB018C199D09D5
S1130FE0AE09BF098E0120E030E080179107A20707
S1130FF0B30758F3DF91CF911F910F91FF90EF90BA
S1131000DF90CF900895CF93DF93CDB7DEB79F8164
S113101028858E8181110CC0AE01475F5F4F5F93BD
S11310204F932F939F936AD00F900F900F900F9030
S1131030DF91CF91089521D088E592E0B7DF79DB85
S11310403CD181E090E00895E0EBF0E080818260A3
S11310508083E1EBF0E08081846080838081826022
S11310608083808181608083E0E7F0E0808182601A
S113107080838CE38093B30008954FDFE5DF0EDDBA
S113108013DB59DD63DB55DB84E792E0DEDB8EE3C3
S113109092E063DD8DE292E09F938F9384E292E08D
S11310A09F938F936EDD83E08F9388EE8F938CE113
S11310B092E09F938F9386E092E09F938F938DEFBE
S11310C091E09F938F935DDD89EC91E046DD88EAA2
S11310D091E09F938F9381E02CE134E0283E3540EA
S11310E008F080E08F938FDFFBD18DB79EB70F960A
S11310F00FB6F8949EBF0FBE8DBF0895CF93DF93B4
S1131100CDB7DEB71E810F81F8948FEF91E29EBFB9
S11311108DBF0FDBCE0108969F938F930F931F9380
S113112086DACE0108969F938F930F931F938FE9CE
S113113091E09F938F9325DD0FB6F894DEBF0FBE29
S1131140CDBF04DB9FEF2DE389E491502040804024
S1131150E1F700C00000FDDA9FEF21EE84E091503A
S113116020408040E1F700C00000EBCFC0E0D0E0B9
S113117006C08EE22ADB84E690E018DF2196C330B5
S1131180D105BCF3D6DA84E690E010DFEFCFBC01E2
S1131190990F880B990B089521E030E002C0220FCB
S11311A0331F8A95E2F78091D3039091D4032823C7
S11311B0392381E0232B09F480E00895803148F439
S11311C0E82FF0E0EE0FFF1FED54FC4F808191817A
S11311D0089580E090E0089590E09C01220F331F71
S11311E0820F931F880F991F8D579C4F089590E08D
S11311F0880F991F8D549C4F089580917C03089506
S1131200CF93C82F89D3C0937B03CF910895809146
S11312107B030895CF93CFB7CC1FCC27CC1FF89472
S113122080917A038F3F41F486E693E09F938F93F6
S113123065DF0F900F9003C08F5F80937A03E0E720
S1131240F0E080818D7F8083CC2309F07894CF9166
S11312500895CF93CFB7CC1FCC27CC1FF89480919F
S11312607A03811108C08CE493E09F938F9346DF47
S11312700F900F9003C0815080937A0380917A037A
S1131280811105C0E0E7F0E0808182608083CC2397
S113129009F07894CF91089580E0A9DF26EB38E037
S11312A0FC01318320838091D3039091D403816026
S11312B09093D4038093D303089510927C03E3E8BE
S11312C0F3E082E08183828193819EBF8DBF0F9082
S11312D01F902F903F904F905F906F907F908F90D2
S11312E09F90AF90BF90CF90DF90EF90FF900F91C1
S11312F01F912F913F914F915F916F917F918F91AA
S11313009F91AF91BF91CF91DF91EF91FF91FFBF7B
S1131310FF91189585E892E09F938F93EFDE0F90ED
S11313200F90089590E027E633E0829FA001839F09
S1131330500D929F500D11242FE131E2241B350BE7
S1131340FC01EE0FFF1FE80FF91FEE0FFF1FED5713
S1131350FC4F42815381241B203178F490E080E0DB
S113136017C0322F32953F70FA01399FE00DF11DFD
S11313701124308183279F5F02C090E080E0903188
S113138080F30895FA01E90FF11D308183279F5FEF
S11313909217C0F30895EF92FF920F931F93CF9388
S11313A0DF93E82EF62E36DFC0E0D0E00DC0FE015C
S11313B0EE0FFF1FEC0FFD1FEE0FFF1FED57FC4F4D
S11313C08181882331F02196C830D10584F3CFEF91
S11313D0DFEFCF3F8FEFD80781F48AEE92E09F933F
S11313E08F938CED92E09F938F93CBDB32DF0F9042
S11313F00F900F900F901FEF6BC08E01000F111F05
S11314000C0F1D1F000F111F0D571C4FD801EC921C
S113141081E011968C9311971496FC92149787E6A9
S113142093E0C89F9001C99F300DD89F300D1124BF
S11314308FE191E27C01E21AF30AC7010197139646
S11314409C938E9312978EE09CE0A1DEF70160835B
S1131450D8011296ED91FC9113979F012150310907
S113146013963C932E93129770831296ED91FC91F0
S113147013979F012150310913963C932E93129791
S1131480808380E012C0FE01EE0FFF1FEC0FFD1FF2
S1131490EE0FFF1FED57FC4FA281B3819D01215038
S11314A03109338322831C928F5F813260F31C2FB6
S11314B08C2F38DFFE01EE0FFF1FEC0FFD1FEE0F28
S11314C0FF1FED57FC4F8583A2DE6C2FFED1C1DEDA
S11314D0812FDF91CF911F910F91FF90EF9008958D
S11314E0CF93DF9380E090E00BC0FC01EE0FFF1F71
S11314F0E80FF91FEE0FFF1FED57FC4F1182019605
S11315008830910594F3C0E0D0E008C08C2F44DE0D
S1131510882319F062E08C2F3EDF2196C031D1057B
S1131520ACF380917B03F8D188EB9BE03FDD209105
S1131530B3033091B40386EC92E09F938F9381E0E0
S1131540232B09F480E08F935EDD0F900F900F90B2
S1131550DF91CF9108958F929F92AF92BF92CF92D5
S1131560DF92EF92FF920F931F93482F50E0FA01FE
S1131570EE0FFF1FE40FF51FEE0FFF1FED57FC4F9B
S1131580C280D380E12CF12C9A01A7E6B3E0ADD55B
S11315900FE111E220E030E0061B170B280B390B9A
S11315A00C151D052E053F0588F008EB1DE120E014
S11315B030E048015901861A970AA80AB90AC814E2
S11315C0D904EA04FB0420F480E003C080E001C0F5
S11315D081E01F910F91FF90EF90DF90CF90BF902B
S11315E0AF909F908F900895FF93FFB7FF93EF9371
S11315F0DF93CF93BF93AF939F938F937F936F9317
S11316005F934F933F932F931F930F93FF92EF9208
S1131610DF92CF92BF92AF929F928F927F926F92FE
S11316205F924F923F922F921F9211240F928091BA
S11316307C0390E02DB73EB7FC01EE0FFF1FE80FCF
S1131640F91FEE0FFF1FED57FC4F338322838FEDFD
S113165091E29EBF8DBF10917C03C12FD0E0FE01AB
S1131660EE0FFF1FEC0FFD1FEE0FFF1FED57FC4F9A
S11316708181823059F4FE01EE0FFF1FEC0FFD1F34
S1131680EE0FFF1FED57FC4F81E08183812F4ADE6F
S11316909E01220F331FC20FD31FCC0FDD1FCD5766
S11316A0DC4F8D83812F57DF81110BC01F921F9355
S11316B082E293E09F938F9321DD0F900F900F9020
S11316C00F90A5DD882319F0813049F010C0609196
S11316D07C0383E893E0BFD080937C030AC06091CD
S11316E07C0383E893E040D180937C0302C0109292
S11316F07C03C0917C038C2F90E0FC01EE0FFF1F54
S1131700E80FF91FEE0FFF1FED57FC4FD5818C2F0B
S113171009DED81759F01F92CF9382E093E09F938C
S11317208F93ECDC0F900F900F900F9080917C03BF
S113173090E0FC01EE0FFF1FDF01A80FB91FAA0FF5
S1131740BB1FAD57BC4F22E011962C931197FD019E
S1131750828193819EBF8DBF0F901F902F903F90E9
S11317604F905F906F907F908F909F90AF90BF90BD
S1131770CF90DF90EF90FF900F911F912F913F91A9
S11317804F915F916F917F918F919F91AF91BF9195
S1131790CF91DF91EF91FF91FFBFFF911895809159
S11317A07A03811104C0F8941092B2001DCF0895F9
S11317B0CF939FEF980F973060F5282F30E0F90111
S11317C0EE0FFF1FE20FF31FEE0FFF1FED57FC4F4D
S11317D09181992301F1C82F1DDD8C2FFDDCFC01C3
S11317E0118215DD6C2F71D008DDC8130EC081E0A5
S11317F080937A032EDD7894D2DF8CE192E09F937C
S11318008F9382D40F900F90F8CF23DDC8DF81E04F
S113181003C080E001C080E0CF910895EEDCC82FC2
S113182090E0FC01EE0FFF1FE80FF91FEE0FFF1F02
S1131830ED57FC4F8081C2DC009711F0FC01199533
S11318408C2FB6DFACDF8CE192E09F938F935CD456
S11318500F900F90F8CFCF93DF93EC01CEDC91E0A3
S1131860980F0FC0292F30E0F901EE0FFF1FE20F90
S1131870F31FEE0FFF1FEC0FFD1F21812130F9F044
S11318809F5F983078F391E00FC0292F30E0F90181
S1131890EE0FFF1FE20FF31FEE0FFF1FEC0FFD1FF4
S11318A02181213071F09F5F492F50E0282F30E0D3
S11318B02F5F3F4F4217530744F380E003C0892F43
S11318C001C0892FDF91CF910895CF93DF938823AF
S11318D001F1D62FC0E009C02BE0C29FC001112442
S11318E06D2F8B529C4F6BD8CF5FC330A8F38D2FD5
S11318F073DCFC018181813061F48D2F6DDCFC018E
S11319008481FBE08F9FC00111246D2F8B529C4F6B
S113191031D8DF91CF910895CF93882319F1C0E096
S113192008C02BE0C29FC00111248B529C4F43D8A6
S1131930CF5FC330B0F3C1E013C08C2F4DDCFC018A
S11319408181813061F48C2F47DCFC018481FBE0D0
S11319508F9FC00111246C2F8B529C4F0BD8CF5FEB
S1131960C83058F3CF910895DF92EF92FF920F930E
S11319701F93CF93DF93D62EC0E0D0E021C07E0129
S11319802FEFE21AF20A8BE08E9D80018F9D100DDD
S113199011240B521C4FC8010E94800481110FC0F6
S11319A0C8010E9487049BE09C9F90019D9F300D7D
S11319B01124682FC9018B529C4F0E94BA04E7017D
S11319C0C230D105E4F28D2D07DCFC018181813028
S11319D069F48D2D01DCFC018481FBE08F9FC00143
S11319E011246D2D8B529C4F0E94BA04C0E0D0E0AC
S11319F012C08BE08C9F80018D9F100D11240B521F
S1131A001C4FC8010E948004811104C0C8010E94B7
S1131A10870405C02196C330D1055CF380E0DF91D3
S1131A20CF911F910F91FF90EF90DF900895FF9257
S1131A300F931F93CF93DF93CDB7DEB7E0970FB625
S1131A40F894DEBF0FBECDBFF12C18C00F2D10E0EF
S1131A508F2DC2DBFC01D801AA0FBB1FA00FB11F41
S1131A60AA0FBB1F81E090E08C0F9D1FA80FB91F28
S1131A7096E001900D929A95E1F7F39497E09F1503
S1131A8028F7C5DB882319F0813041F00EC0B5DB9F
S1131A90682FCE010196DFDE182F0EC0AEDB682F53
S1131AA0CE01019661DF182F07C00E9499038AEDC9
S1131AB094E00E942504FFCFAADB2EDF111102C09F
S1131AC080E001C081E0E0960FB6F894DEBF0FBE5F
S1131AD0CDBFDF91CF911F910F91FF900895CF93C8
S1131AE0882319F0813049F010C08FEC94E00E94F3
S1131AF0250480E085DBC0E009C084EB94E00E940B
S1131B00250481E07DDBC1E001C0C0E080ED97E009
S1131B104DDA8C2FCF910895CF93C82F0E9499034B
S1131B208C2FDDDFC82F83DF81110AC00E94990347
S1131B3089E994E00E94250480ED97E037DA67C0D4
S1131B4010927D030CC0E0917D0381E08E0F8093A1
S1131B507D03F0E0EA50FC4F81E0808345DD809115
S1131B607D03803280F30E94990310927D030EC09E
S1131B70E0917D03F0E0EA50FC4F808190E00E9408
S1131B803B0480917D038F5F80937D0380917D036F
S1131B90803270F310927D0333C0E0917D03F0E056
S1131BA0EA50FC4F808190917D0320E2C29FF001B6
S1131BB01124E90FF11DE551FB4FE4918E1771F0EB
S1131BC060917D0390917D036F7081E0903108F402
S1131BD080E00E94AF030E94AC03FFCF80917D039D
S1131BE08F3149F480ED97E0E1D90E94990386E9A9
S1131BF094E00E94250480917D038F5F80937D0390
S1131C0080917D03803248F280ED97E0CFD9CF9167
S1131C1008950F931F93CF93DF93182FD62F0E940D
S1131C209903812F5CDF03DF81113DC00E9499037A
S1131C308BE794E00E94250480ED97E0B7D97CC03F
S1131C4010927D030CC0E0917D0381E08E0F8093A0
S1131C507D03F0E0EA50FC4F81E08083C5DC809195
S1131C607D03803280F380E00EC0E82FF0E0EA507C
S1131C70FC4F908121E030E002C0220F331F9A957F
S1131C80E2F7C22B8F5F803280F3CD130AC00E942B
S1131C90990388E794E00E94250480ED97E086D9B3
S1131CA04BC00F5F02C000E0C0E0033048F20C2FCD
S1131CB000950D23D095CD230E949903112319F08B
S1131CC0113031F009C085E694E00E94250404C077
S1131CD088E594E00E9425040E94E10381E029C084
S1131CE0202F30E0082E02C0359527950A94E2F79C
S1131CF020FF0AC090E00E943B040E94E10388E4B4
S1131D0094E00E94250417C02C2F30E0082E02C056
S1131D10359527950A94E2F720FF0AC090E00E94C7
S1131D203B040E94E10389E394E00E94250403C07C
S1131D308F5F8830A8F2FFCFDF91CF911F910F9171
S1131D400895EF92FF920F931F93CF93DF93CDB734
S1131D50DEB728970FB6F894DEBF0FBECDBF182F9D
S1131D600E949903812FBBDE62DE81111DC00E9497
S1131D7099038EE194E00E94250480ED97E016D942
S1131D8063C0E02EF12C802F27DAFC018181E1E091
S1131D90F0E0EC0FFD1FEE0DFF1D8083802F1CDA99
S1131DA0FC0111820F5F01C000E0083050F3812F65
S1131DB0B3DD00E0F12C13C0112319F0113039F018
S1131DC00BC080E009DA602F46DDF82E05C080E004
S1131DD003DA602FC9DDF82EF11003C00F5F08305D
S1131DE058F300E00CC0802FF7D9E1E0F0E0EC0FED
S1131DF0FD1FE00FF11D2081FC0121830F5F0830DE
S1131E0090F3812F89DDF1100AC00E9499038BE1C0
S1131E1094E00E94250488EE93E0C8D815C00E947F
S1131E209903112319F0113031F009C08EE094E0C8
S1131E300E94250404C081EF93E00E9425048EEDE6
S1131E4093E00E942504FFCF28960FB6F894DEBFD6
S1131E500FBECDBFDF91CF911F910F91FF90EF90F7
S1131E600895CF93DF931F921F92CDB7DEB7E1EBB6
S1131E70F0E080818B7F808380818D7F808380816F
S1131E808E7F8083BAD9A8D9FC01148261E082E0F4
S1131E9082DA62E083E07FDA198281E08A830E9439
S1131EA099030E94DD0385ED93E00E9425040E94BE
S1131EB0E1038AEC93E00E94250480ED97E076D854
S1131EC010E009C0E1E0F0E0EC0FFD1FE10FF11DAF
S1131ED0808122DE1F5F1230A8F30E9499030E94C2
S1131EE0DD0381EC93E00E9425040E94E1038CEB66
S1131EF093E00E94250480ED97E058D810E009C0D3
S1131F00E1E0F0E0EC0FFD1FE10FF11D808119DF2E
S1131F101F5F1230A8F362E084E03DDA62E085E0FE
S1131F203ADA62E086E037DA62E087E034DA0E9487
S1131F3099030E94DD0383EB93E00E9425040E9431
S1131F40E10388EA93E00E94250480ED97E02ED80F
S1131F5010E00AC0E1E0F0E0EC0FFD1FE10FF11D1D
S1131F606EEF808156DE1F5F1230A0F30E9499034A
S1131F700E94DD038FE993E00E9425040E94E1039F
S1131F8080E993E00E94250480ED97E00FD883E078
S1131F9023D9FC01118210E00DC0E1E0F0E0EC0F68
S1131FA0FD1FE10FF11D0081802FB6DC66EF802F4D
S1131FB030DE1F5F123088F30E9499038FE793E0AD
S1131FC00E94250488EE93E00E94D6070E9499039C
S1131FD088EE93E00E94D607EFCF81E008D921E391
S1131FE03FE0FC01318320838091D3039091D4039B
S1131FF082609093D4038093D3030895C82F809173
S11320007D03803250F4E0917D0381E08E0F809354
S11320107D03F0E0EA50FC4FC083E6DAF0CF82E0C3
S1132020EDDF83E0EBDF84E0E9DF85E0E7DF86E0F6
S1132030E5DF87E0E3DF82E0DAD82FE030E1FC017E
S113204031832083089583E0D2D821E130E1FC017B
S113205031832083089584E0CAD823E130E1FC0170
S113206031832083089585E0C2D825E130E1FC0165
S113207031832083089586E0BAD827E130E1FC015A
S113208031832083089587E0B2D829E130E1FC014F
S1132090318320830895A1E21A2EAA1BBB1BFD01E4
S11320A00DC0AA1FBB1FEE1FFF1FA217B307E40733
S11320B0F50720F0A21BB30BE40BF50B661F771F8B
S11320C0881F991F1A9469F760957095809590956B
S11320D09B01AC01BD01CF010895EE0FFF1F881FC6
S11320E08BBF0790F691E02D1994A29FB001B39F86
S11320F0C001A39F700D811D1124911DB29F700D0D
S1132100811D1124911D0895CF93DF93CDB7DEB7C0
S1132110AE014A5F5F4FFA0161917191AF01809105
S113212018049091190411D0DF91CF910895CF93A1
S1132130DF93EC018B8188608B83CE0106D02B81E9
S1132140277F2B83DF91CF9108952F923F924F9257
S11321505F926F927F928F929F92AF92BF92CF9233
S1132160DF92EF92FF920F931F93CF93DF93CDB73C
S1132170DEB72B970FB6F894DEBF0FBECDBF6C0150
S11321807B018A01FC0117821682838181FFBFC112
S1132190CE0101963C01F6019381F70193FD8591EF
S11321A093FF81917F01882309F4ADC1853239F40D
S11321B093FD859193FF81917F01853221F4B601CE
S11321C090E0D6D1E8CF912C212C312CFFE1F315EE
S11321D0D8F08B3279F038F4803279F08332A1F47C
S11321E0232D20611DC08D3261F0803369F4232DCD
S11321F0216016C0832D8260382EE32DE4603E2ECC
S11322002AC0F32DF8601DC037FC2DC020ED280F27
S11322102A3040F08E32B9F436FC75C1232D206487
S1132220322E19C036FE06C08AE0989E200D112475
S1132230922E11C0EAE02E9E200D1124222EF32DA1
S1132240F0623F2E08C08C3621F4832D8068382E2E
S113225002C0883641F4F70193FD859193FF819183
S11322607F018111B3CF982F9F7D9554933028F42B
S11322700C5F1F4F9FE399830DC0833631F0833782
S113228071F0833509F055C020C0F801808189833D
S11322900E5F1F4F88248394912C530112C0280190
S11322A0F2E04F0E511CF801A080B18036FE03C04D
S11322B0692D70E002C06FEF7FEFC5014ED14C0174
S11322C08201F32DFF773F2E15C0280122E0420E34
S11322D0511CF801A080B18036FE03C0692D70E066
S11322E002C06FEF7FEFC5012DD14C01F32DF068D3
S11322F03F2E820133FC19C0822D90E08816990686
S1132300A0F4B60180E290E033D12A94F5CFF50130
S113231037FC859137FE81915F01B60190E028D1A9
S113232021102A9421E0821A91088114910479F7EA
S1132330E1C0843611F0893639F5F80137FE07C05B
S113234060817181828193810C5F1F4F08C060811D
S11323507181072E000C880B990B0E5F1F4FF32D14
S1132360FF763F2E97FF09C09095809570956195F3
S11323707F4F8F4F9F4FF0683F2E2AE030E0A3013C
S113238033D1882E861844C0853731F4232D2F7E0F
S1132390B22E2AE030E025C0932D997FB92E8F36D6
S11323A0C1F018F4883579F0AEC0803719F0883759
S11323B021F0A9C0E92FE061BE2EB4FE0DC0FB2DB3
S11323C0F460BF2E09C034FE0AC0292F2660B22E45
S11323D006C028E030E005C020E130E002C020E182
S11323E032E0F801B7FE07C0608171818281938178
S11323F00C5F1F4F06C06081718180E090E00E5F2A
S11324001F4FA301F1D0882E8618FB2DFF773F2E96
S113241036FE0DC0232D2E7FA22E891458F434FECF
S11324200BC032FC09C0832D8E7EA82E05C0B82CAB
S1132430A32C03C0B82C01C0B92CA4FE0FC0FE010C
S1132440E80DF11D8081803321F49A2D997EA92E07
S113245009C0A2FE06C0B394B39404C08A2D867842
S113246009F0B394A3FC10C0A0FE06C0B21480F41B
S1132470280C922C9B180DC0B21458F4B60180E2BB
S113248090E076D0B394F8CFB21418F42B1802C0AD
S1132490982C212CA4FE0FC0B60180E390E068D0F4
S11324A0A2FE16C0A1FC03C088E790E002C088E544
S11324B090E0B6010CC08A2D867851F0A1FE02C0CE
S11324C08BE201C080E2A7FC8DE2B60190E050D01F
S11324D0891430F4B60180E390E04AD09A94F8CF9E
S11324E08A94F301E80DF11D8081B60190E040D09B
S11324F08110F6CF222009F44ECEB60180E290E09E
S113250037D02A94F7CFF6018681978102C08FEFE6
S11325109FEF2B960FB6F894DEBF0FBECDBFDF91B1
S1132520CF911F910F91FF90EF90DF90CF90BF90CC
S1132530AF909F908F907F906F905F904F903F905F
S11325402F900895FC010590615070400110D8F758
S1132550809590958E0F9F1F0895FC0161507040E7
S113256001900110D8F7809590958E0F9F1F0895C4
S11325700F931F93CF93DF93FB01238121FD03C0AE
S11325808FEF9FEF2CC022FF16C046815781248114
S113259035814217530744F4A081B1819D012F5F17
S11325A03F4F318320838C93268137812F5F3F4FA8
S11325B03783268314C08B01EC01FB010084F18571
S11325C0E02D1995892BE1F6D80116968D919C91F1
S11325D01797019617969C938E931697CE01DF91C9
S11325E0CF911F910F910895FA01AA27283051F134
S11325F0203181F1E8946F936E7F6E5F7F4F8F4F30
S11326009F4FAF4FB1E03ED0B4E03CD0670F781F8E
S1132610891F9A1FA11D680F791F8A1F911DA11D73
S11326206A0F711D811D911DA11D20D009F46894AC
S11326303F912AE0269F11243019305D3193DEF654
S1132640CF010895462F4770405D4193B3E00FD00A
S1132650C9F7F6CF462F4F70405D4A3318F0495DF5
S113266031FD4052419302D0A9F7EACFB4E0A695D8
S11326709795879577956795BA95C9F700976105FA
S1132680710508959B01AC010A2E06945795479550
S113269037952795BA95C9F7620F731F841F951F45
S10B26A0A01D0895F894FFCF7A
S11326A800000002000000002104000000000000F7
S11326B8000200000000AF050000000050656E69CC
S10526C8730099
S9030000FC
