:10000000ECC200001BC3000019C3000017C30000AE
:1000100015C3000013C3000011C300000FC300008C
:100020000DC300000BC3000009C3000007C300009C
:1000300005C300000C94E40F01C30000FFC20000E0
:10004000FDC200000C94B209F9C20000F7C2000022
:10005000F5C200000C945F0CF1C20000EFC200007A
:10006000EDC200000C94840A0C94B50AE7C20000AB
:10007000E5C20000E3C20000E1C20000DFC20000F0
:10008000DDC20000DBC20000D9C20000D7C2000000
:100090000C94E20A0C94130BD1C20000CFC20000F2
:1000A000CDC20000CBC20000C9C20000C7C2000020
:1000B000C5C20000C3C20000C1C20000BFC2000030
:1000C000BDC20000BBC20000B9C200000C94410BCD
:1000D0000C94720BB3C200000C94A00B0C94D20BC6
:1000E000ADC20000960897089708970897089708E8
:1000F0009708970897089708970897089708970808
:1001000097089708970897088E0897089708970800
:10011000970897089008970897088C0897089708F9
:1001200097089708960897089708970897089708D8
:1001300097089708970897089708970892089708CC
:1001400097089708970894088808970897089708C9
:10015000970897088A085072696E74696E672074F0
:100160006F204C43443A2025730A00476F746F2078
:100170004C43443A2025642C2025640A00436C65D6
:100180006172696E67204C43440A00546F67676C64
:10019000696E67204C45440A0053657474696E6744
:1001A000204C454420746F2025640A000A46726181
:1001B0006D6520466F6F7465723A0A2020E2949450
:1001C000E2948020436865636B73756D3A2020204C
:1001D0002020202020202020202030782530325858
:1001E0000A3D3D3D3D3D3D3D3D3D3D3D3D3D3D3D72
:1001F0003D3D3D3D3D3D3D3D3D3D3D3D3D3D3D3D2F
:100200003D3D3D3D3D3D3D3D3D3D3D3D3D3D3D3D1E
:100210003D0A0A002020E29494E29480204E6F2050
:10022000446174610A002020E29494E294802045A5
:100230006E64206F6620446174610A002020E2949D
:100240009CE2948020427974652025643A203078BD
:10025000253032580A000A3D3D3D3D3D3D3D3D3D86
:100260003D3D3D3D3D3D3D202573203D3D3D3D3DDA
:100270003D3D3D3D3D3D3D3D3D3D3D0A4672616D4F
:1002800065204865616465723A0A2020E2949CE228
:10029000948020537461727420466C61673A202008
:1002A0002020202020202020203078253034580A9B
:1002B0002020E2949CE2948020536F757263652045
:1002C000416464726573733A202020202020202529
:1002D000750A2020E2949CE294802044657374693E
:1002E0006E6174696F6E20416464726573733A2045
:1002F0002025750A2020E29494E29480204C656EBB
:100300006774683A202020202020202020202020F0
:1003100020202025750A0A496E6E6572204672619A
:100320006D6520446174613A0A0043616E27742050
:10033000706F702066726F6D20656D7074792072B9
:10034000656164792071756575650043616E277418
:100350002070757368206F6E2066756C6C207265F6
:10036000616479207175657565002020202020204A
:100370002020005B4552524F525D20002053746193
:10038000636B20636F6C6C69646573207769746854
:1003900020676C6F62616C2076617273002D2D2D69
:1003A0002D2D2D2D2D2D2D2D2D2D2D2D2D2D2D2D7D
:1003B0002D2D2D2D2D2D2D2D2D2D2D2D2D2D2D2D6D
:1003C0002D2D2D2D2D2D2D2D2D2D2D2D2D2D2D0A80
:1003D000005B494E464F5D202000557365642067E1
:1003E0006C6F62616C20766172733A2025642F25F0
:1003F00064206279746573005B494E464F5D20202E
:1004000000426F6F74696E672044454F53202E2E53
:100410002E000A0A232323232323232323232323F6
:10042000232323232323232323232323232323239C
:10043000232323232323232323232323232323238C
:100440002323232323230A00426F6F74696E6720DE
:1004500044454F53202E2E2E006F735F73746172CC
:10046000745363686564756C6572282920746572BD
:100470006D696E6174656420616761696E73742073
:10048000616C6C206F646473202D207363617279DA
:100490002073747566662E2E2E0054686572652072
:1004A0006973206E6F2069646C652070726F6300E1
:1004B0006F735F657865632829202D3E20004E6F9D
:1004C000206672656520736C6F7420617661696C5B
:1004D00061626C650A00436865636B73756D206DBE
:1004E00069736D6174636820696E2070726F6365F3
:1004F000737320256400537461636B20706F696EA1
:10050000746572206F7574206F6620626F756E64FB
:100510007320696E2070726F6365737320256400A9
:10052000437269742E2053656374696F6E202020B6
:10053000756E646572666C6F7700437269742E2005
:1005400053656374696F6E2020206F766572666CE8
:100550006F770020546573742066696E69736865EF
:100560006400506861736520353A202072656665C5
:10057000722D656E6365206672616D6520004F4B5C
:1005800000202020202D2D3E20203C2D2D005068C5
:1005900061736520343A00506861736520333A0016
:1005A0004C4544204F6666004C4544204F6E005039
:1005B0006861736520323A004F6E626F6172642029
:1005C0004C454400506861736520313A20546F6790
:1005D000676C65003C0E0D121E1211241FBECFEF7A
:1005E000D1E2DEBFCDBF00E00CBF13E0A0E0B2E07F
:1005F000EEECFCE200E00BBF02C007900D92AE34BF
:10060000B107D9F725E0AEE4B3E001C01D92A83AE6
:10061000B207E1F712E0CDEED2E000E006C021978C
:100620000109802FFE010E944113CA3ED10780E0DC
:100630000807A9F70E94120D0C946516E1CC24D28C
:1006400084B1806884B981E080934E030895A3C289
:100650000895FC018081882321F085B1806885B9E7
:10066000089585B18F7785B9089585B1805885B98A
:100670000895E2C40895FC0161818081F0C4089569
:100680000F931F93CF93DF93CDB7DEB7A1970FB62C
:10069000F894DEBF0FBECDBFFC0140814132A8F40B
:1006A0008C01BC016F5F7F4F50E0CE0101960E942C
:1006B0005813F8018081E1E0F0E0EC0FFD1FE80F36
:1006C000F11D1082CE01019640D5A1960FB6F89487
:1006D000DEBF0FBECDBFDF91CF911F910F91089567
:1006E0000F931F93CF93DF93FC019481915091332B
:1006F00008F073C0EF0169E272E0CF01D6D28D81BC
:10070000803179F128F4813049F08230E1F065C020
:100710008131A1F1823109F44AC05FC08C818230FD
:1007200009F05BC08E811F928F9389E991E09F93BE
:100730008F930E948313CE0106968BDF0F900F904C
:100740000F900F904AC08C81813009F046C08BE831
:1007500091E09F938F930E94831387DF0F900F90F8
:100760003CC08C818130C9F58DE791E09F938F93D8
:100770000E9483137EDF0F900F902FC08C818330F7
:1007800061F59F818E811F929F931F928F938BE6BD
:1007900091E09F938F930E948313CE0106966BDFA7
:1007A0000F900F900F900F900F900F9016C08C81AC
:1007B000823299F48E010A5F1F4FFE013796FF9334
:1007C000EF9386E591E09F938F930E948313C80176
:1007D00057DF0F900F900F900F90DF91CF911F91E7
:1007E0000F9108951F93CF93DF93CDB7DEB7E197B5
:1007F0000FB6F894DEBF0FBECDBF182F81E08983FE
:100800006A831F9282E08F9384E492E09F938F9398
:100810000E947013AE014F5F5F4F62E0812F7BD16A
:100820000F900F900F900F90E1960FB6F894DEBFE7
:100830000FBECDBFDF91CF911F9108951F93CF932E
:10084000DF93CDB7DEB7E1970FB6F894DEBF0FBEEA
:10085000CDBF182F82E089831F9281E08F938AE6B3
:1008600092E09F938F930E947013AE014F5F5F4F92
:1008700061E0812F50D10F900F900F900F90E19673
:100880000FB6F894DEBF0FBECDBFDF91CF911F91A1
:1008900008951F93CF93DF93CDB7DEB7E1970FB6DF
:1008A000F894DEBF0FBECDBF182F80E189831F9261
:1008B00081E08F9383E992E09F938F930E9470135E
:1008C000AE014F5F5F4F61E0812F25D10F900F90F8
:1008D0000F900F90E1960FB6F894DEBF0FBECDBF1C
:1008E000DF91CF911F9108951F93CF93DF93CDB7E1
:1008F000DEB7E1970FB6F894DEBF0FBECDBF182F5D
:1009000081E189836A834B831F9282E08F938BEB13
:1009100092E09F938F930E947013AE014F5F5F4FE1
:1009200062E0812FF8D00F900F900F900F90E1961A
:100930000FB6F894DEBF0FBECDBFDF91CF911F91F0
:100940000895FF920F931F93CF93DF93CDB7DEB738
:10095000C255D1090FB6F894DEBF0FBECDBFF82E39
:1009600082E18983FB0101900020E9F73197E61BC2
:10097000F70BEAABE13210F080E28AAB0AA910E093
:10098000A801CE01C3960E946113E3E3F0E0EC0FEF
:10099000FD1FE00FF11F108281E2FE01F296DE01E1
:1009A000129601900D928A95E1F71F9282E28F9341
:1009B00082EE92E09F938F930E947013AE014F5F7F
:1009C0005F4F62E28F2DA7D00F900F900F900F9086
:1009D000CE5ADF4F0FB6F894DEBF0FBECDBFDF910A
:1009E000CF911F910F91FF9008951F93CF93DF93A5
:1009F000CDB7DEB7E1970FB6F894DEBF0FBECDBF1F
:100A0000182F82E189831F9281E38F938AE093E01C
:100A10009F938F930E947013AE014F5F5F4F61E30E
:100A2000812F79D00F900F900F900F90E1960FB615
:100A3000F894DEBF0FBECDBFDF91CF911F91089517
:100A40008F929F92AF92BF92CF92DF92EF92FF92DE
:100A50004B015C0169017A0173D7DC01CB01881974
:100A60009909AA09BB0921E08C159D05AE05BF05B2
:100A700008F420E0822FFF90EF90DF90CF90BF909E
:100A8000AF909F908F90089573C10895CF92DF9299
:100A9000EF92FF92CF93DF93EC016A017B01B3D118
:100AA0000CC024EF31E040E050E0C701B601C8DFE0
:100AB000811108C00E94BF10A6D18C179D0788F332
:100AC00081E001C080E0DF91CF91FF90EF90DF9057
:100AD000CF900895FC0190E008C0DB01A90FB11D83
:100AE0002C918081282720839F5F9417B0F308956D
:100AF0000F931F93CF93DF938C01EB0145E0EADF67
:100B0000BE016B5F7F4F4C81C801E4DFDF91CF9165
:100B10001F910F910895FF920F931F93CF93DF932F
:100B2000CDB7DEB7E7970FB6F894DEBF0FBECDBFE7
:100B3000F62E8A018C836D83809100028B838091D5
:100B40000102909102029A8389831FAA81E3FA012C
:100B5000DE01169601900D928A95E1F7BE016F5F56
:100B60007F4FCE01C796C4DF65E0CE01019606D166
:100B70006F2DC80103D161E0CE01C796FFD0E79683
:100B80000FB6F894DEBF0FBECDBFDF91CF911F919E
:100B90000F91FF900895CF93DF93CDB7DEB7EA971B
:100BA0000FB6F894DEBF0FBECDBFCAD6AB01BC01F5
:100BB00082E090E06BDF882309F46EC061E0CE0133
:100BC000019623D1811168C061E0CE0102961DD14A
:100BD000811162C0898190E020910102309102026E
:100BE000A90155278417950709F056C08A8190E01E
:100BF000232F33278217930709F04EC0A1D6AB01EC
:100C0000BC0183E090E042DF882309F445C0809175
:100C10000102909102029C838B8361E0CE010596D4
:100C2000F4D0811139C061E0CE010696EED0811179
:100C300033C061E0CE010796E8D081112DC08F81CD
:100C4000823350F57DD6AB01BC018F8190E00196D7
:100C50001DDF882309F16F81CE010896D6D081115E
:100C60001BC061E0CE01C996D0D0811115C01AAE6B
:100C7000BE016D5F7F4FCE01CA963ADF99AD8AAD56
:100C800098130AC08E818F3F21F090910002891342
:100C900003C0CE01039624DDEA960FB6F894DEBFBA
:100CA0000FBECDBFDF91CF9108950F931F93CF93C8
:100CB0008C01FC012481938182811F922F931F92CA
:100CC0009F931F928F9381818F9380818F937F93C6
:100CD0006F9386E592E09F938F930E9483138DB765
:100CE0009EB70C960FB6F8949EBF0FBE8DBFC0E0A6
:100CF00016C0F8013596EC0FF11D80811F928F937D
:100D00001F92CF938CE392E09F938F930E94831363
:100D1000CF5F0F900F900F900F900F900F90F801F2
:100D20008481C81730F3882349F086E292E09F93CC
:100D30008F930E9483130F900F9008C084E192E07C
:100D40009F938F930E9483130F900F90F80186A9B1
:100D50001F928F938CEA91E09F938F930E9483134D
:100D60000F900F900F900F90CF911F910F910895BA
:100D700089E190E044C508957AC50895EF92FF9205
:100D80001F93CF93DF937C01162FC0E0D0E006C005
:100D9000F701EC0FFD1F8081EFDF2196812F90E09E
:100DA000C817D907ACF3DF91CF911F91FF90EF9057
:100DB0000895CF93DF93EC013DD5292F30E0211525
:100DC00092E03907B9F038F42115310569F02115A1
:100DD0003140A9F012C0211598E0390741F02115E2
:100DE000304159F482E00CC0888380E009C08883D8
:100DF00081E006C0888381E003C08FEF01C084E0FA
:100E0000DF91CF91089547C508956F927F928F9299
:100E10009F92AF92BF92CF92DF92EF92FF920F9389
:100E20001F93CF93DF93CDB7DEB74C01662EEDB69F
:100E3000FEB6E9DF062D10E080179107F0F08DB7C0
:100E40009EB7801B910B0FB6F8949EBF0FBE8DBF4F
:100E500001966C015C01712C07C0C501870D911DC5
:100E6000A8DF81110BC073947614B8F3A801B60102
:100E7000C4010E94581380E001C084E00FB6F894CA
:100E8000FEBE0FBEEDBEDF91CF911F910F91FF907F
:100E9000EF90DF90CF90BF90AF909F908F907F901A
:100EA0006F900895A7D6E2E0F1E0808180648083AE
:100EB00085E08A95F1F7000080818F7B80838FE841
:100EC00091E00197F1F700C00000B3C60895CF93F9
:100ED000C82F90D6C0FF04C084B3806284BB03C017
:100EE00084B38F7D84BBC1FF04C08EB188608EB98E
:100EF00003C08EB1877F8EB9C2FF06C0E2E0F1E089
:100F000080818860808305C0E2E0F1E08081877F96
:100F10008083C3FF06C0E2E0F1E0808180618083CE
:100F200005C0E2E0F1E080818F7E8083BBDF81D667
:100F3000CF9108950F931F93CF93DF93CDB7DEB773
:100F4000AE01485F5F4FDA016D917D91AD0102EA1C
:100F500015E0D8011296ED91FC911397838188607A
:100F6000838383E092E00E94AA13D8011296ED9148
:100F7000FC9113978381877F8383DF91CF911F91AA
:100F80000F910895CF93C82F35D6E2E0F1E080812C
:100F90008F7D80838C2F82958F7099DF8C2F97DFC8
:100FA00085ED8A95F1F7000044D6CF91089522D6B9
:100FB000E1E0F1E08081886780838DB188608DB940
:100FC00083B3806283BB80B3816080BB81B38E7F3B
:100FD00081BB2FEF80E792E0215080409040E1F705
:100FE00000C0000083E073DF8FE19EE40197F1F71A
:100FF00000C0000083E06BDF8FE193E00197F1F721
:1010000000C0000083E063DF8FE193E00197F1F718
:1010100000C0000082E05BDF88E2B4DF8CE0B2DF7A
:1010200081E0B0DF86E0AEDF8FE19EE40197F1F76B
:1010300000C00000FEC50895DDD510922A0581E0AC
:10104000A1DF8FE39FE10197F1F700C00000F1C538
:1010500008958CE097CF089588E094CF0895CF93BA
:10106000DF93D82FC62F823008F0D1E0C3D58C2F64
:1010700090E4D99F800D1124806884DF80E1D89F9F
:10108000C00D1124C0932A05D4D5DF91CF910895C6
:10109000CF93C82FAFD5E2E0F1E0808180628083FA
:1010A0008C2F82958F7013DF8C2F11DF85ED8A9541
:1010B000F1F70000BED5CF91089560E080E0CFCF7A
:1010C000089560E081E0CBCF0895CF93C82F92D5EB
:1010D000CA3031F480912A058071805F80932A059F
:1010E00080912A05803111F4ECDF04C0803211F4C4
:1010F000A3DFE3DF8C2F90E0FC01E458F109E93332
:10110000F105A8F48827EE58FF4F8F4F0C94411338
:10111000CFEE0DC0C5EF0BC0C2EE09C0CFEE07C0C9
:10112000C5EF05C0CFED03C0C4EE01C0C1EE8C2FEA
:10113000AFDF80912A058F5F80932A057AD5CF9102
:101140000895C3DF80E090E008950F931F93CF933D
:10115000DF93EC014FD502C0B8DFE8018E010F5FCD
:101160001F4F88818111F8CF64D5DF91CF911F91F6
:101170000F9108950F931F93CF93DF93EC013AD50E
:1011800002C0A3DFE8018E010F5F1F4FFE018491B3
:101190008111F7CF4ED5DF91CF911F910F91089517
:1011A000CF92DF92EF92FF921F93CF93DF93EC01E8
:1011B000892B19F480E389DF30C01CD510E00F2E95
:1011C000F0E1CF2EF7E2DF2EE12CF12CF02DBE0165
:1011D00080E090E0A70196010E941F13422F50E08B
:1011E0004C9DC0014D9D900D5C9D900D1124C81B20
:1011F000D90B122B19F080E3820F67DFC701B6010C
:101200002AE030E040E050E00E941F1369017A01BB
:10121000232B242B252BD9F60CD5DF91CF911F91B1
:10122000FF90EF90DF90CF900895FC01218592858B
:1012300081E0291380E00895CF93DF93EC01F5DF7F
:10124000882339F08AE293E09F938F934ED40F90D6
:101250000F909985292F30E0FE01E20FF31F808166
:101260002F5F3F4F2930310514F49F5F01C090E09C
:101270009987DF91CF910895FC01228530E02F5F9F
:101280003F4F2930310514F020E030E0FC0141856A
:1012900050E081E02417350709F080E008951F939E
:1012A000CF93DF93EC01162FE7DF882339F08BE42F
:1012B00093E09F938F9319D40F900F902A85822FDC
:1012C00090E0FE01E80FF91F10830196099714F4CE
:1012D0002F5F01C020E02A87DF91CF911F910895F1
:1012E000FC01118612860895FC01218530E032C090
:1012F000DF01A20FB31F5C91561324C018C0B901BF
:101300006F5F7F4F693071051CF0A0E0B0E001C055
:10131000DB01AE0FBF1F5C91DF01A20FB31F5C9317
:10132000693071051CF020E030E001C09B012817F6
:10133000390729F7442311F0415001C048E04287A2
:1013400081E00895C901019620E030E089309105DF
:101350000CF49C014285842F90E02817390741F650
:1013600080E008951F920F920FB60F9211248F9371
:101370009F93AF93BF9380914F0390915003A0919F
:101380005103B09152039058AF4FBF4F80934F031A
:1013900090935003A0935103B0935203BF91AF9128
:1013A0009F918F910F900FBE0F901F901895E1E8BD
:1013B000F0E080818E7F808380818D7F808380813B
:1013C0008B7F808308951092800010928500109288
:1013D000840081E090E09093890080938800EFE69C
:1013E000F0E0808181608083E2CF089503D483E0C0
:1013F00090E09093D5008093D400E0EDF0E0808100
:101400008D7F8083E1EDF0E0808180618083808149
:10141000886080830EC408959091D00095FFFCCF22
:101420008093D60008950F931F93CF93DF938C0181
:10143000E1D3D0E00DC0F801ED0FF11DC491CA3029
:1014400011F48DE0E9DFCC2329F08C2FE5DFDF5F9D
:10145000DF3F89F7EED3DF91CF911F910F91089570
:10146000C5DF81E192E09093A5058093A4050895DE
:10147000CF93C82F8A3011F48DE0CEDF8C2FCCDFD4
:10148000CF910895D0CF0895CF93C82FB3D38C2F89
:10149000EFDFCA3019F48AE693E0F4DFCAD380E0C4
:1014A00090E0CF9108958AE0E3CF08950F931F93C2
:1014B000CF93DF93CDB7DEB79DD388859985E2DFE3
:1014C00002EA15E0D8011296ED91FC911397838101
:1014D00088608383AE01445F5F4F6A857B85129687
:1014E0008D919C9113970E94AA13D8011296ED91A9
:1014F000FC9113978381877F8383D5DF9AD3DF9114
:10150000CF911F910F9108951F920F920FB60F92D6
:1015100011240BB60F922F938F939F93EF93FF930A
:101520008091C0002091C6008C71E0912405EF5F8E
:1015300090912305E91739F0E0932405F0E0E95D87
:10154000FA4F208301C082E090912205892B80937D
:101550002205FF91EF919F918F912F910F900BBEDC
:101560000F900FBE0F901F9018951F920F920FB6FD
:101570000F9211240BB60F928F939F93EF93FF93CB
:101580009091260580912505981761F0E091250539
:10159000EF5FE0932505F0E0E95DFA4F80818093ED
:1015A000C60005C0E1ECF0E080818F7D8083FF9173
:1015B000EF919F918F910F900BBE0F900FBE0F90E8
:1015C0001F9018951F920F920FB60F9211240BB611
:1015D0000F922F938F939F93EF93FF938091C80067
:1015E0002091CE008C71E091DF03EF5F9091DE03DC
:1015F000E91739F0E093DF03F0E0EE51FC4F208370
:1016000001C082E09091DD03892B8093DD03FF917F
:10161000EF919F918F912F910F900BBE0F900FBE66
:101620000F901F9018951F920F920FB60F921124D2
:101630000BB60F928F939F93EF93FF939091E103DB
:101640008091E003981769F0E091E003EF5FEF739A
:10165000E093E003F0E0EE51FB4F80818093CE00F9
:1016600005C0E9ECF0E080818F7D8083FF91EF91F0
:101670009F918F910F900BBE0F900FBE0F901F90F8
:1016800018951F920F920FB60F9211240BB60F925E
:101690002F938F939F93EF93FF938091D00020918E
:1016A000D6008C71E0919A03EF5F90919903E9174E
:1016B00039F0E0939A03F0E0E356FC4F208301C039
:1016C00082E090919803892B80939803FF91EF918A
:1016D0009F918F912F910F900BBE0F900FBE0F9087
:1016E0001F9018951F920F920FB60F9211240BB6F0
:1016F0000F928F939F93EF93FF9390919C03809110
:101700009B03981769F0E0919B03EF5FEF73E09301
:101710009B03F0E0E356FC4F80818093D60005C028
:10172000E1EDF0E080818F7D8083FF91EF919F91CB
:101730008F910F900BBE0F900FBE0F901F901895BA
:101740001F920F920FB60F9211240BB60F922F9388
:101750008F939F93EF93FF938091300120913601F7
:101760008C71E0915503EF5FEF7390915403E9178B
:1017700039F0E0935503F0E0E85AFC4F208301C0B4
:1017800082E090915303892B80935303FF91EF9153
:101790009F918F912F910F900BBE0F900FBE0F90C6
:1017A0001F9018951F920F920FB60F9211240BB62F
:1017B0000F928F939F93EF93FF9390915703809194
:1017C0005603981761F0E0915603EF5FE0935603DC
:1017D000F0E0E856FC4F80818093360105C0E1E3DC
:1017E000F1E080818F7D8083FF91EF919F918F91B8
:1017F0000F900BBE0F900FBE0F901F901895109278
:101800005703109256031092550310925403282F39
:10181000392F33231CF422E02093300190789093E9
:1018200035018093340188E98093310186E080930B
:101830003201089590915503809154039817A1F0B7
:10184000809154038F5F8F73E82FF0E0E85AFC4FCC
:10185000208130915303809354031092530380E00E
:10186000932F820F911D089580E091E008952091BB
:1018700057032F5F909156032917E1F3E22FF0E011
:10188000E856FC4F808320935703E1E3F1E0808129
:101890008062808308952091540330E08091550345
:1018A00090E08217930718F0821B930B089540E491
:1018B00050E0BA01621B730B860F971F08951F92A9
:1018C0000F920FB60F9211248F939F93AF93BF93F4
:1018D00080912B0590912C05A0912D05B0912E059E
:1018E0000196A11DB11D80932B0590932C05A0930B
:1018F0002D05B0932E05BF91AF919F918F910F90C1
:101900000FBE0F901F90189510922B0510922C056A
:1019100010922D0510922E0585B5816085BD85B587
:10192000826085BD85B58B7F85BD84B5826084BDB1
:1019300089EF87BDEEE6F0E08081826080830895C4
:101940000FB607FC18C0A99B16C085B3826085BB83
:1019500080912B0590912C05A0912D05B0912E051D
:101960000196A11DB11D80932B0590932C05A0938A
:101970002D05B0932E058FB7282F221F2227221F57
:10198000F89460912B0570912C0580912D05909114
:101990002E05222309F078940895CF92DF92EF92DA
:1019A000FF920F931F93CF93DF930097D1F0EC0139
:1019B000C7DF6B017C0106C08FE891E00197F1F76A
:1019C00000C00000BDDFDC01CB018C199D09AE0910
:1019D000BF098E0120E030E080179107A207B3070E
:1019E00058F3DF91CF911F910F91FF90EF90DF900F
:1019F000CF900895CF93DF93CDB7DEB79F81288531
:101A00008E8181110CC0AE01475F5F4F5F934F9392
:101A10002F939F936AD00F900F900F900F90DF91AC
:101A2000CF91089521D088E592E0B7DF05DB35D16D
:101A300081E090E00895E0EBF0E0808182608083B7
:101A4000E1EBF0E08081846080838081826080832C
:101A5000808181608083E0E7F0E080818260808324
:101A60008CE38093B30008954FDFE5DFACDC9FDAB1
:101A7000F7DCEFDAE1DA88E494E07CDB82E194E001
:101A800001DD81E094E09F938F9388EF93E09F9333
:101A90008F930CDD83E08F9388EE8F9388EA93E039
:101AA0009F938F938AED93E09F938F9381ED93E0C3
:101AB0009F938F93FBDC8DE993E0E4DC8CE793E06C
:101AC0009F938F9381E028EA35E0283E354008F067
:101AD00080E08F938FDFF4D18DB79EB70F960FB64E
:101AE000F8949EBF0FBE8DBF0895CF93DF93CDB7FF
:101AF000DEB71E810F81F8948FEF91E29EBF8DBFFC
:101B00009BDACE0108969F938F930F931F9312DA5F
:101B1000CE0108969F938F930F931F9383E793E0D3
:101B20009F938F93C3DC0FB6F894DEBF0FBECDBF7B
:101B300090DA9FEF2DE389E4915020408040E1F757
:101B400000C0000089DA9FEF21EE84E09150204030
:101B50008040E1F700C00000EBCFC0E0D0E006C05D
:101B60008EE2B3DA84E690E018DF2196C330D10527
:101B7000BCF362DA84E690E010DFEFCFBC01990F8E
:101B8000880B990B089521E030E002C0220F331F2B
:101B90008A95E2F780917F0590918005282339236B
:101BA00081E0232B09F480E00895803148F4E82F88
:101BB000F0E0EE0FFF1FE15AFA4F80819181089506
:101BC00080E090E0089590E09C01220F331F820F87
:101BD000931F880F991F815D9A4F089590E0880F99
:101BE000991F815A9A4F08958091290508958091EF
:101BF00028050895CF93CFB7CC1FCC27CC1FF894DE
:101C0000809127058F3F41F48AE395E09F938F935E
:101C10006CDF0F900F9003C08F5F80932705E0E784
:101C2000F0E080818D7F8083CC2309F07894CF9180
:101C30000895CF93CFB7CC1FCC27CC1FF8948091B9
:101C40002705811108C080E295E09F938F934DDFB7
:101C50000F900F9003C08150809327058091270536
:101C6000811105C0E0E7F0E0808182608083CC23B1
:101C700009F07894CF91089580E0B0DF2DEA3DE03F
:101C8000FC013183208380917F05909180058160E4
:101C90009093800580937F05089510922905EFE2C7
:101CA000F5E082E08183828193819EBF8DBF0F909A
:101CB0001F902F903F904F905F906F907F908F90EC
:101CC0009F90AF90BF90CF90DF90EF90FF900F91DB
:101CD0001F912F913F914F915F916F917F918F91C4
:101CE0009F91AF91BF91CF91DF91EF91FF91FFBF96
:101CF000FF91189589E594E09F938F93F6DE0F90FE
:101D00000F90089590E027E633E0829FA001839F23
:101D1000500D929F500D11242FE131E2241B350B01
:101D2000FC01EE0FFF1FE80FF91FEE0FFF1FE15D33
:101D3000FA4F42815381241B203178F490E080E0F7
:101D400017C0322F32953F70FA01399FE00DF11D17
:101D50001124308183279F5F02C090E080E09031A2
:101D600080F30895FA01E90FF11D308183279F5F09
:101D70009217C0F30895EF92FF920F931F93CF93A2
:101D8000DF93E82EF62E36DFC0E0D0E00DC0FE0176
:101D9000EE0FFF1FEC0FFD1FEE0FFF1FE15DFA4F6F
:101DA0008181882331F02196C830D10584F3CFEFAB
:101DB000DFEFCF3F8FEFD80781F48EEB94E09F9356
:101DC0008F9380EB94E09F938F9370DB32DF0F90C3
:101DD0000F900F900F901FEF6BC08E01000F111F1F
:101DE0000C0F1D1F000F111F015D1A4FD801EC923F
:101DF00081E011968C9311971496FC92149787E6C4
:101E000093E0C89F9001C99F300DD89F300D1124D9
:101E10008FE191E27C01E21AF30AC7010197139660
:101E20009C938E9312978EEF90E1A8DEF70160836A
:101E3000D8011296ED91FC9113979F012150310921
:101E400013963C932E93129770831296ED91FC910A
:101E500013979F012150310913963C932E931297AB
:101E6000808380E012C0FE01EE0FFF1FEC0FFD1F0C
:101E7000EE0FFF1FE15DFA4FA281B3819D0121505A
:101E80003109338322831C928F5F813260F31C2FD0
:101E90008C2F38DFFE01EE0FFF1FEC0FFD1FEE0F42
:101EA000FF1FE15DFA4F8583A2DE6C2FFED1C1DEFC
:101EB000812FDF91CF911F910F91FF90EF900895A7
:101EC000CF93DF9380E090E00BC0FC01EE0FFF1F8B
:101ED000E80FF91FEE0FFF1FE15DFA4F1182019627
:101EE0008830910594F3C0E0D0E008C08C2F4BDE21
:101EF000882319F062E08C2F3EDF2196C031D10596
:101F0000ACF380912805F9D188EB9BE046DD209168
:101F10005F05309160058AE994E09F938F9381E09B
:101F2000232B09F480E08F9365DD0F900F900F90C5
:101F3000DF91CF9108958F929F92AF92BF92CF92EF
:101F4000DF92EF92FF920F931F93482F50E0FA0118
:101F5000EE0FFF1FE40FF51FEE0FFF1FE15DFA4FBD
:101F6000C280D380E12CF12C9A01A7E6B3E091D393
:101F70000FE111E220E030E0061B170B280B390BB4
:101F80000C151D052E053F0588F008EB1DE120E02E
:101F900030E048015901861A970AA80AB90AC814FC
:101FA000D904EA04FB0420F480E003C080E001C00F
:101FB00081E01F910F91FF90EF90DF90CF90BF9045
:101FC000AF909F908F900895FF93FFB7FF93EF938B
:101FD000DF93CF93BF93AF939F938F937F936F9331
:101FE0005F934F933F932F931F930F93FF92EF9223
:101FF000DF92CF92BF92AF929F928F927F926F9219
:102000005F924F923F922F921F9211240F928091D4
:10201000290590E02DB73EB7FC01EE0FFF1FE80F3A
:10202000F91FEE0FFF1FE15DFA4F338322838FED1F
:1020300091E29EBF8DBF10912905C12FD0E0FE0116
:10204000EE0FFF1FEC0FFD1FEE0FFF1FE15DFA4FBC
:102050008181823059F4FE01EE0FFF1FEC0FFD1F4E
:10206000EE0FFF1FE15DFA4F81E08183812F4ADE91
:102070009E01220F331FC20FD31FCC0FDD1FC15D86
:10208000DA4F8D83812F57DF81110BC01F921F9371
:1020900086EF94E09F938F9328DD0F900F900F9021
:1020A0000F90A5DD882319F0813049F010C06091B0
:1020B00029058FE295E0BFD0809329050AC0609181
:1020C00029058FE295E043D18093290502C0109243
:1020D0002905C09129058C2F90E0FC01EE0FFF1F10
:1020E000E80FF91FEE0FFF1FE15DFA4FD5818C2F2E
:1020F00009DED81759F01F92CF9386ED94E09F9395
:102100008F93F3DC0F900F900F900F908091290523
:1021100090E0FC01EE0FFF1FDF01A80FB91FAA0F0F
:10212000BB1FA15DBA4F22E011962C931197FD01C0
:10213000828193819EBF8DBF0F901F902F903F9003
:102140004F905F906F907F908F909F90AF90BF90D7
:10215000CF90DF90EF90FF900F911F912F913F91C3
:102160004F915F916F917F918F919F91AF91BF91AF
:10217000CF91DF91EF91FF91FFBFFF911895809173
:102180002705811104C0F8941092B2001DCF089564
:10219000CF939FEF980F973060F5282F30E0F9012B
:1021A000EE0FFF1FE20FF31FEE0FFF1FE15DFA4F6F
:1021B0009181992301F1C82F1DDD8C2F04DDFC01D5
:1021C000118215DD6C2F71D00FDDC8130EC081E0B8
:1021D000809327052EDD7894D2DF89E393E09F93E7
:1021E0008F937ED20F900F90F8CF23DDC8DF81E070
:1021F00003C080E001C080E0CF910895F5DCC82FD6
:1022000090E0FC01EE0FFF1FE80FF91FEE0FFF1F1C
:10221000E15DFA4F8081C9DC009711F0FC0119954E
:102220008C2FB6DFACDF89E393E09F938F9358D276
:102230000F900F90F8CFCF93DF93EC01D5DC91E0B6
:10224000980F0FC0292F30E0F901EE0FFF1FE20FAA
:10225000F31FEE0FFF1FEC0FFD1F21812130F9F05E
:102260009F5F983078F391E00FC0292F30E0F9019B
:10227000EE0FFF1FE20FF31FEE0FFF1FEC0FFD1F0E
:102280002181213071F09F5F492F50E0282F30E0ED
:102290002F5F3F4F4217530744F380E003C0892F5D
:1022A00001C0892FDF91CF910895CF93DF938823C9
:1022B00009F1D62FC0E009C02BE0C29FC001112454
:1022C0006D2F8F579A4F10D8CF5FC330A8F38D2F43
:1022D0007ADCFC018181813069F48D2F74DCFC0192
:1022E0008481FBE08F9FC00111246D2F8F579A4F7F
:1022F0000E944F09DF91CF910895CF93882329F150
:10230000C0E009C02BE0C29FC00111248F579A4F33
:102310000E947009CF5FC330A8F3C1E014C08C2FB6
:1023200052DCFC018181813069F48C2F4CDCFC0192
:102330008481FBE08F9FC00111246C2F8F579A4F2F
:102340000E944F09CF5FC83050F3CF910895DF92BC
:10235000EF92FF920F931F93CF93DF93D62EC0E09F
:10236000D0E021C07E012FEFE21AF20A8BE08E9DB1
:1023700080018F9D100D11240F571A4FC8010E9424
:10238000150981110FC0C8010E941C099BE09C9F88
:1023900090019D9F300D1124682FC9018F579A4FCE
:1023A0000E944F09E701C230D105E4F28D2D0BDC0C
:1023B000FC018181813069F48D2D05DCFC01848173
:1023C000FBE08F9FC00111246D2D8F579A4F0E9403
:1023D0004F09C0E0D0E012C08BE08C9F80018D9F40
:1023E000100D11240F571A4FC8010E9415098111B1
:1023F00004C0C8010E941C0905C02196C330D10544
:102400005CF380E0DF91CF911F910F91FF90EF90EF
:10241000DF9008950E942703FDCF81E0DFDB2AE5EE
:1024200032E1FC013183208380917F05909180050A
:1024300082609093800580937F05089582E0CEDBD3
:102440002AE032E1FC013183208380917F05909165
:10245000800584609093800580937F050895CF93D5
:10246000DF93EC010A973CF06EE082E00E942F08B7
:10247000CE010E94D008C930D10579F46EE082E027
:102480000E942F0880E090E00E94D0086FE082E078
:102490000E942F08CE010E94D008CA30D1053CF41A
:1024A0006FE082E00E942F08CE010E94D008DF91E9
:1024B000CF910895CF93DF93CDB7DEB72A970FB6AC
:1024C000F894DEBF0FBECDBF0E941F0384EC95E0E1
:1024D0000E94BA080E94610888EB95E00E94BA0841
:1024E0000FE010E00BC0C801BADF809100020E942B
:1024F0001E0488EE93E051DA0150110910161106FE
:1025000094F30E941C088FEA95E00E94BA080E948A
:10251000610888EA95E00E94BA0861E080910002B3
:102520000E94F2030AE010E007C0C80198DF88EEBD
:1025300093E033DA0150110910161106B4F30E942A
:10254000610880EA95E00E94BA0860E0809100028C
:102550000E94F2030AE010E007C0C80180DF88EEA5
:1025600093E01BDA0150110910161106B4F30E9412
:102570001C0887E995E00E94BA0888EE93E00DDA1E
:102580000E9461086FE373E0809100020E94A10441
:1025900082E390E002DA03E010E007C0C8015FDFE9
:1025A00088EE93E0FAD9015011091123BCF780910C
:1025B00000020E94490480ED97E0EFD90E941C08B8
:1025C0008EE895E00E94BA080E94610881E895E0D3
:1025D0000E94BA0880ED97E0E0D947E061E08FEF14
:1025E0000E9474046EE775E08FEF0E94F50488EB9B
:1025F0009BE0D3D90E941C0882E695E00E94BA08AD
:102600006EE081E00E942F0888EE93E0C6D98AE050
:10261000EFE1F2E0DE01119601900D928A95E1F76B
:102620006AE0CE0101960E94BE0680ED97E0B5D922
:102630000E941C0883E595E00E94BA08FFCFA1E242
:102640001A2EAA1BBB1BFD010DC0AA1FBB1FEE1F2C
:10265000FF1FA217B307E407F50720F0A21BB30B77
:10266000E40BF50B661F771F881F991F1A9469F7F3
:1026700060957095809590959B01AC01BD01CF014F
:102680000895EE0FFF1F881F8BBF0790F691E02D76
:102690001994A29FB001B39FC001A39F700D811D2B
:1026A0001124911DB29F700D811D1124911D08955B
:1026B000FB01DC0102C001900D9241505040D8F75F
:1026C0000895FB01DC014150504048F001900D920B
:1026D0000020C9F701C01D9241505040E0F7089515
:1026E000CF93DF93CDB7DEB7AE014A5F5F4FFA01FC
:1026F00061917191AF018091A4059091A50538D0A9
:10270000DF91CF9108950F931F93CF93DF93CDB7B0
:10271000DEB7AE01485F5F4FDA016D917D91AD018B
:1027200002EA15E0F80182819381DC0113962C9175
:102730001397286013962C931BD0D8011296ED9115
:10274000FC9113972381277F2383DF91CF911F91E2
:102750000F910895CF93DF93EC018B8188608B8379
:10276000CE0106D02B81277F2B83DF91CF91089557
:102770002F923F924F925F926F927F928F929F9291
:10278000AF92BF92CF92DF92EF92FF920F931F937F
:10279000CF93DF93CDB7DEB72B970FB6F894DEBF9C
:1027A0000FBECDBF6C017B018A01FC01178216822E
:1027B000838181FFBFC1CE0101963C01F601938167
:1027C000F70193FD859193FF81917F01882309F49F
:1027D000ADC1853239F493FD859193FF81917F01DD
:1027E000853221F4B60190E0D6D1E8CF912C212C8E
:1027F000312CFFE1F315D8F08B3279F038F48032C8
:1028000079F08332A1F4232D20611DC08D3261F057
:10281000803369F4232D216016C0832D8260382E09
:10282000E32DE4603E2E2AC0F32DF8601DC037FC76
:102830002DC020ED280F2A3040F08E32B9F436FC3E
:1028400075C1232D2064322E19C036FE06C08AE0E1
:10285000989E200D1124922E11C0EAE02E9E200D8C
:102860001124222EF32DF0623F2E08C08C3621F465
:10287000832D8068382E02C0883641F4F70193FD1D
:10288000859193FF81917F018111B3CF982F9F7D17
:102890009554933028F40C5F1F4F9FE399830DC02C
:1028A000833631F0833771F0833509F055C020C08D
:1028B000F801808189830E5F1F4F88248394912CB7
:1028C000530112C02801F2E04F0E511CF801A08004
:1028D000B18036FE03C0692D70E002C06FEF7FEF5C
:1028E000C5014ED14C018201F32DFF773F2E15C05B
:1028F000280122E0420E511CF801A080B18036FE72
:1029000003C0692D70E002C06FEF7FEFC5012DD1CC
:102910004C01F32DF0683F2E820133FC19C0822D4B
:1029200090E088169906A0F4B60180E290E033D1D9
:102930002A94F5CFF50137FC859137FE81915F012F
:10294000B60190E028D121102A9421E0821A910842
:102950008114910479F7E1C0843611F0893639F594
:10296000F80137FE07C060817181828193810C5F1D
:102970001F4F08C060817181072E000C880B990BD6
:102980000E5F1F4FF32DFF763F2E97FF09C09095E6
:102990008095709561957F4F8F4F9F4FF0683F2EC8
:1029A0002AE030E0A30133D1882E861844C0853751
:1029B00031F4232D2F7EB22E2AE030E025C0932D56
:1029C000997FB92E8F36C1F018F4883579F0AEC0F2
:1029D000803719F0883721F0A9C0E92FE061BE2EB9
:1029E000B4FE0DC0FB2DF460BF2E09C034FE0AC03A
:1029F000292F2660B22E06C028E030E005C020E175
:102A000030E002C020E132E0F801B7FE07C060818B
:102A10007181828193810C5F1F4F06C0608171813B
:102A200080E090E00E5F1F4FA301F1D0882E861842
:102A3000FB2DFF773F2E36FE0DC0232D2E7FA22EBD
:102A4000891458F434FE0BC032FC09C0832D8E7EED
:102A5000A82E05C0B82CA32C03C0B82C01C0B92CDB
:102A6000A4FE0FC0FE01E80DF11D8081803321F42A
:102A70009A2D997EA92E09C0A2FE06C0B394B394E4
:102A800004C08A2D867809F0B394A3FC10C0A0FE80
:102A900006C0B21480F4280C922C9B180DC0B214FE
:102AA00058F4B60180E290E076D0B394F8CFB21437
:102AB00018F42B1802C0982C212CA4FE0FC0B601CC
:102AC00080E390E068D0A2FE16C0A1FC03C088E7B6
:102AD00090E002C088E590E0B6010CC08A2D8678AF
:102AE00051F0A1FE02C08BE201C080E2A7FC8DE2A2
:102AF000B60190E050D0891430F4B60180E390E044
:102B00004AD09A94F8CF8A94F301E80DF11D8081A0
:102B1000B60190E040D08110F6CF222009F44ECECD
:102B2000B60180E290E037D02A94F7CFF601868193
:102B3000978102C08FEF9FEF2B960FB6F894DEBF00
:102B40000FBECDBFDF91CF911F910F91FF90EF90FE
:102B5000DF90CF90BF90AF909F908F907F906F90BD
:102B60005F904F903F902F900895FC010590615029
:102B700070400110D8F7809590958E0F9F1F089593
:102B8000FC016150704001900110D8F7809590953C
:102B90008E0F9F1F08950F931F93CF93DF93FB0119
:102BA000238121FD03C08FEF9FEF2CC022FF16C0B1
:102BB00046815781248135814217530744F4A0810F
:102BC000B1819D012F5F3F4F318320838C932681FC
:102BD00037812F5F3F4F3783268314C08B01EC0171
:102BE000FB010084F185E02D1995892BE1F6D801D0
:102BF00016968D919C911797019617969C938E939C
:102C00001697CE01DF91CF911F910F910895FA0190
:102C1000AA27283051F1203181F1E8946F936E7F1B
:102C20006E5F7F4F8F4F9F4FAF4FB1E03ED0B4E00C
:102C30003CD0670F781F891F9A1FA11D680F791F4D
:102C40008A1F911DA11D6A0F711D811D911DA11D5E
:102C500020D009F468943F912AE0269F112430196E
:102C6000305D3193DEF6CF010895462F4770405D09
:102C70004193B3E00FD0C9F7F6CF462F4F70405DB8
:102C80004A3318F0495D31FD4052419302D0A9F713
:102C9000EACFB4E0A6959795879577956795BA950D
:102CA000C9F700976105710508959B01AC010A2ED3
:102CB00006945795479537952795BA95C9F7620FAA
:0E2CC000731F841F951FA01D0895F894FFCF69
:102CCE000C46520000000200000000A108000000A7
:102CDE00000000000200000000440A000000004650
:102CEE005208FF0412024F4BF373657269616C4117
:102CFE006461707465725F70726F63657373467230
:102D0E00616D65007266416461707465725F7365B2
:102D1E006E645365744C6564282920776974682045
:102D2E0073697A653A2025640A007266416461709F
:102D3E007465725F73656E64546F67676C654C651E
:102D4E0064282920776974682073697A653A20258A
:102D5E00640A007266416461707465725F73656EB9
:102D6E00644C6364436C65617228292077697468CA
:102D7E002073697A653A2025640A0072664164619F
:102D8E00707465725F73656E644C6364476F746FC5
:102D9E00282920776974682073697A653A2025643A
:102DAE000A007266416461707465725F73656E6469
:102DBE004C63645072696E74282920776974682098
:102DCE0073697A653A2025640A00726641646170FF
:102DDE007465725F73656E644C63645072696E7471
:102DEE0050726F634D656D28292077697468207362
:102DFE00697A653A2025640A0050656E6973006C25
:0E2E0E0063645F636C656172282920696E0041
:00000001FF
