:10000000D5C5000004C6000002C6000000C60000FE
:10001000FEC50000FCC50000FAC50000F8C50000E0
:10002000F6C50000F4C50000F2C50000F0C50000F0
:10003000EEC500000C94C71FEAC50000E8C500002B
:10004000E6C500000C94A919E2C50000E0C5000057
:10005000DEC500000C94411CDAC50000D8C50000C4
:10006000D6C500000C947B1A0C94AC1AD0C50000C5
:10007000CEC50000CCC50000CAC50000C8C5000040
:10008000C6C50000C4C50000C2C50000C0C5000050
:100090000C94D91A0C940A1BBAC50000B8C500000C
:1000A000B6C50000B4C50000B2C50000B0C5000070
:1000B000AEC50000ACC50000AAC50000A8C5000080
:1000C000A6C50000A4C50000A2C500000C94831BB7
:1000D0000C94B41B9CC500000C94E21B0C94141CE3
:1000E00096C500003E0D9D0E9D0EAB11EA0E3B0F16
:1000F0007910090C57166716791689169B16AA16D9
:10010000BB16CC16FB160B171D172D173F174E17D6
:100110005F177017D218D318D318D318D318D31861
:10012000D318D318D318D318D318D318D318D31877
:10013000D318D318D318D318CA18D318D318D31870
:10014000D318D318CC18D318D318C818D318D31869
:10015000D318D318D218D318D318D318D318D31848
:10016000D318D318D318D318D318D318CE18D3183C
:10017000D318D318D318D018C418D318D318D31839
:10018000D318D318C6186E616E00696E6600004001
:100190007A10F35A00A0724E18090010A5D4E80096
:1001A00000E87648170000E40B54020000CA9A3BAE
:1001B000000000E1F5050000809698000000404234
:1001C0000F000000A08601000000102700000000C2
:1001D000E803000000006400000000000A000000C6
:1001E00000000100000000002C76D888DC674F0872
:1001F00023DFC1DFAE59E1B1B796E5E3E453C63A78
:10020000E651997696E8E6C28426EB898C9B62EDEE
:10021000407C6FFCEFBC9C9F40F2BAA56FA5F490A8
:10022000055A2AF75C936B6CF9676DC11BFCE0E41F
:100230000D47FEF520E6B500D0ED902E0300943575
:1002400077050080841E080000204E0A000000C8C8
:100250000C333333330F986E12831141EF8D211419
:10026000893BE65516CFFEE6DB18D1844B381BF7E9
:100270007C1D901DA4BBE424203284725E22810088
:10028000C9F124ECA1E53D27726641646170746593
:10029000725F7265636569766553656E736F7244EC
:1002A00061746128292069676E6F72656420256416
:1002B0002056616C7565206F6620756E6B6E6F776A
:1002C0006E2053656E736F720A0A0A0A00726641E5
:1002D0006461707465725F726563656976655365A4
:1002E0006E736F724461746128292069676E6F7242
:1002F00065642025642056616C7565206F66204A10
:10030000616E6E69636B2053656E736F720A0A0AC1
:100310000A007266416461707465725F726563653C
:1003200069766553656E736F724461746128292024
:1003300069676E6F7265642025642056616C75650F
:10034000206F66204E696B6C61732053656E736F0E
:10035000720A0A0A0A007266416461707465725F0B
:100360007265636569766553656E736F7244617417
:100370006128292069676E6F7265642025642056A4
:10038000616C7565206F66205269636861726420D4
:1003900053656E736F720A0A0A0A007266416461DD
:1003A000707465725F7265636569766553656E73B7
:1003B0006F724461746128292069676E6F72656489
:1003C0002025642056616C7565206F662041646944
:1003D0006C2053656E736F720A0A0A0A00726641D6
:1003E0006461707465725F72656365697665536593
:1003F0006E736F724461746128292069676E6F7231
:1004000065642025642056616C7565206F66204206
:100410004F4C2053656E736F720A0A0A0A0A0A006B
:1004200000496E76616C6964206C656E6774682043
:10043000666F7220434D445F53454E534F525F44A5
:100440004154412E204C656E67746820772F6F20D1
:10045000636F6D6D616E6420697320256420696E21
:100460007374656164206F662025640A0A0A0A0AAB
:100470000A005072696E74696E6720746F204C4375
:10048000443A2025730A00496E76616C6964206CD9
:10049000656E67746820666F7220434D445F4C43FD
:1004A000445F5052494E542E204C656E677468204C
:1004B0006F66206578706563746564205374726933
:1004C0006E67206973206E6F7420657175616C2092
:1004D000746F206C656E67746820646573637269FD
:1004E00062656420696E20636D645F6C6364507242
:1004F000696E745F74206F626A6563740A00496E86
:1005000076616C6964206C656E67746820666F72D2
:1005100020434D445F4C43445F5052494E542E207B
:100520004C656E67746820772F6F20636F6D6D6107
:100530006E6420697320256420696E73746561643C
:10054000206F662025640A00476F746F204C434477
:100550003A2025642C2025640A00496E76616C6976
:1005600064206C656E67746820666F7220434D442A
:100570005F4C43445F474F544F2E204C656E677469
:100580006820772F6F20636F6D6D616E64206973D3
:1005900020256420696E7374656164206F66202570
:1005A000640A0044617461206973206E6F74205383
:1005B00074617274466C616720322E0A0044617463
:1005C00061206973206E6F74205374617274466C7D
:1005D000616720312E0A000053656E736F7220250B
:1005E0006420776173206E6F742079657420616474
:1005F00064656420746F20746865204755490A005B
:100600000073656E736F725F6775695F656C656DAA
:10061000656E74735B25645D20776173207570640B
:10062000617465640A0A000073656E736F725F67B8
:1006300075695F656C656D656E74735B25645D20BF
:100640007761732074696D65646F75740A0A0000C0
:100650006775695F776F726B6572282920737461A3
:1006600072746564000041727261792072657175FF
:100670006972657320256420627974657300005384
:100680005441434B5F53495A455F50524F433A20C0
:10069000256400436C656172696E672044697370FC
:1006A0006C61790A005B5741524E5D2020007570E5
:1006B000646174655F6775695F656C656D656E74AF
:1006C00028292054454D5020537472696E67206C60
:1006D000656E677468206F7574206F6620626F7531
:1006E0006E6473005B5741524E5D2020007570644C
:1006F0006174655F6775695F656C656D656E7428AB
:100700002920756E6B6E6F776E2075695F737461EB
:100710007465005B5741524E5D2020007570646126
:1007200074655F6775695F656C656D656E742829B2
:1007300020756E6B6E6F776E2075695F7374617470
:1007400065005B5741524E5D2020007570646174F6
:10075000655F6775695F656C656D656E74282920D6
:10076000756E6B6E6F776E2075695F7374617465FB
:10077000005B5741524E5D202000757064617465C6
:100780005F6775695F656C656D656E742829207596
:100790006E6B6E6F776E2075695F73746174650040
:1007A0005B5741524E5D2020007570646174655F37
:1007B0006775695F656C656D656E74282920756E57
:1007C0006B6E6F776E2075695F7374617465005B23
:1007D0005741524E5D2020007570646174655F67FB
:1007E00075695F656C656D656E74282920756E6B23
:1007F0006E6F776E2075695F7374617465005B5707
:1008000041524E5D2020007570646174655F6775AC
:10081000695F656C656D656E7428292054454D507F
:1008200020537472696E67206C656E677468206F00
:100830007574206F6620626F756E6473005B57413C
:10084000524E5D2020002121206164645F6775693C
:100850005F656C656D656E74282920686164206E23
:100860006F20737061636520696E2074686520670E
:10087000726964202121005B494E464F5D202000B3
:100880006164645F6775695F656C656D656E74282A
:100890002920616464656420656C656D656E7420F3
:1008A000617420726F773A2025642C20636F6C7519
:1008B0006D6E3A202564005B5741524E5D2020004A
:1008C0006164645F6775695F656C656D656E7428EA
:1008D000292072656365697665642073656E736F40
:1008E000725F6775695F656C656D656E74735F6374
:1008F0006F756E74203E3D20234755495F454C453A
:100900004D454E545F434F4E5441494E45525F53FF
:10091000495A4500656E71756575655F73656E73DF
:100920006F725F646174615F696E746F5F62756638
:10093000666572282920776F756C64206F76657202
:10094000666C6F77206275666665720A0A000071D0
:10095000756575655F7075736828292068656164C1
:100960003A2025642C207461696C3A2025642C207F
:10097000636F756E743A2025640043616E2774209E
:10098000706F702066726F6D20656D707479207263
:10099000656164792071756575650043616E2774C2
:1009A0002070757368206F6E2066756C6C207265A0
:1009B00061647920717565756500202020202020F4
:1009C0002020005B4552524F525D2000205374613D
:1009D000636B20636F6C6C696465732077697468FE
:1009E00020676C6F62616C2076617273002D2D2D13
:1009F0002D2D2D2D2D2D2D2D2D2D2D2D2D2D2D2D27
:100A00002D2D2D2D2D2D2D2D2D2D2D2D2D2D2D2D16
:100A10002D2D2D2D2D2D2D2D2D2D2D2D2D2D2D0A29
:100A2000005B494E464F5D2020005573656420678A
:100A30006C6F62616C20766172733A2025642F2599
:100A400064206279746573005B494E464F5D2020D7
:100A500000426F6F74696E672044454F53202E2EFD
:100A60002E000A0A232323232323232323232323A0
:100A70002323232323232323232323232323232346
:100A80002323232323232323232323232323232336
:100A90002323232323230A00426F6F74696E672088
:100AA00044454F53202E2E2E006F735F7374617276
:100AB000745363686564756C657228292074657267
:100AC0006D696E6174656420616761696E7374201D
:100AD000616C6C206F646473202D20736361727984
:100AE0002073747566662E2E2E005468657265201C
:100AF0006973206E6F2069646C652070726F63008B
:100B00006F735F657865632829202D3E20004E6F46
:100B1000206672656520736C6F7420617661696C04
:100B200061626C650A00436865636B73756D206D67
:100B300069736D6174636820696E2070726F63659C
:100B4000737320256400537461636B20706F696E4A
:100B5000746572206F7574206F6620626F756E64A5
:100B60007320696E2070726F636573732025640053
:100B7000437269742E2053656374696F6E20202060
:100B8000756E646572666C6F7700437269742E20AF
:100B900053656374696F6E2020206F766572666C92
:100BA0006F7700001E1E83229422A52211241FBEEF
:100BB000CFEFD1E2DEBFCDBF00E00CBF13E0A0E07D
:100BC000B2E0E2E8F9E500E00BBF02C007900D9249
:100BD000A233B107D9F726E0A2E3B3E001C01D922A
:100BE000A631B207E1F715E0C6EDD5E000E006C09A
:100BF00021970109802FFE010E945D2AC23DD10785
:100C000080E00807A9F70E94F41C0C94BF2CF8C9D7
:100C1000E5D184B1806884B981E08093320308957E
:100C200024C20895FC0191819B3001F138F4993080
:100C300009F455C09A3009F43FC064C09C3019F0E3
:100C40009E3039F15FC08281853019F4CF01FCC23A
:100C500008951F928F938DED93E09F938F930E9441
:100C6000CE2B0F900F900F900F90089582818230BD
:100C700019F4CF01E9C208951F928F938BE993E095
:100C80009F938F930E94CE2B0F900F900F900F90F9
:100C900008958281883019F4CF01D6C208951F9239
:100CA0008F9386E593E09F938F930E94CE2B0F90B6
:100CB0000F900F900F9008958281873019F4CF0123
:100CC000C3C208951F928F9382E193E09F938F9305
:100CD0000E94CE2B0F900F900F900F90089582815D
:100CE000813019F4CF01B0C208951F928F938DEC1B
:100CF00092E09F938F930E94CE2B0F900F900F90B6
:100D00000F90089582811F928F9388E892E09F93BD
:100D10008F930E94CE2B0F900F900F900F900895FD
:100D2000FC018081882321F085B1806885B9089510
:100D300085B18F7785B9089585B1805885B90895B3
:100D40000C9458180895FC01618180810C946B18F3
:100D500008950F931F93CF93DF93CDB7DEB7A1977D
:100D60000FB6F894DEBF0FBECDBFFC01408141320B
:100D7000B0F48C01BC016F5F7F4F50E0CE01019653
:100D80000E946B2BF8018081E1E0F0E0EC0FFD1F89
:100D9000E80FF11D1082CE0101960E94E118A19684
:100DA0000FB6F894DEBF0FBECDBFDF91CF911F917C
:100DB0000F910895EF92FF920F931F93CF93DF93BC
:100DC000CDB7DEB761970FB6F894DEBF0FBECDBFCB
:100DD000FC0124813FEF320F313308F0CDC08C018C
:100DE00095819031D1F028F4913059F0923081F012
:100DF000C3C0923109F443C0A8F0903209F485C011
:100E0000BBC0223009F0B8C0CF01069689DFB4C05C
:100E1000213009F0B1C090DFAFC0213009F0ACC083
:100E20008FDFAAC02330A9F01F9282E08F9330E0B9
:100E3000215031093F932F938AE595E09F938F933B
:100E40000E94CE2B0F900F900F900F900F900F904D
:100E500093C0978186811F929F931F928F9388E4FE
:100E600095E09F938F930E94CE2BC80106966BDF6F
:100E70000F900F900F900F900F900F907DC030E06B
:100E8000C90101978232910590F01F9221E22F93C0
:100E90009F938F938EEF94E09F938F930E94CE2B1E
:100EA0000F900F900F900F900F900F9065C046819C
:100EB00050E0225031094217530791F01F9221E26E
:100EC0002F939F938F9387E894E09F938F930E9433
:100ED000CE2B0F900F900F900F900F900F904CC053
:100EE0007F01F6E0EF0EF11CC80107969F938F93E8
:100EF00082E794E09F938F930E94CE2BC70129DF56
:100F00000F900F900F900F9037C03630A9F01F92BE
:100F100086E08F931F923F9381E294E09F938F939B
:100F200080E294E09F938F930E944D1A0FB6F8943D
:100F3000DEBF0FBECDBF20C086E03696DE011C9618
:100F400001900D928A95E1F7F801828189838C8561
:100F50008A838D858B838E859F85A889B9898C83AB
:100F60009D83AE83BF830E94821C688779878A87AE
:100F70009B87CE01019656DE61960FB6F894DEBFD0
:100F80000FBECDBFDF91CF911F910F91FF90EF90DA
:100F900008958F929F92AF92BF92CF92DF92EF927D
:100FA000FF924B015C0169017A010E94821CDC0105
:100FB000CB0188199909AA09BB0921E08C159D0567
:100FC000AE05BF0508F420E0822FFF90EF90DF9080
:100FD000CF90BF90AF909F908F900895E3C00895F9
:100FE000CF92DF92EF92FF92CF93DF93EC016A01F1
:100FF0007B0108D10CC024EF31E040E050E0C70194
:10100000B601C7DF811108C00E94A220FBD08C1757
:101010009D0788F381E001C080E0DF91CF91FF90D0
:10102000EF90DF90CF900895FC0190E008C0DB01C5
:10103000A90FB11D2C918081282720839F5F9417D1
:10104000B0F308950F931F93CF93DF938C01EB01BF
:1010500045E0EADFBE016B5F7F4F4C81C801E4DFF2
:10106000DF91CF911F910F910895CF93DF93CDB76B
:10107000DEB7EA970FB6F894DEBF0FBECDBF0E9471
:10108000821CAB01BC0182E090E0AADF882309F456
:1010900080C061E0CE010196B8D081117AC029816B
:1010A00030E08091010290910202992728173907B8
:1010B00049F08DEB95E09F938F930E94CE2B0F907C
:1010C0000F9067C061E0CE0102969FD0811161C090
:1010D0002A8130E08091020290E02817390749F018
:1010E00083EA95E09F938F930E94CE2B0F900F90F1
:1010F00050C00E94821CAB01BC0183E090E070DF15
:10110000882309F446C080910102909102029C83D9
:101110008B8361E0CE01059678D081113AC061E001
:10112000CE01069672D0811134C061E0CE010796DF
:101130006CD081112EC08F81823358F50E94821CA1
:10114000AB01BC018F8190E001964ADF882309F151
:101150006F81CE01089659D081111BC061E0CE018C
:10116000C99653D0811115C01AAEBE016D5F7F4F75
:10117000CE01CA9667DF99AD8AAD98130AC08E81F9
:101180008F3F21F090910002891303C0CE01039696
:1011900011DEEA960FB6F894DEBF0FBECDBFDF9129
:1011A000CF91089589E190E00C94381B0895CF9376
:1011B000DF93EC010E94531B292F30E0211592E0B0
:1011C0003907B9F038F42115310569F0211531409E
:1011D000A9F012C0211598E0390741F021153041DE
:1011E00059F482E00CC0888380E009C0888381E0E4
:1011F00006C0888381E003C08FEF01C084E0DF91E7
:10120000CF9108950C946F1B08950F931F93CF9364
:10121000DF938C01D62FF6DF2D2F30E08217930756
:1012200068F0C0E007C0C8018C0F911DC0DF8111BC
:1012300006C0CF5FCD17B8F380E001C084E0DF9136
:10124000CF911F910F910895CF93DF93EC010E94EE
:10125000DC1D80E090E02FC02BE0289FF001299F4B
:10126000F00D1124E65DFA4F30812881321322C03F
:101270002BE0289FF001299FF00D1124E65DFA4F25
:1012800031812981321316C02BE0289FF001299F5C
:10129000F00D1124E65DFA4F32812A8132130AC023
:1012A000DF018BE0FE0101900D928A95E1F70E942B
:1012B000FB1D2BC0019620914703309148038217F4
:1012C000930754F22A30310559F40E94FB1D84E142
:1012D00099E09F938F930E94CE2B0F900F9015C093
:1012E0008BE0829FD001839FB00D1124A65DBA4F81
:1012F000FE0101900D928A95E1F72F5F3F4F3093E9
:101300004803209347030E94FB1DDF91CF9108956E
:101310000F931F93CF93DF93EC018B01BC01635CB0
:101320007F4F4981C8010E944616882361F0F80169
:1013300080819181A281B381FE01FD96808391839A
:10134000A283B38315C04981BE016F5B7F4FC80183
:101350000E94EA16882361F0F80180819181A281C0
:10136000B381FE01EF5BFF4F80839183A283B38340
:10137000F8014081518162817381CE0103960E9400
:10138000D015DF91CF911F910F9108957F928F9289
:101390009F92AF92BF92CF92DF92EF92FF920F9304
:1013A0001F93CF93DF93CDB7DEB7C158D1090FB6E6
:1013B000F894DEBF0FBECDBF4C016B015A010E94F5
:1013C000DC1DF6018081863009F0CDC00E94FB1D36
:1013D00080EC98E09F938F9387EB98E09F938F9397
:1013E0000E944D1A0F900F900F900F9080E0D2C086
:1013F000F701EE0FFF1FEE0DFF1DE75BFC4FE00F47
:10140000F11F80818111A2C0F701EE0FFF1FEE0DC9
:10141000FF1DE75BFC4FE00FF11F77247394708290
:10142000F5018081898382818A8381818B83CE01CA
:1014300004960E941616F5014381548165817681D8
:10144000CE0104960E94D0150E94821C6AAF7BAF29
:101450008CAF9DAF22961CAE1DAE1EAE1FAE229766
:1014600026961CAE1DAE1EAE1FAE26972896FFAE6A
:10147000EEAE28972A961FAF0EAF2A972C96FFAE96
:10148000EEAE2C972E961FAF0EAF2E972F967FAEF7
:101490002F9760961FAE6097F6018081D401FFE41C
:1014A0008F9FA00DB11D11248FE4FE013196019094
:1014B0000D928A95E1F7F60180818F5F80831F93FB
:1014C0000F93FF92EF9280E898E09F938F9387E7C6
:1014D00098E09F938F930E944D1A0E94FB1D9B8161
:1014E00089811F929F931F928F9380E292E09F9336
:1014F0008F938E01005B1F4F1F930F930E94252C2B
:1015000028968EAD9FAD289721E7289FB001299F8F
:10151000700D11242A962EAD3FAD2A9748E9429FBF
:10152000C001439F900D11246E5D7F4FA8010F965F
:101530000E94EE2382E3F80111928A95E9F70FB633
:10154000F894DEBF0FBECDBF81E024C00F5F1F4FF8
:1015500002C000E010E0033011050CF449CF9FEF0A
:10156000E91AF90A02C0E12CF12CE2E0EE16F104CE
:1015700084F30E94FB1D86E498E09F938F938DE394
:1015800098E09F938F930E944D1A0F900F900F90A9
:101590000F9080E0CF57DF4F0FB6F894DEBF0FBE3D
:1015A000CDBFDF91CF911F910F91FF90EF90DF9012
:1015B000CF90BF90AF909F908F907F900895CF92E3
:1015C000DF92EF92FF920F931F93CF93DF937C01F3
:1015D0008B01EA0169010E94CC249801AE01B80197
:1015E000C7010E94CC249601AE01B601C7010E943A
:1015F000CC249601A701B801CE010E94CC24DF9132
:10160000CF911F910F91FF90EF90DF90CF900895B1
:101610004F925F926F927F928F929F92AF92BF9202
:10162000CF92DF92EF92FF920F931F93CF93DF93AE
:10163000CDB7DEB7EB970FB6F894DEBF0FBECDBFC8
:101640008C01611125C0FC01EB5BFF4F8081918112
:1016500021E7289FB001299F700D11249B012E5B6B
:101660003F4F3696408151814F5F5F4FE8E9E49FDD
:10167000C001E59F900D1124AC01445051096A5CF2
:101680007F4F0A979CDF88E392E00E94F52B2CC7DE
:10169000FC01E25BFF4F10820E94821CD801D996A8
:1016A0006D937D938D939C93DC97F801E75BFF4FDF
:1016B000808191810196F1E7F89F9001F99F300DAB
:1016C0001124A55BBF4F8D919C9111970196E8E97C
:1016D000E89FA001E99F500D112416978D919C91D0
:1016E0001197F89FB001F99F700D112412960D907B
:1016F000BC91A02DEA9FC001EB9F900D11242A5EA2
:101700003F4F455F5F4F6A5C7F4F0C960E947D257F
:10171000BE016F5F7F4FC80103960E941E168111A4
:1017200067C087E098E09F938F938EEF97E09F9339
:101730008F930E944D1A82E00E940C25DE01D796FD
:1017400085E0FD0111928A95E9F7FD0101900020E5
:10175000E9F7319785E492E59183808382E590E013
:1017600093838283F801E75BFF4F8081918101962B
:101770000F2EF1E7FF2EF02DF89E9001F99E300D0F
:101780001124C801855B9F4FFC01808191810196E6
:101790000F2EF8E9EF2EF02DE89EA001E99E500DE6
:1017A0001124C8018B5B9F4FFC0180819181F89EC1
:1017B000B001F99E700D1124095B1F4FF8010081E3
:1017C0001181E09EC001E19E900D11242A5E3F4FE1
:1017D00044505109695B7F4F8D014B960E94F12364
:1017E00081E00E940C250F900F900F900F907CC607
:1017F000D8011196EC918E2F90E0FC013197E830E2
:10180000F10508F0A8C58827EE58FF4F8F4F0C94BC
:101810005D2AF801E35BFF4F8081813021F0823047
:1018200009F49CC51CC189819A819F938F9384E69A
:1018300092E09F938F93CE0105969F938F930E9482
:10184000252C89819A81AB81BC810F900F900F90DC
:101850000F900F900F908937E5E09E07A105B10525
:1018600020F084E00E9426250CC0893E9340A1050B
:10187000B10520F085E00E94262503C088E00E9483
:101880002625380129E4620E711CD3018D919C91AB
:1018900001960F2EF1E7EF2EF02DE89E9001E99EC4
:1018A000300D11244801BBE48B0E911CF4018081A2
:1018B000918101960F2EF8E9FF2EF02DF89EA001E0
:1018C000F99E500D11245801F5E4AF0EB11CD5015D
:1018D0008D919C91E89EF001E99EF00D1124680124
:1018E000B7E4CB0ED11CD6016D917C91F69EC00160
:1018F000F79E900D1124295E3F4F485F5F4FBF0157
:10190000685B7F4F0F960E94A724F301808191812D
:101910000196E89E9001E99E300D1124D4018D912D
:101920009C910196F89EA001F99E500D1124F5019D
:1019300080819181E89EF001E99EF00D1124D6018D
:101940006D917C91F69EC001F79E900D1124285E4A
:101950003F4F495F5F4FBF01675B7F4F40960E94DB
:10196000A724F301808191810196E89E9001E99E70
:10197000300D1124D4018D919C910196F89EA00107
:10198000F99E500D1124F50180819181E89EF001AE
:10199000E99EF00D1124D6016D917C91F69EC00157
:1019A000F79E900D1124275E3F4F4A5F5F4FBF01A6
:1019B000665B7F4F41960E94A724F301808191814D
:1019C0000196E89E9001E99E300D1124D4018D917D
:1019D0009C910196F89EA001F99E500D1124F501ED
:1019E00080819181E89EB001E99E700D1124D6019D
:1019F000ED91FC91FE9EC001FF9E900D1124265E8C
:101A00003F4F4B5F5F4F655B7F4F42960E94A7241D
:101A100082E00E942625FE013596DF010D90002010
:101A2000E9F7119780E290E08D939C93DF010D9090
:101A30000020E9F7119780E590E511969C938E932D
:101A40008DE490E013969C938E931297DF010D9096
:101A50000020E9F711977D01EE1AFF0A90C488ED86
:101A600097E09F938F938FEC97E09F938F930E94C3
:101A70004D1A0F900F900F900F9036C5F801E35B51
:101A8000FF4F8081813021F0823009F46AC446C161
:101A900089819A812B813C813F932F939F938F93D0
:101AA00087E692E09F938F93CE0105969F938F9345
:101AB0000E94252CC980DA80EB80FC800FB6F89458
:101AC000DEBF0FBECDBF20E030E040EF51E4C701E4
:101AD000B6010E94E725882324F084E00E94262591
:101AE0002DC020E030E048EC51E4C701B6010E946F
:101AF000E725882324F085E00E9426251FC020E0EA
:101B000030E040E851E4C701B6010E9482258823F5
:101B100024F486E00E94262511C020E030E040E455
:101B200051E4C701B6010E948225882324F487E08E
:101B30000E94262503C088E00E9426253801F9E48A
:101B40006F0E711CD3018D919C9101960F2EF1E7C0
:101B5000EF2EF02DE89E9001E99E300D11244801F2
:101B6000BBE48B0E911CF4018081918101960F2EB4
:101B7000F8E9FF2EF02DF89EA001F99E500D1124DA
:101B80005801F5E4AF0EB11CD5018D919C91E89EF2
:101B9000F001E99EF00D11246801B7E4CB0ED11CD1
:101BA000D6016D917C91F69EC001F79E900D112497
:101BB000295E3F4F485F5F4FBF01685B7F4F0F96C5
:101BC0000E94A724F301808191810196E89E9001F3
:101BD000E99E300D1124D4018D919C910196F89EBF
:101BE000A001F99E500D1124F50180819181E89E9C
:101BF000F001E99EF00D1124D6016D917C91F69EC5
:101C0000C001F79E900D1124285E3F4F495F5F4F42
:101C1000BF01675B7F4F40960E94A724F30180813C
:101C200091810196E89E9001E99E300D1124D40126
:101C30008D919C910196F89EA001F99E500D112462
:101C4000F50180819181E89EF001E99EF00D11245B
:101C5000D6016D917C91F69EC001F79E900D1124E6
:101C6000275E3F4F4A5F5F4FBF01665B7F4F4196E4
:101C70000E94A724F301808191810196E89E900142
:101C8000E99E300D1124D4018D919C910196F89E0E
:101C9000A001F99E500D1124F50180819181E89EEB
:101CA000B001E99E700D1124D601ED91FC91FE9ECC
:101CB000C001FF9E900D1124265E3F4F4B5F5F4F8A
:101CC000655B7F4F42960E94A72482E00E942625F2
:101CD000FE013596DF010D900020E9F7119780E2B3
:101CE00090E08D939C93DF010D900020E9F7119710
:101CF0008AE290E08D939C93DF010D900020E9F73C
:101D0000119783E490E08D939C93DF010D90002068
:101D1000E9F711977D01EE1AFF0A31C389EA97E0CE
:101D20009F938F9380EA97E09F938F930E944D1A21
:101D30000F900F900F900F90D7C3F801E35BFF4F08
:101D40008081813021F0823009F40EC334C0898152
:101D50009A812B813C813F932F939F938F9387E6AA
:101D600092E09F938F936E01B5E0CB0ED11CDF9272
:101D7000CF920E94252CF60101900020E9F73197BF
:101D800080E290E091838083F60101900020E9F7E2
:101D9000319785E290E091838083F60101900020E5
:101DA000E9F731977F01EC18FD080FB6F894DEBF14
:101DB0000FBECDBFE4C28AE797E09F938F9381E780
:101DC00097E09F938F930E944D1A0F900F900F9062
:101DD0000F908AC3F801E35BFF4F8081813021F0CF
:101DE000823009F4C4C238C089819A812B813C8138
:101DF0003F932F939F938F9387E692E09F938F93C8
:101E00006E01F5E0CF0ED11CDF92CF920E94252CFF
:101E1000F60101900020E9F7319780E290E091838C
:101E20008083F60101900020E9F7319788E690E57C
:101E30009183808381E690E093838283F601019011
:101E40000020E9F731977F01EC18FD080FB6F894F0
:101E5000DEBF0FBECDBF93C28BE497E09F938F93FD
:101E600082E497E09F938F930E944D1A0F900F90FA
:101E70000F900F9039C3F801E35BFF4F80818130F1
:101E800021F0823009F476C225C189819A812B81A3
:101E90003C813F932F939F938F9387E692E09F938C
:101EA0008F936E0195E0C90ED11CDF92CF920E94F4
:101EB000252CF60101900020E9F7319780E290E0AF
:101EC00091838083F60101900020E9F7319780E546
:101ED00090E5918380838DE490E093838283F60183
:101EE00001900020E9F731977F01EC18FD08898007
:101EF0009A80AB80BC800FB6F894DEBF0FBECDBF1A
:101F000020E030E04AEF54E4C501B4010E94E72527
:101F1000181624F484E00E94262511C020E030E841
:101F20004BEB54E4C501B4010E94E725181624F4D4
:101F300085E00E94262503C088E00E9426254801EE
:101F4000B9E48B0E911CF4018081918101960F2ED2
:101F5000F1E74F2EF02D489E9001499E300D11243F
:101F60005801FBE4AF0EB11CD5018D919C910196F7
:101F70000F2EF8E95F2EF02D589EA001599E500DAE
:101F800011246801B5E4CB0ED11CF601808191814A
:101F9000489EF001499EF00D1124380187E4680E37
:101FA000711CD3016D917C91569EC001579E900D7E
:101FB0001124295E3F4F485F5F4FBF01685B7F4F31
:101FC0000F960E94A724F401808191810196489E7A
:101FD0009001499E300D1124D5018D919C9101965F
:101FE000589EA001599E500D1124F60180819181C7
:101FF000489EF001499EF00D1124D3016D917C9112
:10200000569EC001579E900D1124285E3F4F495F98
:102010005F4FBF01675B7F4F40960E94A724F4018A
:10202000808191810196489E9001499E300D112436
:10203000D5018D919C910196589EA001599E500DFD
:102040001124F60180819181489EF001499EF00D96
:102050001124D3016D917C91569EC001579E900D25
:102060001124275E3F4F4A5F5F4FBF01665B7F4F82
:1020700041960E94A724F401808191810196489E97
:102080009001499E300D1124D5018D919C910196AE
:10209000589EA001599E500D1124F6018081918116
:1020A000489EB001499E700D1124D301ED91FC9121
:1020B0005E9EC0015F9E900D1124265E3F4F4B5FD8
:1020C0005F4F655B7F4F42960E94A72482E00E948B
:1020D000262555C18CE197E09F938F9383E197E08C
:1020E0009F938F930E944D1A0F900F900F900F9017
:1020F000FBC1F801E35BFF4F8081813021F082302A
:1021000009F43BC119C189819A819F938F9384E619
:1021100092E09F938F936E01B5E0CB0ED11CDF92BE
:10212000CF920E94252CF60101900020E9F731970B
:1021300080E290E091838083F60101900020E9F72E
:10214000319780E590E59183808382E490E09383EA
:102150008283F60101900020E9F731977F01EC18A6
:10216000FD0889819A81AB81BC810F900F900F90FF
:102170000F900F900F90813BE4E09E07A105B10501
:1021800020F084E00E9426250CC087329240A105F1
:10219000B10520F085E00E94262503C088E00E945A
:1021A0002625480129E4820E911CD4018D919C9131
:1021B00001960F2EF1E74F2EF02D489E9001499E7B
:1021C000300D11245801BBE4AB0EB11CF501808128
:1021D000918101960F2EF8E95F2EF02D589EA001F7
:1021E000599E500D11246801F5E4CF0ED11CD60183
:1021F0008D919C91489EF001499EF00D112438016B
:10220000B7E46B0E711CD3016D917C91569EC00199
:10221000579E900D1124295E3F4F485F5F4FBF01CD
:10222000685B7F4F0F960E94A724F4018081918103
:102230000196489E9001499E300D1124D5018D9143
:102240009C910196589EA001599E500D1124F601B3
:1022500080819181489EF001499EF00D1124D301A7
:102260006D917C91569EC001579E900D1124285E61
:102270003F4F495F5F4FBF01675B7F4F40960E94B2
:10228000A724F401808191810196489E9001499E86
:10229000300D1124D5018D919C910196589EA0017D
:1022A000599E500D1124F60180819181489EF001C4
:1022B000499EF00D1124D3016D917C91569EC00171
:1022C000579E900D1124275E3F4F4A5F5F4FBF011D
:1022D000665B7F4F41960E94A724F4018081918123
:1022E0000196489E9001499E300D1124D5018D9193
:1022F0009C910196589EA001599E500D1124F60103
:1023000080819181489EB001499E700D1124D301B6
:10231000ED91FC915E9EC0015F9E900D1124265EA2
:102320003F4F4B5F5F4F655B7F4F42960E94A724F4
:1023300082E00E94262523C08DEE96E09F938F9326
:1023400084EE96E09F938F930E944D1A0F900F900A
:102350000F900F90C9C0E12CF12C11C0E12CF12C91
:102360000EC0E12CF12C0BC0E12CF12C08C0E12CAB
:10237000F12C05C0E12CF12C02C0E12CF12CB9E0CC
:10238000EB16F10424F482E00E940C256FC0EDE00E
:10239000EE16F10424F481E00E940C2567C08EEA59
:1023A00096E09F938F9385EA96E09F938F930E9488
:1023B0004D1A82E00E940C25DE01159682E3FD0194
:1023C00011928A95E9F7FD0101900020E9F7319714
:1023D00085E492E59183808382E590E09383828314
:1023E000F801E75BFF4F8081918101960F2EF1E7A5
:1023F000FF2EF02DF89E9001F99E300D1124C8019A
:10240000855B9F4FFC018081918101960F2EF8E939
:10241000EF2EF02DE89EA001E99E500D1124C80179
:102420008B5B9F4FFC0180819181F89EB001F99EEA
:10243000700D1124095B1F4FF80100811181E09E8E
:10244000C001E19E900D11242A5E3F4F4450510976
:10245000695B7F4F8D014B960E94F12381E00E94C2
:102460000C250F900F900F900F903EC0F801E75B86
:10247000FF4F8081918101960F2EF1E7FF2EF02D05
:10248000F89E9001F99E300D1124D801A55BBF4F35
:102490008D919C910196A8E9A89FA001A99F500D3C
:1024A0001124C8018B5B9F4FFC0180819181F89EB4
:1024B000B001F99E700D112432960190F081E02D4B
:1024C000AE9FC001AF9F900D11242A5E3F4F445034
:1024D0005109695B7F4F8E010B5F1F4F4B960E9426
:1024E000F12381E00E940C25EB960FB6F894DEBF35
:1024F0000FBECDBFDF91CF911F910F91FF90EF9055
:10250000DF90CF90BF90AF909F908F907F906F9013
:102510005F904F90089540E05FEF60E080E00E94A0
:102520005C254FEF5FEF6FEF81E00E945C2540E09C
:1025300050E060E082E00E945C2548EC58EC68ECDA
:1025400083E00E945C254FEF50E060E084E00E9451
:102550005C254FEF55EA60E085E00E945C254DEA7E
:1025600058ED66EE86E00E945C2540E050E06FEF9B
:1025700087E00E945C2540E05FEF60E088E00E9419
:102580005C2582E00E94262582E00E9441250E946F
:102590006A2483E996E09F938F930E94CE2B80ED6F
:1025A00097E00E94AF1C81E00E94F12426E130E018
:1025B00040EE51E066E170E080E090E00E94CC24C3
:1025C0004CE652E060E070E084E690E00E94EE238A
:1025D0000F900F9008952F923F924F925F926F92BB
:1025E0007F928F929F92AF92BF92CF92DF92EF92A3
:1025F000FF920F931F93CF93DF93CDB7DEB7EE9784
:102600000FB6F894DEBF0FBECDBF0E94821C6B01D7
:102610007C0128EE33E040E050E00E943B2A290193
:102620003A01C701B60120E63AEE40E050E00E94D0
:102630003B2A2BAB3CAB4DAB5EABC701B60120E8F0
:102640003EEE46E350E00E943B2A49015A01C70191
:10265000B60120E03CE546E255E00E943B2A2FAB64
:1026600038AF49AF5AAF0F2EFCE3CF2ED12CE12C5F
:10267000F12CF02DC301B201A70196010E943B2A63
:102680001B012C016BA97CA98DA99EA9A70196010C
:102690000E943B2AF62EE72EC82ED92E6BAB7CABC0
:1026A0008DAB9EABC501B40128E130E040E050E0C5
:1026B0000E943B2AB62EA72E882E992E6BAF7CAF98
:1026C0008DAF9EAF6FA978AD89AD9AAD2DE631E0A3
:1026D00040E050E00E943B2A762E672E082F192FEB
:1026E0006FAB78AF89AF9AAF809143039091440369
:1026F000A0914503B0914603281639064A065B06A9
:1027000091F020924303309244034092450350924B
:10271000460324E130E040EE51E060E070E08EECF2
:1027200091E00E947D2580913F0390914003A0910C
:102730004103B09142032BA93CA94DA95EA92817DA
:1027400039074A075B0791F0F0923F03E09240039C
:10275000C0924103D092420324E130E048E951E0C5
:1027600060E070E086E891E00E947D2580913B0367
:1027700090913C03A0913D03B0913E032BAD3CAD45
:102780004DAD5EAD281739074A075B0791F0B0924F
:102790003B03A0923C0380923D0390923E0324E1D0
:1027A00030E042E551E060E070E084E491E00E94B6
:1027B0007D258091370390913803A0913903B09122
:1027C0003A032FA938AD49AD5AAD281739074A0742
:1027D0005B0791F0709237036092380300933903DE
:1027E00010933A0324E130E04AE151E060E070E008
:1027F00084E091E00E947D25809133039091340321
:10280000A0913503B0913603892B8A2B8B2B91F045
:102810001092330310923403109235031092360352
:1028200024E130E04EED50E060E070E08EEC90E0AE
:102830000E947D253F922F92EF92FF92AF92BF921E
:102840006F927F921F921F9289E792E09F938F93DE
:102850008E010F5F1F4F1F930F930E94252CA8011D
:1028600060E070E08AEA90E00E94EE230FB6F894F0
:10287000DEBF0FBECDBFEE960FB6F894DEBF0FBE23
:10288000CDBFDF91CF911F910F91FF90EF90DF901F
:10289000CF90BF90AF909F908F907F906F905F9000
:1028A0004F903F902F900895CF93DF93CDB7DEB731
:1028B000C954D2400FB6F894DEBF0FBECDBF1F92F1
:1028C0001F9283E08F9385E38F938FE796E09F932A
:1028D0008F938EE796E09F938F93DFD581E08F9360
:1028E0008AED8F9386E696E09F938F9385E696E038
:1028F0009F938F93D2D519820E94821C2B013C0199
:10290000CE01029608DE80E596E09F938F938FE4D8
:1029100096E09F938F93C1D50FB6F894DEBF0FBE9C
:10292000CDBFF0D76B017C010E94DC1DD701C60131
:1029300084199509A609B709893E9340A105B105F7
:1029400008F462C048DE00E010E056C08FE4809FCB
:10295000F001819FF00D112441E050E04C0F5D1F0C
:10296000E40FF51FE15BFF4F8081811143C08FE4CD
:10297000809FF001819FF00D1124E40FF51F82ADBF
:1029800093ADA4ADB5ADA7019601281B390B4A0B39
:102990005B0BDA01C90181349F41A105B10550F1FA
:1029A0002FE4209FC001219F900D1124E1E0F0E071
:1029B000EC0FFD1FE80FF91FE15BFF4F21E02083C3
:1029C00060E042E050E04C0F5D1F840F951F0E94B5
:1029D000080B1F930F9388E296E09F938F9387E2F3
:1029E00096E09F938F9359D50F900F900F900F9073
:1029F0000F900F900F5F1F4F898190E00817190704
:102A00000CF4A4CF26013701A0904703B0904803EF
:102A1000A114B10429F40E94FB1D0E94A22081CFC1
:102A20008EE6EAE2F5E0DE01A452BE4F01900D927F
:102A30008A95E1F78EE6EAE2F5E0DF011D928A95DC
:102A4000E9F710924803109247030E94FB1DE12C06
:102A5000F12C99C08BE08E9DF0018F9DF00D11241B
:102A60002CED31E02C0F3D1FE20FF31F90818FE41E
:102A7000809FF001819FF00D112441E050E04C0F48
:102A80005D1FE40FF51F8181981330C08FE4809F94
:102A90006001819FD00C112482E090E08C0F9D1F7B
:102AA000C80ED91E8BE08E9DB0018F9D700D112434
:102AB0006D5F7F4F620F731FC6010E94880961E03E
:102AC000C6010E94080B1F930F9381E096E09F932D
:102AD0008F9380E096E09F938F93DFD40F900F90B9
:102AE0000F900F900F900F9081E00CC00F5F1F4F61
:102AF00002C000E010E0898190E0081719070CF48B
:102B0000A9CF80E081113CC08BE08E9D80018F9D1C
:102B1000100D1124ACEDB1E0AC0FBD1F0A0F1B1F4F
:102B2000F80180811F928F9388ED95E09F938F939A
:102B300087ED95E09F938F93B0D4A801BE016F5F9E
:102B40007F4FCE0102960E94C6090F900F900F9002
:102B50000F900F900F90882399F0298130E0215039
:102B600031094FE4429FC001439F900D112461E061
:102B700022E030E02C0F3D1F820F931F0E94080BB4
:102B80003FEFE31AF30AEA14FB040CF4B2CFC9CE08
:102B9000FC0124A935A981E0232B09F080E00895E8
:102BA000FC0180A991A9DC01AA0FBB1FAA0FBB1FC2
:102BB000AE0FBF1F4D935D936D937C93139701965A
:102BC0006CE070E00E94282A282F392F80AB91AB4F
:102BD00084A995A98C30910551F482A993A90196F5
:102BE0006CE070E00E94282A93AB82AB03C0019690
:102BF00095AB84AB85A98F9384A98F9383A98F9379
:102C000082A98F933F932F938FE499E09F938F93A3
:102C10008EE499E09F938F9340D48DB79EB70A9628
:102C20000FB6F8949EBF0FBE8DBF0895FC0111AA88
:102C300010AA13AA12AA15AA14AA08950F931F93F3
:102C4000CF93DF93EC018B01A3DF811119C088A919
:102C500099A90B966CE070E00E94282AFC01EE0F07
:102C6000FF1FEE0FFF1FEC0FFD1F80819181A281DE
:102C7000B381F80180839183A283B38381E001C093
:102C800080E0DF91CF911F910F910895CF93DF9353
:102C9000EC01DB0150E0FA013197E830F10508F072
:102CA0008CC08827E658FF4F8F4F0C945D2A6881AF
:102CB00079818A819B812D913D914D915C91C1E0FB
:102CC0000E94822588230CF481C0C0E07FC0488127
:102CD00059816A817B818D919D910D90BC91A02D30
:102CE000C1E0481759076A077B0708F46FC0C0E0C6
:102CF0006DC0688179818A819B812D913D914D9133
:102D00005C91C1E00E94822588230CF45FC0C0E082
:102D10005DC0488159816A817B818D919D910D9023
:102D2000BC91A02DC1E0481759076A077B0708F43A
:102D30004DC0C0E04BC0688179818A819B812D9113
:102D40003D914D915C91C1E00E9482258823F4F170
:102D5000C0E03CC0488159816A817B818D919D9101
:102D60000D90BC91A02DC1E0481759076A077B0759
:102D700068F1C0E02BC0488159816A817B818D91C7
:102D80009D910D90BC91A02DC1E0481759076A078D
:102D90007B07E0F0C0E01AC0488159816A817B81DD
:102DA0008D919D910D90BC91A02DC1E048175907C0
:102DB0006A077B0758F0C0E009C083EB92E09F935D
:102DC0008F930E94CE2B0F900F90C0E08C2FDF913D
:102DD000CF910895CF93DF93EC01DB0150E0FA012E
:102DE0003197E830F10508F08CC08827EE57FF4F87
:102DF0008F4F0C945D2A688179818A819B812D9106
:102E00003D914D915C91C1E00E94E72518160CF4AC
:102E100081C0C0E07FC0488159816A817B818D91EA
:102E20009D910D90BC91A02DC1E084179507A60738
:102E3000B70708F46FC0C0E06DC0688179818A81EE
:102E40009B812D913D914D915C91C1E00E94E725C0
:102E500018160CF45FC0C0E05DC0488159816A81DA
:102E60007B818D919D910D90BC91A02DC1E0841727
:102E70009507A607B70708F44DC0C0E04BC06881AE
:102E800079818A819B812D913D914D915C91C1E029
:102E90000E94E7251816F4F1C0E03CC04881598132
:102EA0006A817B818D919D910D90BC91A02DC1E097
:102EB00084179507A607B70768F1C0E02BC04881C3
:102EC00059816A817B818D919D910D90BC91A02D3E
:102ED000C1E084179507A607B707E0F0C0E01AC065
:102EE000488159816A817B818D919D910D90BC9122
:102EF000A02DC1E084179507A607B70758F0C0E0DA
:102F000009C08DEE92E09F938F930E94CE2B0F907D
:102F10000F90C0E08C2FDF91CF9108954DD6E2E065
:102F2000F1E080818064808385E08A95F1F700007C
:102F300080818F7B80838FE891E00197F1F700C05B
:102F4000000059C60895CF93C82F36D6C0FF04C0DD
:102F500084B3806284BB03C084B38F7D84BBC1FF14
:102F600004C08EB188608EB903C08EB1877F8EB9E0
:102F7000C2FF06C0E2E0F1E080818860808305C086
:102F8000E2E0F1E08081877F8083C3FF06C0E2E05A
:102F9000F1E080818061808305C0E2E0F1E0808122
:102FA0008F7E8083BBDF27D6CF9108950F931F9329
:102FB000CF93DF93CDB7DEB7AE01485F5F4FDA0145
:102FC0006D917D91AD0100E116E0D8011296ED9171
:102FD000FC91139783818860838383E092E00E9451
:102FE000532CD8011296ED91FC9113978381877F22
:102FF0008383DF91CF911F910F910895CF93C82FB5
:10300000DBD5E2E0F1E080818F7D80838C2F82959B
:103010008F7099DF8C2F97DF85ED8A95F1F700008F
:10302000EAD5CF910895C8D5E1E0F1E080818867C5
:1030300080838DB188608DB983B3806283BB80B398
:10304000816080BB81B38E7F81BB2FEF80E792E0F0
:10305000215080409040E1F700C0000083E073DF22
:103060008FE19EE40197F1F700C0000083E06BDF81
:103070008FE193E00197F1F700C0000083E063DF88
:103080008FE193E00197F1F700C0000082E05BDF81
:1030900088E2B4DF8CE0B2DF81E0B0DF86E0AEDF53
:1030A0008FE19EE40197F1F700C00000A4C50895E8
:1030B00083D51092980581E0A1DF8FE39FE101970E
:1030C000F1F700C0000097C508958CE097CF0895F0
:1030D00088E094CF0895CF93DF93D82FC62F823006
:1030E00008F0D1E069D58C2F90E4D99F800D112490
:1030F000806884DF80E1D89FC00D1124C0939805BB
:103100007AD5DF91CF910895CF93C82F55D5E2E0BE
:10311000F1E08081806280838C2F82958F7013DF35
:103120008C2F11DF85ED8A95F1F7000064D5CF91E2
:10313000089560E080E0CFCF089560E081E0CBCFDC
:103140000895CF93C82F38D5CA3031F480919805AF
:103150008071805F8093980580919805803111F48B
:10316000ECDF04C0803211F4A3DFE3DF8C2F90E0AA
:10317000FC01E458F109E933F105A8F48827E65782
:10318000FF4F8F4F0C945D2ACFEE0DC0C5EF0BC0E3
:10319000C2EE09C0CFEE07C0C5EF05C0CFED03C03A
:1031A000C4EE01C0C1EE8C2FAFDF809198058F5F18
:1031B0008093980520D5CF910895C3DF80E090E0FB
:1031C00008950F931F93CF93DF93EC01F5D402C0C2
:1031D000B8DFE8018E010F5F1F4F88818111F8CFA2
:1031E0000AD5DF91CF911F910F9108950F931F93EF
:1031F000CF93DF93EC01E0D402C0A3DFE8018E019E
:103200000F5F1F4FFE0184918111F7CFF4D4DF913E
:10321000CF911F910F910895FC012185928581E046
:10322000291380E00895CF93DF93EC01F5DF882325
:1032300039F08AE799E09F938F9339D40F900F90DC
:103240009985292F30E0FE01E20FF31F80812F5F67
:103250003F4F2930310514F49F5F01C090E09987FA
:10326000DF91CF910895FC01228530E02F5F3F4F21
:103270002930310514F020E030E0FC01418550E0B8
:1032800081E02417350709F080E008951F93CF935C
:10329000DF93EC01162FE7DF882339F08BE999E003
:1032A0009F938F9304D40F900F902A85822F90E0E4
:1032B000FE01E80FF91F10830196099714F42F5FA0
:1032C00001C020E02A87DF91CF911F910895FC0172
:1032D000118612860895FC01218530E032C0DF019D
:1032E000A20FB31F5C91561324C018C0B9016F5FC1
:1032F0007F4F693071051CF0A0E0B0E001C0DB0138
:10330000AE0FBF1F5C91DF01A20FB31F5C9369304A
:1033100071051CF020E030E001C09B01281739073F
:1033200029F7442311F0415001C048E0428781E071
:103330000895C901019620E030E0893091050CF430
:103340009C014285842F90E02817390741F680E0E0
:1033500008951F920F920FB60F9211248F939F938F
:10336000AF93BF9380914F0390915003A09151036D
:10337000B09152039058AF4FBF4F80934F0390933B
:103380005003A0935103B0935203BF91AF919F910B
:103390008F910F900FBE0F901F901895E1E8F0E00D
:1033A00080818E7F808380818D7F808380818B7FF1
:1033B00080830895109280001092850010928400FE
:1033C00081E090E09093890080938800EFE6F0E040
:1033D000808181608083E2CF0895EED383E090E026
:1033E0009093D5008093D400E0EDF0E080818D7F54
:1033F0008083E1EDF0E0808180618083808188605E
:103400008083F9C308959091D00095FFFCCF8093FD
:10341000D60008950F931F93CF93DF938C01CCD3E5
:10342000D0E00DC0F801ED0FF11DC491CA3011F4C8
:103430008DE0E9DFCC2329F08C2FE5DFDF5FDF3F74
:1034400089F7D9D3DF91CF911F910F910895C5DFEF
:1034500081E192E090931306809312060895CF9332
:10346000C82F8A3011F48DE0CEDF8C2FCCDFCF91C6
:103470000895D0CF0895CF93C82F9ED38C2FEFDF20
:10348000CA3019F48AEB99E0F4DFB5D380E090E01C
:10349000CF9108958AE0E3CF08950F931F93CF93C0
:1034A000DF93CDB7DEB788D388859985E2DF00E169
:1034B00016E0D8011296ED91FC91139783818860F4
:1034C0008383AE01445F5F4F6A857B8512968D9141
:1034D0009C9113970E94532CD8011296ED91FC9168
:1034E00013978381877F8383D5DF85D3DF91CF9146
:1034F0001F910F9108951F920F920FB60F921124F2
:103500000BB60F922F938F939F93EF93FF9380911E
:10351000C0002091C6008C71E0912405EF5F90916E
:103520002305E91739F0E0932405F0E0E95DFA4F4F
:10353000208301C082E090912205892B809322058F
:10354000FF91EF919F918F912F910F900BBE0F9054
:103550000FBE0F901F9018951F920F920FB60F92EB
:1035600011240BB60F928F939F93EF93FF9390913B
:10357000260580912505981761F0E0912505EF5FFC
:10358000E0932505F0E0E95DFA4F80818093C60065
:1035900005C0E1ECF0E080818F7D8083FF91EF91A9
:1035A0009F918F910F900BBE0F900FBE0F901F90A9
:1035B00018951F920F920FB60F9211240BB60F920F
:1035C0002F938F939F93EF93FF938091C800209147
:1035D000CE008C71E091DF03EF5F9091DE03E9177D
:1035E00039F0E093DF03F0E0EE51FC4F208301C09F
:1035F00082E09091DD03892B8093DD03FF91EF91B1
:103600009F918F912F910F900BBE0F900FBE0F9037
:103610001F9018951F920F920FB60F9211240BB6A0
:103620000F928F939F93EF93FF939091E10380917B
:10363000E003981769F0E091E003EF5FEF73E09328
:10364000E003F0E0EE51FB4F80818093CE0005C097
:10365000E9ECF0E080818F7D8083FF91EF919F9175
:103660008F910F900BBE0F900FBE0F901F9018956B
:103670001092E1031092E0031092DF031092DE0338
:10368000282F392F33231CF422E02093C800907890
:103690009093CD008093CC0088E98093C90086E0A8
:1036A0008093CA0008959091DF038091DE039817FC
:1036B00099F08091DE038F5FE82FF0E0EE51FC4F30
:1036C00020813091DD038093DE031092DD0380E0E2
:1036D000932F820F911D089580E091E0089520912D
:1036E000DE0330E08091DF0390E08217930718F04B
:1036F000821B930B089540E051E0BA01621B730BEB
:10370000860F971F08951F920F920FB60F921124E4
:103710000BB60F922F938F939F93EF93FF9380910C
:10372000D0002091D6008C71E0919A03EF5F9091C8
:103730009903E91739F0E0939A03F0E0E356FC4F60
:10374000208301C082E090919803892B8093980395
:10375000FF91EF919F918F912F910F900BBE0F9042
:103760000FBE0F901F9018951F920F920FB60F92D9
:1037700011240BB60F928F939F93EF93FF93909129
:103780009C0380919B03981769F0E0919B03EF5F86
:10379000EF73E0939B03F0E0E356FC4F808180934E
:1037A000D60005C0E1EDF0E080818F7D8083FF9140
:1037B000EF919F918F910F900BBE0F900FBE0F90C6
:1037C0001F9018951F920F920FB60F9211240BB6EF
:1037D0000F922F938F939F93EF93FF9380913001DC
:1037E000209136018C71E0915503EF5FEF7390915A
:1037F0005403E91739F0E0935503F0E0E85AFC4F21
:10380000208301C082E090915303892B809353035E
:10381000FF91EF919F918F912F910F900BBE0F9081
:103820000FBE0F901F9018951F920F920FB60F9218
:1038300011240BB60F928F939F93EF93FF93909168
:10384000570380915603981761F0E0915603EF5F9C
:10385000E0935603F0E0E856FC4F808180933601F8
:1038600005C0E1E3F1E080818F7D8083FF91EF91DE
:103870009F918F910F900BBE0F900FBE0F901F90D6
:1038800018951F920F920FB60F9211248F939F934A
:10389000AF93BF938091990590919A05A0919B0554
:1038A000B0919C050196A11DB11D8093990590933F
:1038B0009A05A0939B05B0939C05BF91AF919F91F2
:1038C0008F910F900FBE0F901F9018951092990531
:1038D00010929A0510929B0510929C0585B5816007
:1038E00085BD85B5826085BD85B58B7F85BD84B579
:1038F000826084BD89EF87BDEEE6F0E08081826062
:10390000808308950FB607FC18C0A99B16C085B325
:10391000826085BB8091990590919A05A0919B0545
:10392000B0919C050196A11DB11D809399059093BE
:103930009A05A0939B05B0939C058FB7282F221F53
:103940002227221FF8946091990570919A05809121
:103950009B0590919C05222309F078940895CF92BD
:10396000DF92EF92FF920F931F93CF93DF93009715
:10397000D1F0EC01C7DF6B017C0106C08FE891E05C
:103980000197F1F700C00000BDDFDC01CB018C190D
:103990009D09AE09BF098E0120E030E08017910734
:1039A000A207B30758F3DF91CF911F910F91FF90BA
:1039B000EF90DF90CF900895CF93DF93CDB7DEB730
:1039C0009F8128858E8181110CC0AE01475F5F4FBA
:1039D0005F934F932F939F936AD00F900F900F9008
:1039E0000F90DF91CF91089521D088E592E0B7DF65
:1039F0005FDB35D181E090E00895E0EBF0E080817D
:103A000082608083E1EBF0E080818460808380814C
:103A100082608083808181608083E0E7F0E0808144
:103A2000826080838CE38093B30008954FDFE5DFED
:103A3000C1DCF9DA0CDD49DB3BDB88E99AE0D6DB57
:103A400082E69AE016DD81E59AE09F938F9388E401
:103A50009AE09F938F9321DD85E08F9388E78F9382
:103A600086E194E09F938F938AE29AE09F938F93ED
:103A700081E29AE09F938F9310DD8DEE99E0F9DC5F
:103A80008CEC99E09F938F9381E026E136E0283714
:103A9000374008F080E08F938FDFF4D18DB79EB769
:103AA0000F960FB6F8949EBF0FBE8DBF0895CF93AB
:103AB000DF93CDB7DEB71E810F81F8948FEF91E2CF
:103AC0009EBF8DBFF5DACE0108969F938F930F931B
:103AD0001F936CDACE0108969F938F930F931F93D9
:103AE00083EC99E09F938F93D8DC0FB6F894DEBFF8
:103AF0000FBECDBFEADA9FEF2DE389E4915020405D
:103B00008040E1F700C00000E3DA9FEF21EE84E09F
:103B1000915020408040E1F700C00000EBCFC0E0B2
:103B2000D0E006C08EE20DDB84E690E018DF21963F
:103B3000C330D105BCF3BCDA84E690E010DFEFCFF0
:103B4000BC01990F880B990B089521E030E002C069
:103B5000220F331F8A95E2F78091ED059091EE05D3
:103B60002823392381E0232B09F480E00895803154
:103B700048F4E82FF0E0EE0FFF1FE353FA4F808187
:103B80009181089580E090E0089590E09C01220FDB
:103B9000331F820F931F880F991F83569A4F0895E2
:103BA00090E0880F991F83539A4F089580912805BC
:103BB000089580911F020895CF93CFB7CC1FCC27D3
:103BC000CC1FF894809127058F3F41F48AE89BE051
:103BD0009F938F936CDF0F900F9003C08F5F809344
:103BE0002705E0E7F0E080818D7F8083CC2309F01A
:103BF0007894CF910895CF93CFB7CC1FCC27CC1F0B
:103C0000F89480912705811108C080E79BE09F937D
:103C10008F934DDF0F900F9003C081508093270545
:103C200080912705811105C0E0E7F0E08081826086
:103C30008083CC2309F07894CF91089580E0B0DFA1
:103C40002FE83DE1FC01318320838091ED059091C7
:103C5000EE0581609093EE058093ED050895109236
:103C60002805EDE9F5E082E08183828193819EBFA2
:103C70008DBF0F901F902F903F904F905F906F904F
:103C80007F908F909F90AF90BF90CF90DF90EF90FC
:103C9000FF900F911F912F913F914F915F916F91E5
:103CA0007F918F919F91AF91BF91CF91DF91EF91D4
:103CB000FF91FFBFFF91189589EA9AE09F938F9338
:103CC000F6DE0F900F90089590E025E333E0829F99
:103CD000A001839F500D929F500D11242FE131E2DE
:103CE000241B350BFC01EE0FFF1FE80FF91FEE0F31
:103CF000FF1FE356FA4F42815381241B203178F491
:103D000090E080E017C0322F32953F70FA01399F62
:103D1000E00DF11D1124308183279F5F02C090E0E8
:103D200080E0903180F30895FA01E90FF11D3081B0
:103D300083279F5F9217C0F30895EF92FF920F932E
:103D40001F93CF93DF93E82EF62E36DFC0E0D0E04E
:103D50000DC0FE01EE0FFF1FEC0FFD1FEE0FFF1F4A
:103D6000E356FA4F8181882331F02196C830D1057E
:103D700084F3CFEFDFEFCF3F8FEFD80781F48EE0F2
:103D80009BE09F938F9380E09BE09F938F9385DBD5
:103D900032DF0F900F900F900F901FEF6BC08E01CE
:103DA000000F111F0C0F1D1F000F111F03561A4F7C
:103DB000D801EC9281E011968C9311971496FC92A5
:103DC000149785E393E0C89F9001C99F300DD89F59
:103DD000300D11248FE191E27C01E21AF30AC70150
:103DE000019713969C938E93129782EE90E2A8DE31
:103DF000F7016083D8011296ED91FC9113979F0112
:103E00002150310913963C932E931297708312968A
:103E1000ED91FC9113979F012150310913963C932A
:103E20002E931297808380E012C0FE01EE0FFF1FD9
:103E3000EC0FFD1FEE0FFF1FE356FA4FA281B38177
:103E40009D0121503109338322831C928F5F81327F
:103E500060F31C2F8C2F38DFFE01EE0FFF1FEC0FDD
:103E6000FD1FEE0FFF1FE356FA4F8583A2DE6C2F76
:103E700001D2C1DE812FDF91CF911F910F91FF9071
:103E8000EF900895CF93DF9380E090E00BC0FC01AA
:103E9000EE0FFF1FE80FF91FEE0FFF1FE356FA4F5B
:103EA000118201968830910594F3C0E0D0E008C0FB
:103EB0008C2F4BDE882319F062E08C2F3EDF219699
:103EC000C031D105ACF380911F02FCD188EB9BE09F
:103ED00046DD2091CD053091CE058AEE9AE09F9384
:103EE0008F9381E0232B09F480E08F9365DD0F90A1
:103EF0000F900F90DF91CF9108958F929F92AF9284
:103F0000BF92CF92DF92EF92FF920F931F93482FB1
:103F100050E0FA01EE0FFF1FE40FF51FEE0FFF1F39
:103F2000E356FA4FC280D380E12CF12C9A01A5E32D
:103F3000B3E00E94652A0FE111E220E030E0061BA9
:103F4000170B280B390B0C151D052E053F0588F0A6
:103F50000AEE1DE120E030E048015901861A970A77
:103F6000A80AB90AC814D904EA04FB0420F480E0C2
:103F700003C080E001C081E01F910F91FF90EF909E
:103F8000DF90CF90BF90AF909F908F900895FF9358
:103F9000FFB7FF93EF93DF93CF93BF93AF939F93BD
:103FA0008F937F936F935F934F933F932F931F93C1
:103FB0000F93FF92EF92DF92CF92BF92AF929F92B8
:103FC0008F927F926F925F924F923F922F921F92A9
:103FD00011240F928091280590E02DB73EB7FC0187
:103FE000EE0FFF1FE80FF91FEE0FFF1FE356FA4F0A
:103FF000338322838FED91E29EBF8DBF1091280500
:10400000C12FD0E0FE01EE0FFF1FEC0FFD1FEE0FE2
:10401000FF1FE356FA4F8181823059F4FE01EE0F03
:10402000FF1FEC0FFD1FEE0FFF1FE356FA4F81E05D
:104030008183812F49DE9E01220F331FC20FD31FC0
:10404000CC0FDD1FC356DA4F8D83812F56DF8111D0
:104050000BC01F921F9386E49BE09F938F9327DDF5
:104060000F900F900F900F90A4DD882319F08130EE
:1040700049F010C0609128058DE995E0C1D080938A
:1040800028050AC0609128058DE995E045D1809307
:10409000280502C010922805C09128058C2F90E0B9
:1040A000FC01EE0FFF1FE80FF91FEE0FFF1FE35695
:1040B000FA4FD5818C2F08DED81759F01F92CF9375
:1040C00086E29BE09F938F93F2DC0F900F900F900E
:1040D0000F908091280590E0FC01EE0FFF1FDF019B
:1040E000A80FB91FAA0FBB1FA356BA4F22E0119603
:1040F0002C931197FD01828193819EBF8DBF0F90FC
:104100001F902F903F904F905F906F907F908F9077
:104110009F90AF90BF90CF90DF90EF90FF900F9166
:104120001F912F913F914F915F916F917F918F914F
:104130009F91AF91BF91CF91DF91EF91FF91FFBF21
:10414000FF91189580912705811104C0F894109271
:10415000B2001DCF0895CF939FEF980F973068F569
:10416000282F30E0F901EE0FFF1FE20FF31FEE0FD3
:10417000FF1FE356FA4F9181992309F1C82F1CDDE7
:104180008C2F03DDFC01118214DD6C2F73D00EDD4A
:10419000C8130FC081E0809327052DDD7894D2DF0E
:1041A00080E293E09F938F930E94BB2B0F900F9020
:1041B000F7CF21DDC7DF81E003C080E001C080E0F0
:1041C000CF910895F3DCC82F90E0FC01EE0FFF1FA4
:1041D000E80FF91FEE0FFF1FE356FA4F8081C7DC8F
:1041E000009711F0FC0119958C2FB5DFABDF80E251
:1041F00093E09F938F930E94BB2B0F900F90F7CF6C
:10420000CF93DF93EC01D2DC91E0980F0FC0292F00
:1042100030E0F901EE0FFF1FE20FF31FEE0FFF1F5B
:10422000EC0FFD1F21812130F9F09F5F983078F36A
:1042300091E00FC0292F30E0F901EE0FFF1FE20FD0
:10424000F31FEE0FFF1FEC0FFD1F2181213071F0D6
:104250009F5F492F50E0282F30E02F5F3F4F4217DC
:10426000530744F380E003C0892F01C0892FDF91F9
:10427000CF910895CF93DF93882309F1D62FC0E023
:1042800009C02BE0C29FC00111246D2F81519A4FAC
:1042900022D8CF5FC330A8F38D2F77DCFC0181815A
:1042A000813069F48D2F71DCFC018481FBE08F9FEC
:1042B000C00111246D2F81519A4F0E944619DF9140
:1042C000CF910895CF93882329F1C0E009C02BE056
:1042D000C29FC001112481519A4F0E946719CF5F7C
:1042E000C330A8F3C1E014C08C2F4FDCFC018181E6
:1042F000813069F48C2F49DCFC018481FBE08F9FC5
:10430000C00111246C2F81519A4F0E944619CF5F32
:10431000C83050F3CF910895DF92EF92FF920F9340
:104320001F93CF93DF93D62EC0E0D0E021C07E0153
:104330002FEFE21AF20A8BE08E9D80018F9D100D07
:10434000112401511A4FC8010E940C1981110FC08C
:10435000C8010E9413199BE09C9F90019D9F300D06
:104360001124682FC90181519A4F0E944619E70113
:10437000C230D105E4F28D2D08DCFC018181813051
:1043800069F48D2D02DCFC018481FBE08F9FC0016C
:1043900011246D2D81519A4F0E944619C0E0D0E042
:1043A00012C08BE08C9F80018D9F100D1124015154
:1043B0001A4FC8010E940C19811104C0C8010E9443
:1043C000131905C02196C330D1055CF380E0DF915D
:1043D000CF911F910F91FF90EF90DF900895FC0116
:1043E00090E008C0DB01A90FB11D2C918081282726
:1043F00020839F5F9417B0F308950F931F93CF937B
:10440000DF938C01EB0145E0EADFBE016B5F7F4F7C
:104410004C81C801E4DFDF91CF911F910F91089586
:104420000E9408060E941006FDCFDAD00C945414A6
:104430000895CF93DF93CDB7DEB7EE970FB6F8941C
:10444000DEBF0FBECDBF80EA9FE089DA812C912CC0
:104450005401839400E010E04CC08FEF8C838DE01A
:10446000800F8B8387E08D8380E28E8389E088AF25
:1044700081E089AFC501B40149D320E030E040E5D7
:1044800051E4A9D3F62EE72ED82EC92E862F9E2DC5
:10449000AD2DBC2D8AAF9BAFACAFBDAF86E0FE01AA
:1044A000F896DE01179601900D928A95E1F71EAEFF
:1044B000BE016F5F7F4FCE01CE969FDF8EAD8FAB7B
:1044C000CE0101960E94DA06CF92DF92EF92FF9220
:1044D00086E293E09F938F930E94BB2B80ED97E041
:1044E0003EDA0F5F1F4F0F900F900F900F900F90BD
:1044F0000F90063011050CF4B0CF8FEF881A980A90
:10450000A80AB80AA7CF81E04BDB20E132E2FC0128
:10451000318320838091ED059091EE058260909328
:10452000EE058093ED05089582E03ADB25E132E265
:10453000FC01318320838091ED059091EE0584602C
:104540009093EE058093ED05089583E029DB29E142
:1045500032E2FC01318320838091ED059091EE05DC
:1045600088609093EE058093ED05089585B18E7F68
:1045700085B9089585B1816085B9089584B1876052
:1045800084B985B1816085B985B1886085B98FE7C7
:104590008CBD0895CF93C82F0FDBCEBD0DB407FEA1
:1045A000FDCFCEB528DB8C2FCF9108958FEFF2CFC2
:1045B0000895F0CF08950F931F93CF93DF938C014D
:1045C000D62FC0E006C0F801EC0FF11D8081E2DFBC
:1045D000CF5FCD17C0F3DF91CF911F910F91089559
:1045E00080912905811107C0E7DAC8DF73D181E026
:1045F0008093290500CB0895FC0190E008C0DB0101
:10460000A90FB11D2C918081280F20839F5F9417E3
:10461000B0F30895EF92FF920F931F93CF93DF9320
:104620001F92CDB7DEB77C01162FC6DA81E1810F6C
:104630008983412FB701CE010196DEDF97DF00E0CD
:1046400081E1B7DF812FB5DF612FC701B4DF898139
:10465000B0DFACDF863039F081E0800F023328F420
:10466000082F91E004C090E002C0082F90E0892F4D
:10467000817031F77FDFBFDA0F90DF91CF911F910B
:104680000F91FF90EF900895CF92DF92EF92FF92FB
:104690000F931F93CF93DF93CDB7DEB7A0970FB6DD
:1046A000F894DEBF0FBECDBF7A012230C1F02330B7
:1046B00051F12130D9F52BE12F872AE5288B2CE405
:1046C000298B8A8B9B8B6C8B7D8B87E0FE013F96C1
:1046D000DE01569601900D928A95E1F727C02BE1F5
:1046E00028872AE5298723E42A878B879C876D877B
:1046F0007E8787E0FE013896DE01569601900D9286
:104700008A95E1F713C02BE129832AE52A8322E564
:104710002B838C839D836E837F8387E0FE0131969C
:10472000DE01569601900D928A95E1F7F70101900E
:104730000020E9F731976F01CE18DF080C2D1D8E90
:1047400088E08C0D91E19E8F8F8F18A242E0BE0110
:10475000625E7F4FCE0180964FDF47E0BE016A5E0A
:104760007F4FCE01809648DF4C2DB701CE01809659
:1047700043DF41E0BE01635E7F4FCE0180963CDFA8
:104780001BDAF4DE10E001C0182F62E0CE014E9675
:1047900012DF67E0CE0146960EDF602FC7010BDF08
:1047A00061E0CE014D9607DF88A103DFFFDE863092
:1047B00021F081E0810F123338F3DCDE1CDAA096A1
:1047C0000FB6F894DEBF0FBECDBFDF91CF911F9122
:1047D0000F91FF90EF90DF90CF90089521E054CF9C
:1047E0000895CF92DF92EF92FF920F931F93CF9392
:1047F000DF93CDB7DEB760970FB6F894DEBF0FBE7C
:10480000CDBF7801EBE1E983EAE5EA83E2E4EB83FB
:104810008C839D836E837F83488759872A873B8754
:1048200085E08C87F80101900020E9F731976F014E
:10483000C01AD10A0C2D1D868DE08C0D91E19E874A
:104840008F87188A42E0BE01625F7F4FCE0140969B
:10485000D3DE4CE0BE016F5F7F4FCE014096CCDED1
:104860004C2DB701CE014096C7DE41E0BE01635F2B
:104870007F4FCE014096C0DE9FD978DE10E001C0A8
:10488000182F62E0CE010E9696DE6CE0CE01019606
:1048900092DE602FC7018FDE61E0CE010D968BDEC8
:1048A000888987DE83DE863021F081E0810F123334
:1048B00038F360DEA0D960960FB6F894DEBF0FBE65
:1048C000CDBFDF91CF911F910F91FF90EF90DF90BF
:1048D000CF900895CF93DF9300D0CDB7DEB78BE1B3
:1048E000898384E48A838CE48B8363E0CE01019620
:1048F00091DE0F900F900F90DF91CF9108950F935D
:10490000CF93DF93CDB7DEB72C970FB6F894DEBF09
:104910000FBECDBFEBE1E983E2E5EA83E6E4EB839A
:104920008C839D836E837F83488759872A873B8743
:104930000C876CE0CE0101966DDE2C960FB6F894D4
:10494000DEBF0FBECDBFDF91CF910F910895CF9302
:10495000DF93CDB7DEB72B970FB6F894DEBF0FBE4F
:10496000CDBFEBE1E983E7E4EA83E2E5EB838C8307
:104970009D836E837F83488759872A873B876BE0B7
:10498000CE01019647DE2B960FB6F894DEBF0FBE20
:10499000CDBFDF91CF910895CF93DF93CDB7DEB731
:1049A0002B970FB6F894DEBF0FBECDBFEBE1E983C6
:1049B000E7E4EA83E4E4EB838C839D836E837F8367
:1049C000488759872A873B876BE0CE01019622DE14
:1049D0002B960FB6F894DEBF0FBECDBFDF91CF91FF
:1049E0000895CF93DF9300D01F921F92CDB7DEB70B
:1049F0009BE1998397E49A839AE59B838C838D83CB
:104A000065E0CE01019606DE0F900F900F900F909B
:104A10000F90DF91CF910895CF93DF9300D01F9235
:104A20001F92CDB7DEB79BE199839AE59A839B836A
:104A30008C838D8365E0CE010196ECDD0F900F90A5
:104A40000F900F900F90DF91CF910895CF93DF9348
:104A500000D01F921F92CDB7DEB79BE1998396E4F9
:104A60009A8397E49B838C831D8265E0CE01019637
:104A7000D1DD0F900F900F900F900F90DF91CF919D
:104A80000895CF93DF9300D01F921F92CDB7DEB76A
:104A90009BE1998396E49A839AE59B838C831D829C
:104AA00065E0CE010196B6DD0F900F900F900F904C
:104AB0000F90DF91CF910895CF93DF93CDB7DEB7FD
:104AC00027970FB6F894DEBF0FBECDBF9BE1998349
:104AD00096E49A8390E59B838C834D835E836F83FA
:104AE00067E0CE01019696DD27960FB6F894DEBFFB
:104AF0000FBECDBFDF91CF9108950F9301E0FFDE90
:104B00000F91089540D008F481E00895E89409C019
:104B100097FB3EF490958095709561957F4F8F4FF0
:104B20009F4F9923A9F0F92F96E9BB279395F69506
:104B3000879577956795B795F111F8CFFAF4BB0F84
:104B400011F460FF1BC06F5F7F4F8F4F9F4F16C0E8
:104B5000882311F096E911C0772321F09EE8872F72
:104B6000762F05C0662371F096E8862F70E060E02E
:104B70002AF09A95660F771F881FDAF7880F9695A7
:104B8000879597F90895990F0008550FAA0BE0E84B
:104B9000FEEF16161706E807F907C0F012161306FF
:104BA000E407F50798F0621B730B840B950B39F43F
:104BB0000A2661F0232B242B252B21F408950A26A5
:104BC00009F4A140A6958FEF811D811D0895DBDFBB
:104BD00008F48FEF08950BD078C069D028F06ED01C
:104BE00018F0952309F05AC05FC01124A2C07ED0EE
:104BF000A0F3959FD1F3950F50E0551F629FF001F0
:104C0000729FBB27F00DB11D639FAA27F00DB11D48
:104C1000AA1F649F6627B00DA11D661F829F2227D1
:104C2000B00DA11D621F739FB00DA11D621F839F58
:104C3000A00D611D221F749F3327A00D611D231F2E
:104C4000849F600D211D822F762F6A2F11249F577C
:104C500050408AF0E1F088234AF0EE0FFF1FBB1F9F
:104C6000661F771F881F91505040A9F79E3F51053E
:104C700070F014C05EC05F3FECF3983EDCF38695A5
:104C800077956795B795F795E7959F5FC1F7FE2BE9
:104C9000880F911D9695879597F9089597F99F67C5
:104CA00080E870E060E008959FEF80EC08950024B4
:104CB0000A941616170618060906089500240A9481
:104CC00012161306140605060895092E0394000C07
:104CD00011F4882352F0BB0F40F4BF2B11F460FF96
:104CE00004C06F5F7F4F8F4F9F4F089557FD9058BF
:104CF000440F551F59F05F3F71F04795880F97FBA0
:104D0000991F61F09F3F79F0879508951216130659
:104D10001406551FF2CF4695F1DF08C01616170688
:104D20001806991FF1CF86957105610508940895BD
:104D3000E894BB2766277727CB0197F908952F9230
:104D40003F924F925F926F927F928F929F92AF921B
:104D5000BF92CF92DF92EF92FF920F931F93CF9368
:104D6000DF93CDB7DEB760970FB6F894DEBF0FBE06
:104D7000CDBF7C011B016A01FC0117821682838171
:104D800081FF2AC39E012F5F3F4F3901F7019381B5
:104D9000F10193FD859193FF81911F01882309F40F
:104DA00017C3853239F493FD859193FF81911F01DB
:104DB000853231F4B70190E0A2D456016501E6CF07
:104DC00010E0512C912CFFE1F915D8F08B3279F0DD
:104DD00038F4803279F08332A1F4F92DF0612EC0DD
:104DE0008D3261F0803369F4292D21602DC0392D79
:104DF0003260932E892D8460982E2AC0E92DE860B8
:104E000015C097FC2DC020ED280F2A3088F496FE9F
:104E100006C03AE0139F200D1124122F19C08AE01A
:104E2000589E200D1124522EE92DE0629E2E10C0B6
:104E30008E3231F496FCCCC2F92DF0649F2E08C05E
:104E40008C3621F4292D2068922E02C0883641F438
:104E5000F10193FD859193FF81911F018111B3CFE2
:104E60009BEB980F933020F4992D9061805E07C0E2
:104E70009BE9980F933008F059C1992D9F7E96FFBA
:104E800016E09F73992E853619F49064992E08C008
:104E9000863621F4392F3068932E02C0111111503B
:104EA00097FE07C01C3350F444244394410E27E07E
:104EB0000BC0183038F027E017E005C027E09CE36E
:104EC000492E02C0212F412C560184E0A80EB11CAE
:104ED000F6016081718182819381042DA30118D331
:104EE0006C01F981FC87F0FF02C0F3FF06C091FC62
:104EF00006C092FE06C000E205C00DE203C00BE250
:104F000001C000E08C858C7019F0011143C280C291
:104F100097FE10C04C0CFC85F4FF04C08A818133DD
:104F200009F44A94141474F528E0241578F588E0FF
:104F3000482E2CC096FC2AC0812F90E08C159D0530
:104F40009CF03CEFC3163FEFD30674F0892D8068C8
:104F5000982E0AC0E2E0F0E0EC0FFD1FE10FF11D1A
:104F60008081803319F411501111F4CF97FE0EC0D7
:104F700044244394410E812F90E0C816D9062CF4A6
:104F80001C1904C04424439401C010E097FE06C0DD
:104F90001C141D0434F4C601019605C085E090E0A0
:104FA00002C081E090E001110196112331F0212F20
:104FB00030E02F5F3F4F820F931F252D30E0821787
:104FC000930714F4581A01C0512C892D897041F4AB
:104FD000552031F0B70180E290E091D35A94F8CF98
:104FE000002321F0B701802F90E089D393FC08C003
:104FF000552031F0B70180E390E081D35A94F8CF87
:1050000097FE4AC04601D7FE02C0812C912CC601F2
:1050100088199909F301E80FF91FFE87ED879601BA
:1050200024193109388B2F87012F10E01195019534
:1050300011093FEF8316930621F4B7018EE290E049
:105040005ED3C814D9044CF08F85988988159905CA
:1050500024F4ED85FE85818101C080E3F1E08F1AA3
:1050600091082D853E852F5F3F4F3E872D87801607
:10507000910624F0B70190E042D3DBCFC814D904E5
:1050800041F49A81963320F4953319F43C8534FF2A
:1050900081E3B70190E048C08A81813319F09C8593
:1050A0009F7E9C87B70190E02AD3111105C094FC24
:1050B00016C085E690E015C0B7018EE290E01FD3E0
:1050C0001E5F82E001E0080FF301E80FF11D80810F
:1050D000B70190E014D3802F0113F4CFE8CF85E41B
:1050E00090E0B7010CD3D7FC06C0C114D10441F441
:1050F000EC85E4FF05C0D194C194D1088DE201C0D4
:105100008BE2B70190E0FBD280E32AE0C216D10423
:105110002CF08F5FFAE0CF1AD108F7CFB70190E0FB
:10512000EED2B701C601C096EAD249C1833631F04A
:10513000833779F0833509F052C01FC0560132E041
:10514000A30EB11CF6018081898301E010E06301A8
:1051500011C05601F2E0AF0EB11CF601C080D18043
:1051600096FE03C0612F70E002C06FEF7FEFC601B3
:10517000BBD28C01F92DFF7713C0560122E0A20E9D
:10518000B11CF601C080D18096FE03C0612F70E093
:1051900002C06FEF7FEFC60193D28C01F92DF0684A
:1051A0009F2EF3FD18C0852D90E00817190798F47D
:1051B000B70180E290E0A3D25A94F5CFF60197FCB4
:1051C000859197FE81916F01B70190E098D25110BF
:1051D0005A94015011090115110581F7F0C0843668
:1051E00011F0893659F5560197FE09C024E0A20E48
:1051F000B11CF60160817181828193810AC0F2E065
:10520000AF0EB11CF60160817181072E000C880B76
:10521000990BF92DFF769F2E97FF09C090958095E9
:10522000709561957F4F8F4F9F4FF0689F2E2AE0BA
:1052300030E0A30146D3C82EC6183EC0092D8537DD
:1052400021F40F7E2AE030E01DC0097F8F3691F0F7
:1052500018F4883559F0BCC0803719F0883711F040
:10526000B7C0006104FF09C0046007C094FE08C015
:10527000066006C028E030E005C020E130E002C052
:1052800020E132E0560107FF09C084E0A80EB11CFE
:10529000F601608171818281938108C0F2E0AF0ED6
:1052A000B11CF6016081718180E090E0A30109D317
:1052B000C82EC6180F77902E96FE0BC0092D0E7FB4
:1052C000C11650F494FE0AC092FC08C0092D0E7E4F
:1052D00005C0DC2C092D03C0DC2C01C0D12E04FF3D
:1052E0000DC0FE01EC0DF11D8081803311F4097EAB
:1052F00009C002FF06C0D394D39404C0802F8678DF
:1053000009F0D39403FD10C000FF06C01C2DD51476
:1053100078F4150D1D190CC0D51450F4B70180E2B6
:1053200090E0EDD1D394F8CFD51410F45D1801C0FE
:10533000512C04FF0FC0B70180E390E0E0D102FFE1
:1053400016C001FD03C088E790E002C088E590E048
:10535000B7010CC0802F867851F001FF02C08BE2AC
:1053600001C080E207FD8DE2B70190E0C8D1C1160F
:1053700030F4B70180E390E0C2D11150F8CFCA9465
:10538000F301EC0DF11D8081B70190E0B8D1C1109F
:10539000F6CF15C0F4E0F51550F584E0581A93FEE9
:1053A0001EC0011125C02C8523FF27C006E811E08F
:1053B000392D3071932EF8018491811121C055202F
:1053C00009F4FCCCB70180E290E099D15A94F7CF70
:1053D000F7018681978123C08FEF9FEF20C0B7012F
:1053E00080E290E08CD15A945110F9CFDACF512C51
:1053F000B701802F90E083D1D6CF0AE811E0D8CF53
:1054000091108052B70190E07AD10F5F1F4FD3CF38
:1054100023E0251510F483E0C1CF512CC4CF609652
:105420000FB6F894DEBF0FBECDBFDF91CF911F91B5
:105430000F91FF90EF90DF90CF90BF90AF909F9033
:105440008F907F906F905F904F903F902F90089536
:1054500097FB072E16F4009406D077FD08D044D0B1
:1054600007FC05D03EF4909581959F4F0895709567
:1054700061957F4F0895A1E21A2EAA1BBB1BFD0167
:105480000DC0AA1FBB1FEE1FFF1FA217B307E40723
:10549000F50720F0A21BB30BE40BF50B661F771F7B
:1054A000881F991F1A9469F760957095809590955B
:1054B0009B01AC01BD01CF010895EE0FFF1F881FB6
:1054C0008BBF0790F691E02D1994A29FB001B39F76
:1054D000C001A39F700D811D1124911DB29F700DFD
:1054E000811D1124911D0895AA1BBB1B51E107C00A
:1054F000AA1FBB1FA617B70710F0A61BB70B881F64
:10550000991F5A95A9F780959095BC01CD010895F2
:10551000283008F027E03327DA01990F311D87FD85
:10552000916000966105710539F432602E5F3D93FC
:1055300030E32A95E1F708959F3F30F080387105F8
:10554000610509F03C5F3C5F3D93913008F0806855
:10555000911DDF93CF931F930F93FF92EF92192F1B
:10556000987F9695E92F96959695E90FFF27E85134
:10557000FE4F99273327EE24FF24A701E70105906A
:105580000894079428F4360FE71EF81E491F511D92
:10559000660F771F881F991F0694A1F7059007943F
:1055A00028F4E70EF81E491F561FC11D770F881FEC
:1055B000991F661F0694A1F70590079428F4F80E2A
:1055C000491F561FC71FD11D880F991F661F771FC0
:1055D0000694A1F70590079420F4490F561FC71FA2
:1055E000D81F990F661F771F881F0694A9F784910B
:1055F0001095177041F0D695C79557954795F79434
:10560000E7941A95C1F7EEE8F1E0689415901591CA
:1056100035916591959105907FE27395E118F10AB6
:10562000430B560BC90BD009C0F7E10CF11E431F09
:10563000561FC91FD01D7EF4703311F48A95E6CF32
:10564000E894015030F0080F0AF40027021708F41C
:10565000202F2395022F7A3328F079E37D932A9522
:10566000E9F710C07D932A9589F60694979567957A
:10567000379517951794E118F10A430B560BC90B90
:10568000D00998F023957E9173957A3308F070E3F2
:105690007C932013B8F77E9170617D9330F08395F1
:1056A00071E37D9370E32A95E1F71124EF90FF9069
:1056B0000F911F91CF91DF91992787FD90950895C4
:1056C000FC010590615070400110D8F780959095CD
:1056D0008E0F9F1F0895FB01DC0102C001900D9207
:1056E00041505040D8F70895FC016150704001903E
:1056F0000110D8F7809590958E0F9F1F08950F93F6
:105700001F93CF93DF93FB01238121FD03C08FEF14
:105710009FEF2CC022FF16C046815781248135811E
:105720004217530744F4A081B1819D012F5F3F4F81
:10573000318320838C93268137812F5F3F4F3783BE
:10574000268314C08B01EC01FB010084F185E02D60
:105750001995892BE1F6D80116968D919C91179792
:10576000019617969C938E931697CE01DF91CF9159
:105770001F910F910895CF93DF93CDB7DEB7AE01A0
:105780004A5F5F4FFA0161917191AF0180911206FA
:1057900090911306D4DADF91CF9108950F931F9360
:1057A000CF93DF93CDB7DEB7AE01485F5F4FDA012D
:1057B0006D917D91AD0100E116E0F8018281938148
:1057C000DC0113962C911397286013962C93B7DA6B
:1057D000D8011296ED91FC9113972381277F2383A3
:1057E000DF91CF911F910F9108950F931F93CF9346
:1057F000DF93E0911206F0911306238121FF1BC075
:105800008C01D0E0C0E0F80181918F016091120617
:1058100070911306DB011896ED91FC91199788237E
:1058200031F01995892B79F3DFEFCFEFECCF8AE0D8
:105830001995892B19F08FEF9FEF02C08D2F9C2FA8
:10584000DF91CF911F910F9108950F931F93CF93E5
:10585000DF93CDB7DEB72E970FB6F894DEBF0FBE3D
:10586000CDBF0E891F8986E08C831A8309838FEF51
:105870009FE79E838D83AE01465E5F4F688D798D75
:10588000CE0101965CDAEF81F885E00FF11F1082FE
:105890002E960FB6F894DEBF0FBECDBFDF91CF912D
:1058A0001F910F910895CF93DF93EC018B81886056
:1058B0008B83CE0144DA2B81277F2B83DF91CF911D
:1058C0000895FA01AA27283051F1203181F1E89496
:1058D0006F936E7F6E5F7F4F8F4F9F4FAF4FB1E0E3
:1058E0003ED0B4E03CD0670F781F891F9A1FA11DDE
:1058F000680F791F8A1F911DA11D6A0F711D811DDF
:10590000911DA11D20D009F468943F912AE0269FA3
:1059100011243019305D3193DEF6CF010895462F02
:105920004770405D4193B3E00FD0C9F7F6CF462FE3
:105930004F70405D4A3318F0495D31FD405241934C
:1059400002D0A9F7EACFB4E0A69597958795779509
:105950006795BA95C9F700976105710508959B0190
:10596000AC010A2E06945795479537952795BA9519
:10597000C9F7620F731F841F951FA01D0895F89427
:02598000FFCF57
:105982000C46520000000200000000DD180000007A
:105992000000000002000000003B1A0000000001AD
:1059A200416464726573733A2025642C2053656EDA
:1059B200736F723A202564007570646174655F6765
:1059C20075695F656C656D656E742829205752494B
:1059D2005454454E2054494D454F55542053594D2A
:1059E200424F4C00257500252E31660052756E6EB1
:1059F200696E6720666F723A0059656172733A2563
:105A020030326420446179733A2530336420486F20
:105A12007572733A25303264204D696E7574657300
:105A22003A25303264205365636F6E64733A2530D1
:105A32003264004552524F523A2073656E736F7250
:105A42005F76616C75655F69735F736D616C6C65C0
:105A5200723A20556E6B6E6F776E2073656E736F40
:105A620072206461746120747970650A0073656ED6
:105A7200736F725F76616C75655F69735F6772657C
:105A8200617465723A20556E6B6E6F776E20736526
:105A92006E736F72206461746120747970650A009C
:105AA20050656E69730076616C75653A2025640AEB
:025AB2000000F2
:00000001FF
